{
  "contractName": "MyContract",
  "abi": [
    {
      "anonymous": false,
      "inputs": [
        {
          "indexed": false,
          "internalType": "uint256",
          "name": "_id",
          "type": "uint256"
        }
      ],
      "name": "DeleteProduct",
      "type": "event"
    },
    {
      "anonymous": false,
      "inputs": [
        {
          "indexed": false,
          "internalType": "uint256",
          "name": "_id",
          "type": "uint256"
        }
      ],
      "name": "NewProductCreated",
      "type": "event"
    },
    {
      "anonymous": false,
      "inputs": [
        {
          "indexed": true,
          "internalType": "uint256",
          "name": "_id",
          "type": "uint256"
        }
      ],
      "name": "NewSellerCreated",
      "type": "event"
    },
    {
      "inputs": [],
      "name": "admin",
      "outputs": [
        {
          "internalType": "address payable",
          "name": "",
          "type": "address"
        }
      ],
      "stateMutability": "view",
      "type": "function",
      "constant": true
    },
    {
      "inputs": [
        {
          "internalType": "string",
          "name": "_hashID",
          "type": "string"
        }
      ],
      "name": "createNewAccount",
      "outputs": [
        {
          "internalType": "bool",
          "name": "",
          "type": "bool"
        }
      ],
      "stateMutability": "nonpayable",
      "type": "function"
    },
    {
      "inputs": [
        {
          "internalType": "address",
          "name": "_account",
          "type": "address"
        }
      ],
      "name": "findUserByAddress",
      "outputs": [
        {
          "components": [
            {
              "internalType": "address payable",
              "name": "_account",
              "type": "address"
            },
            {
              "internalType": "string",
              "name": "_hashID",
              "type": "string"
            },
            {
              "internalType": "uint256",
              "name": "_id",
              "type": "uint256"
            }
          ],
          "internalType": "struct UserContract.User",
          "name": "",
          "type": "tuple"
        }
      ],
      "stateMutability": "view",
      "type": "function",
      "constant": true
    },
    {
      "inputs": [
        {
          "internalType": "address payable",
          "name": "_admin",
          "type": "address"
        }
      ],
      "name": "initialize",
      "outputs": [],
      "stateMutability": "nonpayable",
      "type": "function"
    },
    {
      "inputs": [],
      "name": "productCount",
      "outputs": [
        {
          "internalType": "uint256",
          "name": "",
          "type": "uint256"
        }
      ],
      "stateMutability": "view",
      "type": "function",
      "constant": true
    },
    {
      "inputs": [
        {
          "internalType": "string",
          "name": "_hashID",
          "type": "string"
        }
      ],
      "name": "updateAccountDetails",
      "outputs": [],
      "stateMutability": "nonpayable",
      "type": "function"
    },
    {
      "inputs": [
        {
          "internalType": "address",
          "name": "",
          "type": "address"
        }
      ],
      "name": "users",
      "outputs": [
        {
          "internalType": "address payable",
          "name": "_account",
          "type": "address"
        },
        {
          "internalType": "string",
          "name": "_hashID",
          "type": "string"
        },
        {
          "internalType": "uint256",
          "name": "_id",
          "type": "uint256"
        }
      ],
      "stateMutability": "view",
      "type": "function",
      "constant": true
    },
    {
      "inputs": [
        {
          "internalType": "string",
          "name": "_productDetails",
          "type": "string"
        }
      ],
      "name": "createNewProduct",
      "outputs": [],
      "stateMutability": "nonpayable",
      "type": "function"
    },
    {
      "inputs": [
        {
          "internalType": "uint256",
          "name": "_productId",
          "type": "uint256"
        },
        {
          "internalType": "string",
          "name": "_productDetails",
          "type": "string"
        }
      ],
      "name": "updateProduct",
      "outputs": [],
      "stateMutability": "nonpayable",
      "type": "function"
    },
    {
      "inputs": [
        {
          "internalType": "uint256",
          "name": "_productId",
          "type": "uint256"
        }
      ],
      "name": "deleteProduct",
      "outputs": [
        {
          "internalType": "bool",
          "name": "",
          "type": "bool"
        }
      ],
      "stateMutability": "nonpayable",
      "type": "function"
    },
    {
      "inputs": [],
      "name": "deleteUserAccount",
      "outputs": [],
      "stateMutability": "nonpayable",
      "type": "function"
    },
    {
      "inputs": [
        {
          "internalType": "uint256",
          "name": "_productId",
          "type": "uint256"
        }
      ],
      "name": "findProduct",
      "outputs": [
        {
          "components": [
            {
              "internalType": "address payable",
              "name": "_seller",
              "type": "address"
            },
            {
              "internalType": "string",
              "name": "_productDetails",
              "type": "string"
            },
            {
              "internalType": "uint256",
              "name": "_productId",
              "type": "uint256"
            }
          ],
          "internalType": "struct MyContract.Product",
          "name": "",
          "type": "tuple"
        }
      ],
      "stateMutability": "view",
      "type": "function",
      "constant": true
    }
  ],
  "bytecode": "0x608060405234801561001057600080fd5b50612199806100206000396000f3fe608060405234801561001057600080fd5b50600436106100b45760003560e01c8063d628404411610071578063d62840441461019f578063e0f6ef87146101cf578063e18ca599146101ed578063e68a304e146101f7578063ed90c7b714610213578063f851a44014610243576100b4565b806317b5c36d146100b9578063522ae8b6146100e9578063a87430ba14610105578063c17ab5f014610137578063c4d66de814610153578063ca8537001461016f575b600080fd5b6100d360048036036100ce919081019061187b565b610261565b6040516100e09190612000565b60405180910390f35b61010360048036036100fe919081019061193b565b610441565b005b61011f600480360361011a919081019061187b565b6106e8565b60405161012e93929190611e45565b60405180910390f35b610151600480360361014c91908101906118cd565b6107ca565b005b61016d600480360361016891908101906118a4565b610a21565b005b61018960048036036101849190810190611912565b610b4c565b6040516101969190611fde565b60405180910390f35b6101b960048036036101b491908101906118cd565b610cd5565b6040516101c69190611e83565b60405180910390f35b6101d7610f84565b6040516101e49190612022565b60405180910390f35b6101f5610f8a565b005b610211600480360361020c91908101906118cd565b611176565b005b61022d60048036036102289190810190611912565b611383565b60405161023a9190611e83565b60405180910390f35b61024b611538565b6040516102589190611e2a565b60405180910390f35b610269611617565b6000603560008473ffffffffffffffffffffffffffffffffffffffff1673ffffffffffffffffffffffffffffffffffffffff16815260200190815260200160002060020154116102ee576040517f08c379a00000000000000000000000000000000000000000000000000000000081526004016102e590611f5e565b60405180910390fd5b603560008373ffffffffffffffffffffffffffffffffffffffff1673ffffffffffffffffffffffffffffffffffffffff1681526020019081526020016000206040518060600160405290816000820160009054906101000a900473ffffffffffffffffffffffffffffffffffffffff1673ffffffffffffffffffffffffffffffffffffffff1673ffffffffffffffffffffffffffffffffffffffff168152602001600182018054600181600116156101000203166002900480601f0160208091040260200160405190810160405280929190818152602001828054600181600116156101000203166002900480156104275780601f106103fc57610100808354040283529160200191610427565b820191906000526020600020905b81548152906001019060200180831161040a57829003601f168201915b505050505081526020016002820154815250509050919050565b6000339050600060376000868152602001908152602001600020600201541161049f576040517f08c379a000000000000000000000000000000000000000000000000000000000815260040161049690611f9e565b60405180910390fd5b6037600085815260200190815260200160002060000160009054906101000a900473ffffffffffffffffffffffffffffffffffffffff1673ffffffffffffffffffffffffffffffffffffffff168173ffffffffffffffffffffffffffffffffffffffff1614610543576040517f08c379a000000000000000000000000000000000000000000000000000000000815260040161053a90611f7e565b60405180910390fd5b61055b6040518060200160405280600081525061155e565b6105a884848080601f016020809104026020016040519081016040528093929190818152602001838380828437600081840152601f19601f8201169050808301925050505050505061155e565b14156105e9576040517f08c379a00000000000000000000000000000000000000000000000000000000081526004016105e090611e9e565b60405180910390fd5b60405180606001604052808273ffffffffffffffffffffffffffffffffffffffff16815260200184848080601f016020809104026020016040519081016040528093929190818152602001838380828437600081840152601f19601f820116905080830192505050505050508152602001858152506037600086815260200190815260200160002060008201518160000160006101000a81548173ffffffffffffffffffffffffffffffffffffffff021916908373ffffffffffffffffffffffffffffffffffffffff16021790555060208201518160010190805190602001906106d492919061164e565b506040820151816002015590505050505050565b60356020528060005260406000206000915090508060000160009054906101000a900473ffffffffffffffffffffffffffffffffffffffff1690806001018054600181600116156101000203166002900480601f0160208091040260200160405190810160405280929190818152602001828054600181600116156101000203166002900480156107ba5780601f1061078f576101008083540402835291602001916107ba565b820191906000526020600020905b81548152906001019060200180831161079d57829003601f168201915b5050505050908060020154905083565b60003390506000603560008373ffffffffffffffffffffffffffffffffffffffff1673ffffffffffffffffffffffffffffffffffffffff1681526020019081526020016000206002015411610854576040517f08c379a000000000000000000000000000000000000000000000000000000000815260040161084b90611f5e565b60405180910390fd5b61086c6040518060200160405280600081525061155e565b6108b984848080601f016020809104026020016040519081016040528093929190818152602001838380828437600081840152601f19601f8201169050808301925050505050505061155e565b14156108fa576040517f08c379a00000000000000000000000000000000000000000000000000000000081526004016108f190611f3e565b60405180910390fd5b603560008273ffffffffffffffffffffffffffffffffffffffff1673ffffffffffffffffffffffffffffffffffffffff16815260200190815260200160002060000160009054906101000a900473ffffffffffffffffffffffffffffffffffffffff1673ffffffffffffffffffffffffffffffffffffffff168173ffffffffffffffffffffffffffffffffffffffff16146109ca576040517f08c379a00000000000000000000000000000000000000000000000000000000081526004016109c190611efe565b60405180910390fd5b8282603560008473ffffffffffffffffffffffffffffffffffffffff1673ffffffffffffffffffffffffffffffffffffffff1681526020019081526020016000206001019190610a1b9291906116ce565b50505050565b600060019054906101000a900460ff1680610a405750610a3f61158e565b5b80610a5757506000809054906101000a900460ff16155b610a96576040517f08c379a0000000000000000000000000000000000000000000000000000000008152600401610a8d90611f1e565b60405180910390fd5b60008060019054906101000a900460ff161590508015610ae6576001600060016101000a81548160ff02191690831515021790555060016000806101000a81548160ff0219169083151502179055505b81603460006101000a81548173ffffffffffffffffffffffffffffffffffffffff021916908373ffffffffffffffffffffffffffffffffffffffff1602179055508015610b485760008060016101000a81548160ff0219169083151502179055505b5050565b610b5461174e565b600060376000848152602001908152602001600020600201541415610bae576040517f08c379a0000000000000000000000000000000000000000000000000000000008152600401610ba590611f9e565b60405180910390fd5b603760008381526020019081526020016000206040518060600160405290816000820160009054906101000a900473ffffffffffffffffffffffffffffffffffffffff1673ffffffffffffffffffffffffffffffffffffffff1673ffffffffffffffffffffffffffffffffffffffff168152602001600182018054600181600116156101000203166002900480601f016020809104026020016040519081016040528092919081815260200182805460018160011615610100020316600290048015610cbb5780601f10610c9057610100808354040283529160200191610cbb565b820191906000526020600020905b815481529060010190602001808311610c9e57829003601f168201915b505050505081526020016002820154815250509050919050565b6000803390506000603560008373ffffffffffffffffffffffffffffffffffffffff1673ffffffffffffffffffffffffffffffffffffffff1681526020019081526020016000206002015414610d60576040517f08c379a0000000000000000000000000000000000000000000000000000000008152600401610d5790611ebe565b60405180910390fd5b610d786040518060200160405280600081525061155e565b610dc585858080601f016020809104026020016040519081016040528093929190818152602001838380828437600081840152601f19601f8201169050808301925050505050505061155e565b1415610e06576040517f08c379a0000000000000000000000000000000000000000000000000000000008152600401610dfd90611f3e565b60405180910390fd5b610e116033546115a5565b603381905550610e1f611617565b60405180606001604052808373ffffffffffffffffffffffffffffffffffffffff16815260200186868080601f016020809104026020016040519081016040528093929190818152602001838380828437600081840152601f19601f820116905080830192505050505050508152602001603354815250905080603560008473ffffffffffffffffffffffffffffffffffffffff1673ffffffffffffffffffffffffffffffffffffffff16815260200190815260200160002060008201518160000160006101000a81548173ffffffffffffffffffffffffffffffffffffffff021916908373ffffffffffffffffffffffffffffffffffffffff1602179055506020820151816001019080519060200190610f3b92919061164e565b50604082015181600201559050506033547fb993381ba8f4240ce3f7b76903ea25b60532c055966da6a88e3281d4dadde54460405160405180910390a260019250505092915050565b60365481565b60003390506000603560008373ffffffffffffffffffffffffffffffffffffffff1673ffffffffffffffffffffffffffffffffffffffff1681526020019081526020016000206002015411611014576040517f08c379a000000000000000000000000000000000000000000000000000000000815260040161100b90611f5e565b60405180910390fd5b6000600190505b60365481116110f1578173ffffffffffffffffffffffffffffffffffffffff166037600083815260200190815260200160002060000160009054906101000a900473ffffffffffffffffffffffffffffffffffffffff1673ffffffffffffffffffffffffffffffffffffffff1614156110e45760376000828152602001908152602001600020600080820160006101000a81549073ffffffffffffffffffffffffffffffffffffffff02191690556001820160006110d99190611785565b600282016000905550505b808060010191505061101b565b50603560008273ffffffffffffffffffffffffffffffffffffffff1673ffffffffffffffffffffffffffffffffffffffff168152602001908152602001600020600080820160006101000a81549073ffffffffffffffffffffffffffffffffffffffff02191690556001820160006111699190611785565b6002820160009055505050565b600033905061118481610261565b5061119d6040518060200160405280600081525061155e565b6111ea84848080601f016020809104026020016040519081016040528093929190818152602001838380828437600081840152601f19601f8201169050808301925050505050505061155e565b141561122b576040517f08c379a000000000000000000000000000000000000000000000000000000000815260040161122290611e9e565b60405180910390fd5b6112366036546115a5565b60368190555061124461174e565b60405180606001604052808373ffffffffffffffffffffffffffffffffffffffff16815260200185858080601f016020809104026020016040519081016040528093929190818152602001838380828437600081840152601f19601f82011690508083019250505050505050815260200160365481525090508060376000603654815260200190815260200160002060008201518160000160006101000a81548173ffffffffffffffffffffffffffffffffffffffff021916908373ffffffffffffffffffffffffffffffffffffffff160217905550602082015181600101908051906020019061133692919061164e565b50604082015181600201559050507fe93da0b8f4a47f88d615d028b7d2b06e5e95abe8949a1619ce9de5fd192670556036546040516113759190612022565b60405180910390a150505050565b60008033905060006037600085815260200190815260200160002060020154116113e2576040517f08c379a00000000000000000000000000000000000000000000000000000000081526004016113d990611f9e565b60405180910390fd5b6037600084815260200190815260200160002060000160009054906101000a900473ffffffffffffffffffffffffffffffffffffffff1673ffffffffffffffffffffffffffffffffffffffff168173ffffffffffffffffffffffffffffffffffffffff1614611486576040517f08c379a000000000000000000000000000000000000000000000000000000000815260040161147d90611fbe565b60405180910390fd5b60376000848152602001908152602001600020600080820160006101000a81549073ffffffffffffffffffffffffffffffffffffffff02191690556001820160006114d19190611785565b600282016000905550507f0e10ee3ece1ddd5966cebc571a843f6af8abd1fa7b2ef3d7279c44873b1e7bf88360405161150a9190612022565b60405180910390a1600060376000858152602001908152602001600020600201541461153257fe5b50919050565b603460009054906101000a900473ffffffffffffffffffffffffffffffffffffffff1681565b6000816040516020016115719190611e13565b604051602081830303815290604052805190602001209050919050565b6000803090506000813b9050600081149250505090565b60006115bb6001836115c290919063ffffffff16565b9050919050565b60008082840190508381101561160d576040517f08c379a000000000000000000000000000000000000000000000000000000000815260040161160490611ede565b60405180910390fd5b8091505092915050565b6040518060600160405280600073ffffffffffffffffffffffffffffffffffffffff16815260200160608152602001600081525090565b828054600181600116156101000203166002900490600052602060002090601f016020900481019282601f1061168f57805160ff19168380011785556116bd565b828001600101855582156116bd579182015b828111156116bc5782518255916020019190600101906116a1565b5b5090506116ca91906117cd565b5090565b828054600181600116156101000203166002900490600052602060002090601f016020900481019282601f1061170f57803560ff191683800117855561173d565b8280016001018555821561173d579182015b8281111561173c578235825591602001919060010190611721565b5b50905061174a91906117cd565b5090565b6040518060600160405280600073ffffffffffffffffffffffffffffffffffffffff16815260200160608152602001600081525090565b50805460018160011615610100020316600290046000825580601f106117ab57506117ca565b601f0160209004906000526020600020908101906117c991906117cd565b5b50565b6117ef91905b808211156117eb5760008160009055506001016117d3565b5090565b90565b6000813590506118018161211e565b92915050565b60008135905061181681612135565b92915050565b60008083601f84011261182e57600080fd5b8235905067ffffffffffffffff81111561184757600080fd5b60208301915083600182028301111561185f57600080fd5b9250929050565b6000813590506118758161214c565b92915050565b60006020828403121561188d57600080fd5b600061189b848285016117f2565b91505092915050565b6000602082840312156118b657600080fd5b60006118c484828501611807565b91505092915050565b600080602083850312156118e057600080fd5b600083013567ffffffffffffffff8111156118fa57600080fd5b6119068582860161181c565b92509250509250929050565b60006020828403121561192457600080fd5b600061193284828501611866565b91505092915050565b60008060006040848603121561195057600080fd5b600061195e86828701611866565b935050602084013567ffffffffffffffff81111561197b57600080fd5b6119878682870161181c565b92509250509250925092565b61199c81612092565b82525050565b6119ab81612092565b82525050565b6119ba816120a4565b82525050565b60006119cb82612048565b6119d58185612075565b93506119e58185602086016120da565b80840191505092915050565b60006119fc8261203d565b611a068185612053565b9350611a168185602086016120da565b611a1f8161210d565b840191505092915050565b6000611a358261203d565b611a3f8185612064565b9350611a4f8185602086016120da565b611a588161210d565b840191505092915050565b6000611a70601683612064565b91507f496e7075742063616e206e6f7420626520626c616e6b000000000000000000006000830152602082019050919050565b6000611ab0601883612064565b91507f557365722068617320616c7265616479206578697374656400000000000000006000830152602082019050919050565b6000611af0601b83612064565b91507f536166654d6174683a206164646974696f6e206f766572666c6f7700000000006000830152602082019050919050565b6000611b30601183612064565b91507f4e6f7420612076616c6964206f776e65720000000000000000000000000000006000830152602082019050919050565b6000611b70602e83612064565b91507f436f6e747261637420696e7374616e63652068617320616c726561647920626560008301527f656e20696e697469616c697a65640000000000000000000000000000000000006020830152604082019050919050565b6000611bd6600f83612064565b91507f496e76616c6964206861736820696400000000000000000000000000000000006000830152602082019050919050565b6000611c16601383612064565b91507f5573657220646f6573206e6f74206578697374000000000000000000000000006000830152602082019050919050565b6000611c56602b83612064565b91507f4f6e6c792076616c6964206f776e657220697320616c6c6f77656420746f206560008301527f6469742070726f647563740000000000000000000000000000000000000000006020830152604082019050919050565b6000611cbc601783612064565b91507f50726f6475637420646f6573206e6f74206578697374210000000000000000006000830152602082019050919050565b6000611cfc602d83612064565b91507f4f6e6c792076616c6964206f776e657220697320616c6c6f77656420746f206460008301527f656c6574652070726f64756374000000000000000000000000000000000000006020830152604082019050919050565b6000606083016000830151611d6d6000860182611993565b5060208301518482036020860152611d8582826119f1565b9150506040830151611d9a6040860182611df5565b508091505092915050565b6000606083016000830151611dbd6000860182611993565b5060208301518482036020860152611dd582826119f1565b9150506040830151611dea6040860182611df5565b508091505092915050565b611dfe816120d0565b82525050565b611e0d816120d0565b82525050565b6000611e1f82846119c0565b915081905092915050565b6000602082019050611e3f60008301846119a2565b92915050565b6000606082019050611e5a60008301866119a2565b8181036020830152611e6c8185611a2a565b9050611e7b6040830184611e04565b949350505050565b6000602082019050611e9860008301846119b1565b92915050565b60006020820190508181036000830152611eb781611a63565b9050919050565b60006020820190508181036000830152611ed781611aa3565b9050919050565b60006020820190508181036000830152611ef781611ae3565b9050919050565b60006020820190508181036000830152611f1781611b23565b9050919050565b60006020820190508181036000830152611f3781611b63565b9050919050565b60006020820190508181036000830152611f5781611bc9565b9050919050565b60006020820190508181036000830152611f7781611c09565b9050919050565b60006020820190508181036000830152611f9781611c49565b9050919050565b60006020820190508181036000830152611fb781611caf565b9050919050565b60006020820190508181036000830152611fd781611cef565b9050919050565b60006020820190508181036000830152611ff88184611d55565b905092915050565b6000602082019050818103600083015261201a8184611da5565b905092915050565b60006020820190506120376000830184611e04565b92915050565b600081519050919050565b600081519050919050565b600082825260208201905092915050565b600082825260208201905092915050565b600081905092915050565b600061208b826120b0565b9050919050565b600061209d826120b0565b9050919050565b60008115159050919050565b600073ffffffffffffffffffffffffffffffffffffffff82169050919050565b6000819050919050565b60005b838110156120f85780820151818401526020810190506120dd565b83811115612107576000848401525b50505050565b6000601f19601f8301169050919050565b61212781612080565b811461213257600080fd5b50565b61213e81612092565b811461214957600080fd5b50565b612155816120d0565b811461216057600080fd5b5056fea26469706673582212209de35f06141a975f9e1b3b97488f3a8ad2f9702d1d5472c8b514ca9e754c0e7f64736f6c63430006000033",
  "source": "// SPDX-License-Identifier: MIT\r\npragma experimental ABIEncoderV2;\r\npragma solidity >=0.4.22 <0.8.0;\r\n\r\nimport \"@openzeppelin/contracts-ethereum-package/contracts/access/Ownable.sol\";\r\nimport \"@openzeppelin/contracts-ethereum-package/contracts/math/SafeMath.sol\";\r\nimport \"@openzeppelin/contracts-ethereum-package/contracts/Initializable.sol\";\r\n\r\ncontract UserContract is Initializable {\r\n    using SafeMath for uint;\r\n    uint userCounter;\r\n    address payable public admin;\r\n\r\n\r\n    mapping(address => User) public users;\r\n    \r\n    // Structures\r\n    struct User {\r\n        address payable _account;\r\n        string _hashID;\r\n        uint _id;\r\n    }\r\n    \r\n    // Events\r\n    event NewSellerCreated(uint indexed _id);\r\n\r\n    function initialize(address payable _admin) initializer public {\r\n        admin = _admin;\r\n    }\r\n    \r\n    // Create new User\r\n    function createNewAccount(string calldata _hashID) external returns(bool) {\r\n        address payable _user = msg.sender;\r\n        require(users[_user]._id == 0, \"User has already existed\");\r\n        require(encode(_hashID) != encode(''), 'Invalid hash id');\r\n\r\n        userCounter = incrementCounter(userCounter);\r\n        \r\n        User memory _newUser = User(_user, _hashID, userCounter);\r\n        \r\n        users[_user] = _newUser;\r\n        emit NewSellerCreated(userCounter);\r\n        return true;\r\n    }\r\n    \r\n    // Update account details\r\n    function updateAccountDetails(string calldata _hashID) external {\r\n        address payable _account = msg.sender;\r\n        require(users[_account]._id > 0, \"User does not exist\");\r\n        require(encode(_hashID) != encode(''), 'Invalid hash id');\r\n        require(_account == users[_account]._account, 'Not a valid owner');\r\n\r\n        users[_account]._hashID = _hashID;\r\n    }\r\n\r\n    // Find user by address\r\n    function findUserByAddress(address _account) public view returns(User memory) {\r\n        require(users[_account]._id > 0, \"User does not exist\");\r\n        return users[_account];\r\n    }\r\n\r\n    // Increment seller's count\r\n    function incrementCounter(uint _count) internal pure returns(uint) {\r\n        return _count.add(1);\r\n    }\r\n\r\n    function encode(string memory _data) internal pure returns(bytes32) {\r\n        return keccak256(abi.encodePacked(_data));\r\n    }\r\n\r\n}\r\n\r\ncontract MyContract is UserContract {\r\n    using SafeMath for uint;\r\n    uint public productCount;\r\n    \r\n    mapping(uint => Product) private products;\r\n\r\n    struct Product {\r\n        address payable _seller;\r\n        string _productDetails;\r\n        uint _productId;\r\n    }\r\n    \r\n    // Events\r\n    event NewProductCreated(uint _id);\r\n    event DeleteProduct(uint _id);\r\n    \r\n    // Create new product\r\n    function createNewProduct(string calldata _productDetails) external {\r\n        address payable _seller = msg.sender;\r\n        findUserByAddress(_seller);\r\n        require(encode(_productDetails) != encode(''), \"Input can not be blank\");\r\n\r\n        // increment product count\r\n        productCount = incrementCounter(productCount);\r\n        \r\n        Product memory _newProduct = Product(_seller, _productDetails, productCount);\r\n        products[productCount] = _newProduct;\r\n        emit NewProductCreated(productCount);\r\n    }\r\n    \r\n    // Update an existing product\r\n    function updateProduct(uint _productId, string calldata _productDetails) external {\r\n        address payable _seller = msg.sender;\r\n        require(products[_productId]._productId > 0, \"Product does not exist!\");\r\n        require(\r\n            _seller == products[_productId]._seller, \r\n            \"Only valid owner is allowed to edit product\"\r\n        );\r\n        require(encode(_productDetails) != encode(''), \"Input can not be blank\");\r\n        \r\n        products[_productId] = Product(_seller, _productDetails, _productId);\r\n    }\r\n    \r\n    // Delete existing product\r\n    function deleteProduct(uint _productId) public returns(bool) {\r\n        address payable _seller = msg.sender;\r\n        require(products[_productId]._productId > 0, \"Product does not exist!\");\r\n        require(\r\n            _seller == products[_productId]._seller, \r\n            \"Only valid owner is allowed to delete product\"\r\n        );\r\n        delete products[_productId];\r\n        emit DeleteProduct(_productId);\r\n        assert(products[_productId]._productId == 0);\r\n    }\r\n    \r\n    // Delete account\r\n    function deleteUserAccount() external {\r\n        address payable _seller = msg.sender;\r\n        require(users[_seller]._id > 0, \"User does not exist\");\r\n\r\n        for(uint i = 1; i <= productCount; i++) {\r\n            if(products[i]._seller == _seller) delete products[i];\r\n        }\r\n        delete users[_seller];\r\n    }\r\n\r\n    // find product\r\n    function findProduct(uint _productId) public view returns(Product memory) {\r\n        require(products[_productId]._productId != 0, \"Product does not exist!\");\r\n        return products[_productId];\r\n    }\r\n}",
  "sourcePath": "/mnt/c/Users/DragonLord/Desktop/dApp/SilkRoad/Backend/contracts/MyContract.sol",
  "compiler": {
    "name": "solc",
    "version": "0.6.0+commit.26b70077.Emscripten.clang"
  },
  "schemaVersion": "3.2.3",
  "updatedAt": "2020-10-11T00:16:48.912Z",
  "networkType": "ethereum",
  "devdoc": {
    "methods": {}
  },
  "userdoc": {
    "methods": {}
  }
}