{
  "contractName": "MyContract",
  "abi": [
    {
      "anonymous": false,
      "inputs": [
        {
          "indexed": false,
          "internalType": "uint256",
          "name": "_id",
          "type": "uint256"
        }
      ],
      "name": "DeleteProduct",
      "type": "event"
    },
    {
      "anonymous": false,
      "inputs": [
        {
          "indexed": false,
          "internalType": "uint256",
          "name": "_id",
          "type": "uint256"
        }
      ],
      "name": "NewProductCreated",
      "type": "event"
    },
    {
      "anonymous": false,
      "inputs": [
        {
          "indexed": true,
          "internalType": "uint256",
          "name": "_id",
          "type": "uint256"
        }
      ],
      "name": "NewSellerCreated",
      "type": "event"
    },
    {
      "anonymous": false,
      "inputs": [
        {
          "indexed": true,
          "internalType": "address",
          "name": "previousOwner",
          "type": "address"
        },
        {
          "indexed": true,
          "internalType": "address",
          "name": "newOwner",
          "type": "address"
        }
      ],
      "name": "OwnershipTransferred",
      "type": "event"
    },
    {
      "inputs": [
        {
          "internalType": "string",
          "name": "_hashID",
          "type": "string"
        }
      ],
      "name": "createNewAccount",
      "outputs": [
        {
          "internalType": "bool",
          "name": "",
          "type": "bool"
        }
      ],
      "stateMutability": "nonpayable",
      "type": "function"
    },
    {
      "inputs": [
        {
          "internalType": "address",
          "name": "_account",
          "type": "address"
        }
      ],
      "name": "findUserByAddress",
      "outputs": [
        {
          "components": [
            {
              "internalType": "address payable",
              "name": "_account",
              "type": "address"
            },
            {
              "internalType": "string",
              "name": "_hashID",
              "type": "string"
            },
            {
              "internalType": "uint256",
              "name": "_id",
              "type": "uint256"
            }
          ],
          "internalType": "struct UserContract.User",
          "name": "",
          "type": "tuple"
        }
      ],
      "stateMutability": "view",
      "type": "function",
      "constant": true
    },
    {
      "inputs": [],
      "name": "owner",
      "outputs": [
        {
          "internalType": "address payable",
          "name": "",
          "type": "address"
        }
      ],
      "stateMutability": "view",
      "type": "function",
      "constant": true
    },
    {
      "inputs": [],
      "name": "productCount",
      "outputs": [
        {
          "internalType": "uint256",
          "name": "",
          "type": "uint256"
        }
      ],
      "stateMutability": "view",
      "type": "function",
      "constant": true
    },
    {
      "inputs": [
        {
          "internalType": "string",
          "name": "_hashID",
          "type": "string"
        }
      ],
      "name": "updateAccountDetails",
      "outputs": [],
      "stateMutability": "nonpayable",
      "type": "function"
    },
    {
      "inputs": [
        {
          "internalType": "address",
          "name": "",
          "type": "address"
        }
      ],
      "name": "users",
      "outputs": [
        {
          "internalType": "address payable",
          "name": "_account",
          "type": "address"
        },
        {
          "internalType": "string",
          "name": "_hashID",
          "type": "string"
        },
        {
          "internalType": "uint256",
          "name": "_id",
          "type": "uint256"
        }
      ],
      "stateMutability": "view",
      "type": "function",
      "constant": true
    },
    {
      "inputs": [
        {
          "internalType": "string",
          "name": "_productDetails",
          "type": "string"
        }
      ],
      "name": "createNewProduct",
      "outputs": [],
      "stateMutability": "nonpayable",
      "type": "function"
    },
    {
      "inputs": [
        {
          "internalType": "uint256",
          "name": "_productId",
          "type": "uint256"
        },
        {
          "internalType": "string",
          "name": "_productDetails",
          "type": "string"
        }
      ],
      "name": "updateProduct",
      "outputs": [],
      "stateMutability": "nonpayable",
      "type": "function"
    },
    {
      "inputs": [
        {
          "internalType": "uint256",
          "name": "_productId",
          "type": "uint256"
        }
      ],
      "name": "deleteProduct",
      "outputs": [
        {
          "internalType": "bool",
          "name": "",
          "type": "bool"
        }
      ],
      "stateMutability": "nonpayable",
      "type": "function"
    },
    {
      "inputs": [],
      "name": "deleteUserAccount",
      "outputs": [],
      "stateMutability": "nonpayable",
      "type": "function"
    },
    {
      "inputs": [
        {
          "internalType": "uint256",
          "name": "_productId",
          "type": "uint256"
        }
      ],
      "name": "findProduct",
      "outputs": [
        {
          "components": [
            {
              "internalType": "address payable",
              "name": "_seller",
              "type": "address"
            },
            {
              "internalType": "string",
              "name": "_productDetails",
              "type": "string"
            },
            {
              "internalType": "uint256",
              "name": "_productId",
              "type": "uint256"
            }
          ],
          "internalType": "struct MyContract.Product",
          "name": "",
          "type": "tuple"
        }
      ],
      "stateMutability": "view",
      "type": "function",
      "constant": true
    }
  ],
  "bytecode": "0x608060405234801561001057600080fd5b50336000806101000a81548173ffffffffffffffffffffffffffffffffffffffff021916908373ffffffffffffffffffffffffffffffffffffffff16021790555060008054906101000a900473ffffffffffffffffffffffffffffffffffffffff1673ffffffffffffffffffffffffffffffffffffffff16600073ffffffffffffffffffffffffffffffffffffffff167f8be0079c531659141344cd1fd0a4f28419497f9722a3daafe3b4186f6b6457e060405160405180910390a3611d57806100db6000396000f3fe608060405234801561001057600080fd5b50600436106100a95760003560e01c8063ca85370011610071578063ca85370014610166578063d628404414610196578063e0f6ef87146101c6578063e18ca599146101e4578063e68a304e146101ee578063ed90c7b71461020a576100a9565b806317b5c36d146100ae578063522ae8b6146100de5780638da5cb5b146100fa578063a87430ba14610118578063c17ab5f01461014a575b600080fd5b6100c860048036038101906100c391906114aa565b61023a565b6040516100d59190611b78565b60405180910390f35b6100f860048036038101906100f3919061153d565b61041a565b005b610102610638565b60405161010f91906119c2565b60405180910390f35b610132600480360381019061012d91906114aa565b610661565b604051610141939291906119dd565b60405180910390f35b610164600480360381019061015f91906114d3565b610743565b005b610180600480360381019061017b9190611514565b61095a565b60405161018d9190611b56565b60405180910390f35b6101b060048036038101906101ab91906114d3565b610ae3565b6040516101bd9190611a1b565b60405180910390f35b6101ce610d09565b6040516101db9190611b9a565b60405180910390f35b6101ec610d0f565b005b610208600480360381019061020391906114d3565b610efb565b005b610224600480360381019061021f9190611514565b61107f565b6040516102319190611a1b565b60405180910390f35b6102426112d9565b6000600160008473ffffffffffffffffffffffffffffffffffffffff1673ffffffffffffffffffffffffffffffffffffffff16815260200190815260200160002060020154116102c7576040517f08c379a00000000000000000000000000000000000000000000000000000000081526004016102be90611ad6565b60405180910390fd5b600160008373ffffffffffffffffffffffffffffffffffffffff1673ffffffffffffffffffffffffffffffffffffffff1681526020019081526020016000206040518060600160405290816000820160009054906101000a900473ffffffffffffffffffffffffffffffffffffffff1673ffffffffffffffffffffffffffffffffffffffff1673ffffffffffffffffffffffffffffffffffffffff168152602001600182018054600181600116156101000203166002900480601f0160208091040260200160405190810160405280929190818152602001828054600181600116156101000203166002900480156104005780601f106103d557610100808354040283529160200191610400565b820191906000526020600020905b8154815290600101906020018083116103e357829003601f168201915b505050505081526020016002820154815250509050919050565b60003390506000600460008581526020019081526020016000206002015411610478576040517f08c379a000000000000000000000000000000000000000000000000000000000815260040161046f90611b16565b60405180910390fd5b6004600084815260200190815260200160002060000160009054906101000a900473ffffffffffffffffffffffffffffffffffffffff1673ffffffffffffffffffffffffffffffffffffffff168173ffffffffffffffffffffffffffffffffffffffff161461051c576040517f08c379a000000000000000000000000000000000000000000000000000000000815260040161051390611af6565b60405180910390fd5b61053460405180602001604052806000815250611237565b61053d83611237565b141561057e576040517f08c379a000000000000000000000000000000000000000000000000000000000815260040161057590611a36565b60405180910390fd5b60405180606001604052808273ffffffffffffffffffffffffffffffffffffffff168152602001838152602001848152506004600085815260200190815260200160002060008201518160000160006101000a81548173ffffffffffffffffffffffffffffffffffffffff021916908373ffffffffffffffffffffffffffffffffffffffff1602179055506020820151816001019080519060200190610625929190611310565b5060408201518160020155905050505050565b60008060009054906101000a900473ffffffffffffffffffffffffffffffffffffffff16905090565b60016020528060005260406000206000915090508060000160009054906101000a900473ffffffffffffffffffffffffffffffffffffffff1690806001018054600181600116156101000203166002900480601f0160208091040260200160405190810160405280929190818152602001828054600181600116156101000203166002900480156107335780601f1061070857610100808354040283529160200191610733565b820191906000526020600020905b81548152906001019060200180831161071657829003601f168201915b5050505050908060020154905083565b60003390506000600160008373ffffffffffffffffffffffffffffffffffffffff1673ffffffffffffffffffffffffffffffffffffffff16815260200190815260200160002060020154116107cd576040517f08c379a00000000000000000000000000000000000000000000000000000000081526004016107c490611ad6565b60405180910390fd5b6107e560405180602001604052806000815250611237565b6107ee83611237565b141561082f576040517f08c379a000000000000000000000000000000000000000000000000000000000815260040161082690611ab6565b60405180910390fd5b600160008273ffffffffffffffffffffffffffffffffffffffff1673ffffffffffffffffffffffffffffffffffffffff16815260200190815260200160002060000160009054906101000a900473ffffffffffffffffffffffffffffffffffffffff1673ffffffffffffffffffffffffffffffffffffffff168173ffffffffffffffffffffffffffffffffffffffff16146108ff576040517f08c379a00000000000000000000000000000000000000000000000000000000081526004016108f690611a96565b60405180910390fd5b81600160008373ffffffffffffffffffffffffffffffffffffffff1673ffffffffffffffffffffffffffffffffffffffff1681526020019081526020016000206001019080519060200190610955929190611310565b505050565b610962611390565b6000600460008481526020019081526020016000206002015414156109bc576040517f08c379a00000000000000000000000000000000000000000000000000000000081526004016109b390611b16565b60405180910390fd5b600460008381526020019081526020016000206040518060600160405290816000820160009054906101000a900473ffffffffffffffffffffffffffffffffffffffff1673ffffffffffffffffffffffffffffffffffffffff1673ffffffffffffffffffffffffffffffffffffffff168152602001600182018054600181600116156101000203166002900480601f016020809104026020016040519081016040528092919081815260200182805460018160011615610100020316600290048015610ac95780601f10610a9e57610100808354040283529160200191610ac9565b820191906000526020600020905b815481529060010190602001808311610aac57829003601f168201915b505050505081526020016002820154815250509050919050565b6000803390506000600160008373ffffffffffffffffffffffffffffffffffffffff1673ffffffffffffffffffffffffffffffffffffffff1681526020019081526020016000206002015414610b6e576040517f08c379a0000000000000000000000000000000000000000000000000000000008152600401610b6590611a56565b60405180910390fd5b610b8660405180602001604052806000815250611237565b610b8f84611237565b1415610bd0576040517f08c379a0000000000000000000000000000000000000000000000000000000008152600401610bc790611ab6565b60405180910390fd5b610bdb600254611267565b600281905550610be96112d9565b60405180606001604052808373ffffffffffffffffffffffffffffffffffffffff168152602001858152602001600254815250905080600160008473ffffffffffffffffffffffffffffffffffffffff1673ffffffffffffffffffffffffffffffffffffffff16815260200190815260200160002060008201518160000160006101000a81548173ffffffffffffffffffffffffffffffffffffffff021916908373ffffffffffffffffffffffffffffffffffffffff1602179055506020820151816001019080519060200190610cc1929190611310565b50604082015181600201559050506002547fb993381ba8f4240ce3f7b76903ea25b60532c055966da6a88e3281d4dadde54460405160405180910390a2600192505050919050565b60035481565b60003390506000600160008373ffffffffffffffffffffffffffffffffffffffff1673ffffffffffffffffffffffffffffffffffffffff1681526020019081526020016000206002015411610d99576040517f08c379a0000000000000000000000000000000000000000000000000000000008152600401610d9090611ad6565b60405180910390fd5b6000600190505b6003548111610e76578173ffffffffffffffffffffffffffffffffffffffff166004600083815260200190815260200160002060000160009054906101000a900473ffffffffffffffffffffffffffffffffffffffff1673ffffffffffffffffffffffffffffffffffffffff161415610e695760046000828152602001908152602001600020600080820160006101000a81549073ffffffffffffffffffffffffffffffffffffffff0219169055600182016000610e5e91906113c7565b600282016000905550505b8080600101915050610da0565b50600160008273ffffffffffffffffffffffffffffffffffffffff1673ffffffffffffffffffffffffffffffffffffffff168152602001908152602001600020600080820160006101000a81549073ffffffffffffffffffffffffffffffffffffffff0219169055600182016000610eee91906113c7565b6002820160009055505050565b6000339050610f098161023a565b50610f2260405180602001604052806000815250611237565b610f2b83611237565b1415610f6c576040517f08c379a0000000000000000000000000000000000000000000000000000000008152600401610f6390611a36565b60405180910390fd5b610f77600354611267565b600381905550610f85611390565b60405180606001604052808373ffffffffffffffffffffffffffffffffffffffff16815260200184815260200160035481525090508060046000600354815260200190815260200160002060008201518160000160006101000a81548173ffffffffffffffffffffffffffffffffffffffff021916908373ffffffffffffffffffffffffffffffffffffffff1602179055506020820151816001019080519060200190611033929190611310565b50604082015181600201559050507fe93da0b8f4a47f88d615d028b7d2b06e5e95abe8949a1619ce9de5fd192670556003546040516110729190611b9a565b60405180910390a1505050565b60008033905060006004600085815260200190815260200160002060020154116110de576040517f08c379a00000000000000000000000000000000000000000000000000000000081526004016110d590611b16565b60405180910390fd5b6004600084815260200190815260200160002060000160009054906101000a900473ffffffffffffffffffffffffffffffffffffffff1673ffffffffffffffffffffffffffffffffffffffff168173ffffffffffffffffffffffffffffffffffffffff1614611182576040517f08c379a000000000000000000000000000000000000000000000000000000000815260040161117990611b36565b60405180910390fd5b60046000848152602001908152602001600020600080820160006101000a81549073ffffffffffffffffffffffffffffffffffffffff02191690556001820160006111cd91906113c7565b6002820160009055505060006004600085815260200190815260200160002060020154146111fa57600080fd5b7f0e10ee3ece1ddd5966cebc571a843f6af8abd1fa7b2ef3d7279c44873b1e7bf8836040516112299190611b9a565b60405180910390a150919050565b60008160405160200161124a91906119ab565b604051602081830303815290604052805190602001209050919050565b600061127d60018361128490919063ffffffff16565b9050919050565b6000808284019050838110156112cf576040517f08c379a00000000000000000000000000000000000000000000000000000000081526004016112c690611a76565b60405180910390fd5b8091505092915050565b6040518060600160405280600073ffffffffffffffffffffffffffffffffffffffff16815260200160608152602001600081525090565b828054600181600116156101000203166002900490600052602060002090601f016020900481019282601f1061135157805160ff191683800117855561137f565b8280016001018555821561137f579182015b8281111561137e578251825591602001919060010190611363565b5b50905061138c919061140f565b5090565b6040518060600160405280600073ffffffffffffffffffffffffffffffffffffffff16815260200160608152602001600081525090565b50805460018160011615610100020316600290046000825580601f106113ed575061140c565b601f01602090049060005260206000209081019061140b919061140f565b5b50565b5b80821115611428576000816000905550600101611410565b5090565b60008135905061143b81611cf3565b92915050565b600082601f83011261145257600080fd5b813561146561146082611be2565b611bb5565b9150808252602083016020830185838301111561148157600080fd5b61148c838284611ca0565b50505092915050565b6000813590506114a481611d0a565b92915050565b6000602082840312156114bc57600080fd5b60006114ca8482850161142c565b91505092915050565b6000602082840312156114e557600080fd5b600082013567ffffffffffffffff8111156114ff57600080fd5b61150b84828501611441565b91505092915050565b60006020828403121561152657600080fd5b600061153484828501611495565b91505092915050565b6000806040838503121561155057600080fd5b600061155e85828601611495565b925050602083013567ffffffffffffffff81111561157b57600080fd5b61158785828601611441565b9150509250929050565b61159a81611c58565b82525050565b6115a981611c58565b82525050565b6115b881611c6a565b82525050565b60006115c982611c0e565b6115d38185611c19565b93506115e3818560208601611caf565b6115ec81611ce2565b840191505092915050565b600061160282611c0e565b61160c8185611c2a565b935061161c818560208601611caf565b61162581611ce2565b840191505092915050565b600061163b82611c0e565b6116458185611c3b565b9350611655818560208601611caf565b80840191505092915050565b600061166e601683611c2a565b91507f496e7075742063616e206e6f7420626520626c616e6b000000000000000000006000830152602082019050919050565b60006116ae601883611c2a565b91507f557365722068617320616c7265616479206578697374656400000000000000006000830152602082019050919050565b60006116ee601b83611c2a565b91507f536166654d6174683a206164646974696f6e206f766572666c6f7700000000006000830152602082019050919050565b600061172e601183611c2a565b91507f4e6f7420612076616c6964206f776e65720000000000000000000000000000006000830152602082019050919050565b600061176e600f83611c2a565b91507f496e76616c6964206861736820696400000000000000000000000000000000006000830152602082019050919050565b60006117ae601383611c2a565b91507f5573657220646f6573206e6f74206578697374000000000000000000000000006000830152602082019050919050565b60006117ee602b83611c2a565b91507f4f6e6c792076616c6964206f776e657220697320616c6c6f77656420746f206560008301527f6469742070726f647563740000000000000000000000000000000000000000006020830152604082019050919050565b6000611854601783611c2a565b91507f50726f6475637420646f6573206e6f74206578697374210000000000000000006000830152602082019050919050565b6000611894602d83611c2a565b91507f4f6e6c792076616c6964206f776e657220697320616c6c6f77656420746f206460008301527f656c6574652070726f64756374000000000000000000000000000000000000006020830152604082019050919050565b60006060830160008301516119056000860182611591565b506020830151848203602086015261191d82826115be565b9150506040830151611932604086018261198d565b508091505092915050565b60006060830160008301516119556000860182611591565b506020830151848203602086015261196d82826115be565b9150506040830151611982604086018261198d565b508091505092915050565b61199681611c96565b82525050565b6119a581611c96565b82525050565b60006119b78284611630565b915081905092915050565b60006020820190506119d760008301846115a0565b92915050565b60006060820190506119f260008301866115a0565b8181036020830152611a0481856115f7565b9050611a13604083018461199c565b949350505050565b6000602082019050611a3060008301846115af565b92915050565b60006020820190508181036000830152611a4f81611661565b9050919050565b60006020820190508181036000830152611a6f816116a1565b9050919050565b60006020820190508181036000830152611a8f816116e1565b9050919050565b60006020820190508181036000830152611aaf81611721565b9050919050565b60006020820190508181036000830152611acf81611761565b9050919050565b60006020820190508181036000830152611aef816117a1565b9050919050565b60006020820190508181036000830152611b0f816117e1565b9050919050565b60006020820190508181036000830152611b2f81611847565b9050919050565b60006020820190508181036000830152611b4f81611887565b9050919050565b60006020820190508181036000830152611b7081846118ed565b905092915050565b60006020820190508181036000830152611b92818461193d565b905092915050565b6000602082019050611baf600083018461199c565b92915050565b6000604051905081810181811067ffffffffffffffff82111715611bd857600080fd5b8060405250919050565b600067ffffffffffffffff821115611bf957600080fd5b601f19601f8301169050602081019050919050565b600081519050919050565b600082825260208201905092915050565b600082825260208201905092915050565b600081905092915050565b6000611c5182611c76565b9050919050565b6000611c6382611c76565b9050919050565b60008115159050919050565b600073ffffffffffffffffffffffffffffffffffffffff82169050919050565b6000819050919050565b82818337600083830152505050565b60005b83811015611ccd578082015181840152602081019050611cb2565b83811115611cdc576000848401525b50505050565b6000601f19601f8301169050919050565b611cfc81611c46565b8114611d0757600080fd5b50565b611d1381611c96565b8114611d1e57600080fd5b5056fea26469706673582212209a449d3ccdfdfa6b132c3fa8f803e859e70a0ee70515b0d0ff7a373218c721f164736f6c63430007000033",
  "immutableReferences": {},
  "source": "// SPDX-License-Identifier: MIT\r\npragma experimental ABIEncoderV2;\r\npragma solidity ^0.7.0;\r\n\r\n// import \"./User.sol\";\r\nimport \"./Openzepplin/Ownable.sol\";\r\nimport \"./Openzepplin/SafeMath.sol\";\r\n\r\ncontract UserContract is Ownable {\r\n    using SafeMath for uint;\r\n\r\n    mapping(address => User) public users;\r\n    uint userCounter;\r\n    \r\n    // Structures\r\n    struct User {\r\n        address payable _account;\r\n        string _hashID;\r\n        uint _id;\r\n    }\r\n    \r\n    // Events\r\n    event NewSellerCreated(uint indexed _id);\r\n    \r\n\r\n    // Create new User\r\n    function createNewAccount(string memory _hashID) external returns(bool) {\r\n        address payable _user = msg.sender;\r\n        require(users[_user]._id == 0, \"User has already existed\");\r\n        require(encode(_hashID) != encode(''), 'Invalid hash id');\r\n\r\n        userCounter = incrementCounter(userCounter);\r\n        \r\n        User memory _newUser = User(_user, _hashID, userCounter);\r\n        \r\n        users[_user] = _newUser;\r\n        emit NewSellerCreated(userCounter);\r\n        return true;\r\n    }\r\n    \r\n    // Update account details\r\n    function updateAccountDetails(string memory _hashID) external {\r\n        address payable _account = msg.sender;\r\n        require(users[_account]._id > 0, \"User does not exist\");\r\n        require(encode(_hashID) != encode(''), 'Invalid hash id');\r\n        require(_account == users[_account]._account, 'Not a valid owner');\r\n\r\n        users[_account]._hashID = _hashID;\r\n    }\r\n\r\n    // Find user by address\r\n    function findUserByAddress(address _account) public view returns(User memory) {\r\n        require(users[_account]._id > 0, \"User does not exist\");\r\n        return users[_account];\r\n    }\r\n\r\n    // Increment seller's count\r\n    function incrementCounter(uint _count) internal pure returns(uint) {\r\n        return _count.add(1);\r\n    }\r\n\r\n    function encode(string memory _data) internal pure returns(bytes32) {\r\n        return keccak256(abi.encodePacked(_data));\r\n    }\r\n\r\n}\r\n\r\ncontract MyContract is UserContract {\r\n    using SafeMath for uint;\r\n    uint public productCount;\r\n    \r\n    mapping(uint => Product) private products;\r\n\r\n    struct Product {\r\n        address payable _seller;\r\n        string _productDetails;\r\n        uint _productId;\r\n    }\r\n    \r\n    // Events\r\n    event NewProductCreated(uint _id);\r\n    event DeleteProduct(uint _id);\r\n    \r\n    // Create new product\r\n    function createNewProduct(string memory _productDetails) external {\r\n        address payable _seller = msg.sender;\r\n        findUserByAddress(_seller);\r\n        require(encode(_productDetails) != encode(''), \"Input can not be blank\");\r\n\r\n        // increment product count\r\n        productCount = incrementCounter(productCount);\r\n        \r\n        Product memory _newProduct = Product(_seller, _productDetails, productCount);\r\n        products[productCount] = _newProduct;\r\n        emit NewProductCreated(productCount);\r\n    }\r\n    \r\n    // Update an existing product\r\n    function updateProduct(uint _productId, string memory _productDetails) external {\r\n        address payable _seller = msg.sender;\r\n        require(products[_productId]._productId > 0, \"Product does not exist!\");\r\n        require(\r\n            _seller == products[_productId]._seller, \r\n            \"Only valid owner is allowed to edit product\"\r\n        );\r\n        require(encode(_productDetails) != encode(''), \"Input can not be blank\");\r\n        \r\n        products[_productId] = Product(_seller, _productDetails, _productId);\r\n    }\r\n    \r\n    // Delete existing product\r\n    function deleteProduct(uint _productId) public returns(bool) {\r\n        address payable _seller = msg.sender;\r\n        require(products[_productId]._productId > 0, \"Product does not exist!\");\r\n        require(\r\n            _seller == products[_productId]._seller, \r\n            \"Only valid owner is allowed to delete product\"\r\n        );\r\n        delete products[_productId];\r\n        require(products[_productId]._productId == 0);\r\n        emit DeleteProduct(_productId);\r\n    }\r\n    \r\n    // Delete account\r\n    function deleteUserAccount() external {\r\n        address payable _seller = msg.sender;\r\n        require(users[_seller]._id > 0, \"User does not exist\");\r\n\r\n        for(uint i = 1; i <= productCount; i++) {\r\n            if(products[i]._seller == _seller) delete products[i];\r\n        }\r\n        delete users[_seller];\r\n    }\r\n\r\n    // find product\r\n    function findProduct(uint _productId) public view returns(Product memory) {\r\n        require(products[_productId]._productId != 0, \"Product does not exist!\");\r\n        return products[_productId];\r\n    }\r\n\r\n    // Product count\r\n    // function getProductCount() public view returns(uint) {\r\n    //     return productCount;\r\n    // }\r\n}",
  "sourcePath": "/mnt/c/Users/DragonLord/Desktop/dApp/SilkRoad/Backend/contracts/MyContract.sol",
  "compiler": {
    "name": "solc",
    "version": "0.7.0+commit.9e61f92b.Emscripten.clang"
  },
  "schemaVersion": "3.2.3",
  "updatedAt": "2020-09-22T17:11:45.931Z",
  "networkType": "ethereum",
  "devdoc": {
    "kind": "dev",
    "methods": {},
    "version": 1
  },
  "userdoc": {
    "kind": "user",
    "methods": {},
    "version": 1
  }
}