{
  "contractName": "MyContract",
  "abi": [
    {
      "anonymous": false,
      "inputs": [
        {
          "indexed": false,
          "internalType": "uint256",
          "name": "_id",
          "type": "uint256"
        }
      ],
      "name": "DeleteProduct",
      "type": "event"
    },
    {
      "anonymous": false,
      "inputs": [
        {
          "indexed": false,
          "internalType": "uint256",
          "name": "_id",
          "type": "uint256"
        }
      ],
      "name": "NewProductCreated",
      "type": "event"
    },
    {
      "anonymous": false,
      "inputs": [
        {
          "indexed": true,
          "internalType": "uint256",
          "name": "_id",
          "type": "uint256"
        }
      ],
      "name": "NewSellerCreated",
      "type": "event"
    },
    {
      "anonymous": false,
      "inputs": [
        {
          "indexed": true,
          "internalType": "address",
          "name": "previousOwner",
          "type": "address"
        },
        {
          "indexed": true,
          "internalType": "address",
          "name": "newOwner",
          "type": "address"
        }
      ],
      "name": "OwnershipTransferred",
      "type": "event"
    },
    {
      "inputs": [
        {
          "internalType": "string",
          "name": "_hashID",
          "type": "string"
        }
      ],
      "name": "createNewAccount",
      "outputs": [
        {
          "internalType": "bool",
          "name": "",
          "type": "bool"
        }
      ],
      "stateMutability": "nonpayable",
      "type": "function"
    },
    {
      "inputs": [
        {
          "internalType": "address",
          "name": "_account",
          "type": "address"
        }
      ],
      "name": "findUserByAddress",
      "outputs": [
        {
          "components": [
            {
              "internalType": "address payable",
              "name": "_account",
              "type": "address"
            },
            {
              "internalType": "string",
              "name": "_hashID",
              "type": "string"
            },
            {
              "internalType": "uint256",
              "name": "_id",
              "type": "uint256"
            }
          ],
          "internalType": "struct UserContract.User",
          "name": "",
          "type": "tuple"
        }
      ],
      "stateMutability": "view",
      "type": "function"
    },
    {
      "inputs": [],
      "name": "owner",
      "outputs": [
        {
          "internalType": "address payable",
          "name": "",
          "type": "address"
        }
      ],
      "stateMutability": "view",
      "type": "function"
    },
    {
      "inputs": [],
      "name": "productCount",
      "outputs": [
        {
          "internalType": "uint256",
          "name": "",
          "type": "uint256"
        }
      ],
      "stateMutability": "view",
      "type": "function"
    },
    {
      "inputs": [
        {
          "internalType": "string",
          "name": "_hashID",
          "type": "string"
        }
      ],
      "name": "updateAccountDetails",
      "outputs": [],
      "stateMutability": "nonpayable",
      "type": "function"
    },
    {
      "inputs": [
        {
          "internalType": "address",
          "name": "",
          "type": "address"
        }
      ],
      "name": "users",
      "outputs": [
        {
          "internalType": "address payable",
          "name": "_account",
          "type": "address"
        },
        {
          "internalType": "string",
          "name": "_hashID",
          "type": "string"
        },
        {
          "internalType": "uint256",
          "name": "_id",
          "type": "uint256"
        }
      ],
      "stateMutability": "view",
      "type": "function"
    },
    {
      "inputs": [
        {
          "internalType": "string",
          "name": "_productDetails",
          "type": "string"
        }
      ],
      "name": "createNewProduct",
      "outputs": [],
      "stateMutability": "nonpayable",
      "type": "function"
    },
    {
      "inputs": [
        {
          "internalType": "uint256",
          "name": "_productId",
          "type": "uint256"
        },
        {
          "internalType": "string",
          "name": "_productDetails",
          "type": "string"
        }
      ],
      "name": "updateProduct",
      "outputs": [],
      "stateMutability": "nonpayable",
      "type": "function"
    },
    {
      "inputs": [
        {
          "internalType": "uint256",
          "name": "_productId",
          "type": "uint256"
        }
      ],
      "name": "deleteProduct",
      "outputs": [
        {
          "internalType": "bool",
          "name": "",
          "type": "bool"
        }
      ],
      "stateMutability": "nonpayable",
      "type": "function"
    },
    {
      "inputs": [],
      "name": "deleteUserAccount",
      "outputs": [],
      "stateMutability": "nonpayable",
      "type": "function"
    },
    {
      "inputs": [
        {
          "internalType": "uint256",
          "name": "_productId",
          "type": "uint256"
        }
      ],
      "name": "findProduct",
      "outputs": [
        {
          "components": [
            {
              "internalType": "address payable",
              "name": "_seller",
              "type": "address"
            },
            {
              "internalType": "string",
              "name": "_productDetails",
              "type": "string"
            },
            {
              "internalType": "uint256",
              "name": "_productId",
              "type": "uint256"
            }
          ],
          "internalType": "struct MyContract.Product",
          "name": "",
          "type": "tuple"
        }
      ],
      "stateMutability": "view",
      "type": "function"
    },
    {
      "inputs": [],
      "name": "getProductCount",
      "outputs": [
        {
          "internalType": "uint256",
          "name": "",
          "type": "uint256"
        }
      ],
      "stateMutability": "view",
      "type": "function"
    }
  ],
  "bytecode": "0x608060405234801561001057600080fd5b50336000806101000a81548173ffffffffffffffffffffffffffffffffffffffff021916908373ffffffffffffffffffffffffffffffffffffffff16021790555060008054906101000a900473ffffffffffffffffffffffffffffffffffffffff1673ffffffffffffffffffffffffffffffffffffffff16600073ffffffffffffffffffffffffffffffffffffffff167f8be0079c531659141344cd1fd0a4f28419497f9722a3daafe3b4186f6b6457e060405160405180910390a3611df3806100db6000396000f3fe608060405234801561001057600080fd5b50600436106100b45760003560e01c8063ca85370011610071578063ca8537001461018f578063d6284044146101bf578063e0f6ef87146101ef578063e18ca5991461020d578063e68a304e14610217578063ed90c7b714610233576100b4565b806317b5c36d146100b95780634a348da9146100e9578063522ae8b6146101075780638da5cb5b14610123578063a87430ba14610141578063c17ab5f014610173575b600080fd5b6100d360048036038101906100ce9190611546565b610263565b6040516100e09190611c14565b60405180910390f35b6100f1610443565b6040516100fe9190611c36565b60405180910390f35b610121600480360381019061011c91906115d9565b61044d565b005b61012b610665565b6040516101389190611a5e565b60405180910390f35b61015b60048036038101906101569190611546565b61068e565b60405161016a93929190611a79565b60405180910390f35b61018d6004803603810190610188919061156f565b610770565b005b6101a960048036038101906101a491906115b0565b610987565b6040516101b69190611bf2565b60405180910390f35b6101d960048036038101906101d4919061156f565b610b10565b6040516101e69190611ab7565b60405180910390f35b6101f7610d36565b6040516102049190611c36565b60405180910390f35b610215610d3c565b005b610231600480360381019061022c919061156f565b610f22565b005b61024d600480360381019061024891906115b0565b611121565b60405161025a9190611ab7565b60405180910390f35b61026b611375565b6000600160008473ffffffffffffffffffffffffffffffffffffffff1673ffffffffffffffffffffffffffffffffffffffff16815260200190815260200160002060020154116102f0576040517f08c379a00000000000000000000000000000000000000000000000000000000081526004016102e790611b72565b60405180910390fd5b600160008373ffffffffffffffffffffffffffffffffffffffff1673ffffffffffffffffffffffffffffffffffffffff1681526020019081526020016000206040518060600160405290816000820160009054906101000a900473ffffffffffffffffffffffffffffffffffffffff1673ffffffffffffffffffffffffffffffffffffffff1673ffffffffffffffffffffffffffffffffffffffff168152602001600182018054600181600116156101000203166002900480601f0160208091040260200160405190810160405280929190818152602001828054600181600116156101000203166002900480156104295780601f106103fe57610100808354040283529160200191610429565b820191906000526020600020905b81548152906001019060200180831161040c57829003601f168201915b505050505081526020016002820154815250509050919050565b6000600454905090565b60006003600084815260200190815260200160002060020154116104a6576040517f08c379a000000000000000000000000000000000000000000000000000000000815260040161049d90611bb2565b60405180910390fd5b6003600083815260200190815260200160002060000160009054906101000a900473ffffffffffffffffffffffffffffffffffffffff1673ffffffffffffffffffffffffffffffffffffffff163373ffffffffffffffffffffffffffffffffffffffff161461054a576040517f08c379a000000000000000000000000000000000000000000000000000000000815260040161054190611b92565b60405180910390fd5b610562604051806020016040528060008152506112d3565b61056b826112d3565b14156105ac576040517f08c379a00000000000000000000000000000000000000000000000000000000081526004016105a390611ad2565b60405180910390fd5b60405180606001604052803373ffffffffffffffffffffffffffffffffffffffff168152602001828152602001838152506003600084815260200190815260200160002060008201518160000160006101000a81548173ffffffffffffffffffffffffffffffffffffffff021916908373ffffffffffffffffffffffffffffffffffffffff16021790555060208201518160010190805190602001906106539291906113ac565b50604082015181600201559050505050565b60008060009054906101000a900473ffffffffffffffffffffffffffffffffffffffff16905090565b60016020528060005260406000206000915090508060000160009054906101000a900473ffffffffffffffffffffffffffffffffffffffff1690806001018054600181600116156101000203166002900480601f0160208091040260200160405190810160405280929190818152602001828054600181600116156101000203166002900480156107605780601f1061073557610100808354040283529160200191610760565b820191906000526020600020905b81548152906001019060200180831161074357829003601f168201915b5050505050908060020154905083565b60003390506000600160008373ffffffffffffffffffffffffffffffffffffffff1673ffffffffffffffffffffffffffffffffffffffff16815260200190815260200160002060020154116107fa576040517f08c379a00000000000000000000000000000000000000000000000000000000081526004016107f190611b72565b60405180910390fd5b610812604051806020016040528060008152506112d3565b61081b836112d3565b141561085c576040517f08c379a000000000000000000000000000000000000000000000000000000000815260040161085390611b52565b60405180910390fd5b600160008273ffffffffffffffffffffffffffffffffffffffff1673ffffffffffffffffffffffffffffffffffffffff16815260200190815260200160002060000160009054906101000a900473ffffffffffffffffffffffffffffffffffffffff1673ffffffffffffffffffffffffffffffffffffffff168173ffffffffffffffffffffffffffffffffffffffff161461092c576040517f08c379a000000000000000000000000000000000000000000000000000000000815260040161092390611b32565b60405180910390fd5b81600160008373ffffffffffffffffffffffffffffffffffffffff1673ffffffffffffffffffffffffffffffffffffffff16815260200190815260200160002060010190805190602001906109829291906113ac565b505050565b61098f61142c565b6000600360008481526020019081526020016000206002015414156109e9576040517f08c379a00000000000000000000000000000000000000000000000000000000081526004016109e090611bb2565b60405180910390fd5b600360008381526020019081526020016000206040518060600160405290816000820160009054906101000a900473ffffffffffffffffffffffffffffffffffffffff1673ffffffffffffffffffffffffffffffffffffffff1673ffffffffffffffffffffffffffffffffffffffff168152602001600182018054600181600116156101000203166002900480601f016020809104026020016040519081016040528092919081815260200182805460018160011615610100020316600290048015610af65780601f10610acb57610100808354040283529160200191610af6565b820191906000526020600020905b815481529060010190602001808311610ad957829003601f168201915b505050505081526020016002820154815250509050919050565b6000803390506000600160008373ffffffffffffffffffffffffffffffffffffffff1673ffffffffffffffffffffffffffffffffffffffff1681526020019081526020016000206002015414610b9b576040517f08c379a0000000000000000000000000000000000000000000000000000000008152600401610b9290611af2565b60405180910390fd5b610bb3604051806020016040528060008152506112d3565b610bbc846112d3565b1415610bfd576040517f08c379a0000000000000000000000000000000000000000000000000000000008152600401610bf490611b52565b60405180910390fd5b610c08600254611303565b600281905550610c16611375565b60405180606001604052808373ffffffffffffffffffffffffffffffffffffffff168152602001858152602001600254815250905080600160008473ffffffffffffffffffffffffffffffffffffffff1673ffffffffffffffffffffffffffffffffffffffff16815260200190815260200160002060008201518160000160006101000a81548173ffffffffffffffffffffffffffffffffffffffff021916908373ffffffffffffffffffffffffffffffffffffffff1602179055506020820151816001019080519060200190610cee9291906113ac565b50604082015181600201559050506002547fb993381ba8f4240ce3f7b76903ea25b60532c055966da6a88e3281d4dadde54460405160405180910390a2600192505050919050565b60045481565b6000600160003373ffffffffffffffffffffffffffffffffffffffff1673ffffffffffffffffffffffffffffffffffffffff1681526020019081526020016000206002015411610dc1576040517f08c379a0000000000000000000000000000000000000000000000000000000008152600401610db890611b72565b60405180910390fd5b6000600190505b6004548111610e9e573373ffffffffffffffffffffffffffffffffffffffff166003600083815260200190815260200160002060000160009054906101000a900473ffffffffffffffffffffffffffffffffffffffff1673ffffffffffffffffffffffffffffffffffffffff161415610e915760036000828152602001908152602001600020600080820160006101000a81549073ffffffffffffffffffffffffffffffffffffffff0219169055600182016000610e869190611463565b600282016000905550505b8080600101915050610dc8565b50600160003373ffffffffffffffffffffffffffffffffffffffff1673ffffffffffffffffffffffffffffffffffffffff168152602001908152602001600020600080820160006101000a81549073ffffffffffffffffffffffffffffffffffffffff0219169055600182016000610f169190611463565b60028201600090555050565b60003390506000600160008373ffffffffffffffffffffffffffffffffffffffff1673ffffffffffffffffffffffffffffffffffffffff1681526020019081526020016000206002015411610fac576040517f08c379a0000000000000000000000000000000000000000000000000000000008152600401610fa390611b72565b60405180910390fd5b610fc4604051806020016040528060008152506112d3565b610fcd836112d3565b141561100e576040517f08c379a000000000000000000000000000000000000000000000000000000000815260040161100590611ad2565b60405180910390fd5b611019600454611303565b60048190555061102761142c565b60405180606001604052803373ffffffffffffffffffffffffffffffffffffffff16815260200184815260200160045481525090508060036000600454815260200190815260200160002060008201518160000160006101000a81548173ffffffffffffffffffffffffffffffffffffffff021916908373ffffffffffffffffffffffffffffffffffffffff16021790555060208201518160010190805190602001906110d59291906113ac565b50604082015181600201559050507fe93da0b8f4a47f88d615d028b7d2b06e5e95abe8949a1619ce9de5fd192670556004546040516111149190611c36565b60405180910390a1505050565b60008060036000848152602001908152602001600020600201541161117b576040517f08c379a000000000000000000000000000000000000000000000000000000000815260040161117290611bb2565b60405180910390fd5b6003600083815260200190815260200160002060000160009054906101000a900473ffffffffffffffffffffffffffffffffffffffff1673ffffffffffffffffffffffffffffffffffffffff163373ffffffffffffffffffffffffffffffffffffffff161461121f576040517f08c379a000000000000000000000000000000000000000000000000000000000815260040161121690611bd2565b60405180910390fd5b60036000838152602001908152602001600020600080820160006101000a81549073ffffffffffffffffffffffffffffffffffffffff021916905560018201600061126a9190611463565b60028201600090555050600060036000848152602001908152602001600020600201541461129757600080fd5b7f0e10ee3ece1ddd5966cebc571a843f6af8abd1fa7b2ef3d7279c44873b1e7bf8826040516112c69190611c36565b60405180910390a1919050565b6000816040516020016112e69190611a47565b604051602081830303815290604052805190602001209050919050565b600061131960018361132090919063ffffffff16565b9050919050565b60008082840190508381101561136b576040517f08c379a000000000000000000000000000000000000000000000000000000000815260040161136290611b12565b60405180910390fd5b8091505092915050565b6040518060600160405280600073ffffffffffffffffffffffffffffffffffffffff16815260200160608152602001600081525090565b828054600181600116156101000203166002900490600052602060002090601f016020900481019282601f106113ed57805160ff191683800117855561141b565b8280016001018555821561141b579182015b8281111561141a5782518255916020019190600101906113ff565b5b50905061142891906114ab565b5090565b6040518060600160405280600073ffffffffffffffffffffffffffffffffffffffff16815260200160608152602001600081525090565b50805460018160011615610100020316600290046000825580601f1061148957506114a8565b601f0160209004906000526020600020908101906114a791906114ab565b5b50565b5b808211156114c45760008160009055506001016114ac565b5090565b6000813590506114d781611d8f565b92915050565b600082601f8301126114ee57600080fd5b81356115016114fc82611c7e565b611c51565b9150808252602083016020830185838301111561151d57600080fd5b611528838284611d3c565b50505092915050565b60008135905061154081611da6565b92915050565b60006020828403121561155857600080fd5b6000611566848285016114c8565b91505092915050565b60006020828403121561158157600080fd5b600082013567ffffffffffffffff81111561159b57600080fd5b6115a7848285016114dd565b91505092915050565b6000602082840312156115c257600080fd5b60006115d084828501611531565b91505092915050565b600080604083850312156115ec57600080fd5b60006115fa85828601611531565b925050602083013567ffffffffffffffff81111561161757600080fd5b611623858286016114dd565b9150509250929050565b61163681611cf4565b82525050565b61164581611cf4565b82525050565b61165481611d06565b82525050565b600061166582611caa565b61166f8185611cb5565b935061167f818560208601611d4b565b61168881611d7e565b840191505092915050565b600061169e82611caa565b6116a88185611cc6565b93506116b8818560208601611d4b565b6116c181611d7e565b840191505092915050565b60006116d782611caa565b6116e18185611cd7565b93506116f1818560208601611d4b565b80840191505092915050565b600061170a601683611cc6565b91507f496e7075742063616e206e6f7420626520626c616e6b000000000000000000006000830152602082019050919050565b600061174a601883611cc6565b91507f557365722068617320616c7265616479206578697374656400000000000000006000830152602082019050919050565b600061178a601b83611cc6565b91507f536166654d6174683a206164646974696f6e206f766572666c6f7700000000006000830152602082019050919050565b60006117ca601183611cc6565b91507f4e6f7420612076616c6964206f776e65720000000000000000000000000000006000830152602082019050919050565b600061180a600f83611cc6565b91507f496e76616c6964206861736820696400000000000000000000000000000000006000830152602082019050919050565b600061184a601383611cc6565b91507f5573657220646f6573206e6f74206578697374000000000000000000000000006000830152602082019050919050565b600061188a602b83611cc6565b91507f4f6e6c792076616c6964206f776e657220697320616c6c6f77656420746f206560008301527f6469742070726f647563740000000000000000000000000000000000000000006020830152604082019050919050565b60006118f0601783611cc6565b91507f50726f6475637420646f6573206e6f74206578697374210000000000000000006000830152602082019050919050565b6000611930602d83611cc6565b91507f4f6e6c792076616c6964206f776e657220697320616c6c6f77656420746f206460008301527f656c6574652070726f64756374000000000000000000000000000000000000006020830152604082019050919050565b60006060830160008301516119a1600086018261162d565b50602083015184820360208601526119b9828261165a565b91505060408301516119ce6040860182611a29565b508091505092915050565b60006060830160008301516119f1600086018261162d565b5060208301518482036020860152611a09828261165a565b9150506040830151611a1e6040860182611a29565b508091505092915050565b611a3281611d32565b82525050565b611a4181611d32565b82525050565b6000611a5382846116cc565b915081905092915050565b6000602082019050611a73600083018461163c565b92915050565b6000606082019050611a8e600083018661163c565b8181036020830152611aa08185611693565b9050611aaf6040830184611a38565b949350505050565b6000602082019050611acc600083018461164b565b92915050565b60006020820190508181036000830152611aeb816116fd565b9050919050565b60006020820190508181036000830152611b0b8161173d565b9050919050565b60006020820190508181036000830152611b2b8161177d565b9050919050565b60006020820190508181036000830152611b4b816117bd565b9050919050565b60006020820190508181036000830152611b6b816117fd565b9050919050565b60006020820190508181036000830152611b8b8161183d565b9050919050565b60006020820190508181036000830152611bab8161187d565b9050919050565b60006020820190508181036000830152611bcb816118e3565b9050919050565b60006020820190508181036000830152611beb81611923565b9050919050565b60006020820190508181036000830152611c0c8184611989565b905092915050565b60006020820190508181036000830152611c2e81846119d9565b905092915050565b6000602082019050611c4b6000830184611a38565b92915050565b6000604051905081810181811067ffffffffffffffff82111715611c7457600080fd5b8060405250919050565b600067ffffffffffffffff821115611c9557600080fd5b601f19601f8301169050602081019050919050565b600081519050919050565b600082825260208201905092915050565b600082825260208201905092915050565b600081905092915050565b6000611ced82611d12565b9050919050565b6000611cff82611d12565b9050919050565b60008115159050919050565b600073ffffffffffffffffffffffffffffffffffffffff82169050919050565b6000819050919050565b82818337600083830152505050565b60005b83811015611d69578082015181840152602081019050611d4e565b83811115611d78576000848401525b50505050565b6000601f19601f8301169050919050565b611d9881611ce2565b8114611da357600080fd5b50565b611daf81611d32565b8114611dba57600080fd5b5056fea264697066735822122058bf19ba5452542e55818ab69ccb690ce66ddc4f47bffa765f16ffa7f79cf77164736f6c63430007000033",
  "immutableReferences": {},
  "source": "// SPDX-License-Identifier: MIT\r\npragma experimental ABIEncoderV2;\r\npragma solidity ^0.7.0;\r\n\r\n// import \"./User.sol\";\r\nimport \"./Openzepplin/Ownable.sol\";\r\nimport \"./Openzepplin/SafeMath.sol\";\r\n\r\ncontract UserContract is Ownable {\r\n    using SafeMath for uint;\r\n\r\n    mapping(address => User) public users;\r\n    uint userCounter;\r\n    \r\n    // Structures\r\n    struct User {\r\n        address payable _account;\r\n        string _hashID;\r\n        uint _id;\r\n    }\r\n    \r\n    // Events\r\n    event NewSellerCreated(uint indexed _id);\r\n    // event AccountDeleted(User _user);\r\n    \r\n\r\n    // Create new User\r\n    function createNewAccount(string memory _hashID) external returns(bool) {\r\n        address payable _user = msg.sender;\r\n        require(users[_user]._id == 0, \"User has already existed\");\r\n        require(encode(_hashID) != encode(''), 'Invalid hash id');\r\n\r\n        userCounter = incrementCounter(userCounter);\r\n        \r\n        User memory _newUser = User(_user, _hashID, userCounter);\r\n        \r\n        users[_user] = _newUser;\r\n        emit NewSellerCreated(userCounter);\r\n        return true;\r\n    }\r\n    \r\n    // Update account details\r\n    function updateAccountDetails(string memory _hashID) external {\r\n        address payable _account = msg.sender;\r\n        require(users[_account]._id > 0, \"User does not exist\");\r\n        require(encode(_hashID) != encode(''), 'Invalid hash id');\r\n        require(_account == users[_account]._account, 'Not a valid owner');\r\n\r\n        users[_account]._hashID = _hashID;\r\n    }\r\n\r\n    // Find user by address\r\n    function findUserByAddress(address _account) public view returns(User memory) {\r\n        require(users[_account]._id > 0, \"User does not exist\");\r\n        return users[_account];\r\n    }\r\n\r\n    // Increment seller's count\r\n    function incrementCounter(uint _count) internal pure returns(uint) {\r\n        return _count.add(1);\r\n    }\r\n\r\n    function encode(string memory _data) internal pure returns(bytes32) {\r\n        return keccak256(abi.encodePacked(_data));\r\n    }\r\n\r\n}\r\n\r\ncontract MyContract is UserContract {\r\n    using SafeMath for uint;\r\n    \r\n    mapping(uint => Product) private products;\r\n\r\n    uint public productCount;\r\n    \r\n    struct Product {\r\n        address payable _seller;\r\n        string _productDetails;\r\n        uint _productId;\r\n    }\r\n    \r\n    // Events\r\n    event NewProductCreated(uint _id);\r\n    event DeleteProduct(uint _id);\r\n    \r\n    // Create new product\r\n    function createNewProduct(string memory _productDetails) external {\r\n        address payable _seller = msg.sender;\r\n        require(users[_seller]._id > 0, \"User does not exist\");\r\n        require(encode(_productDetails) != encode(''), \"Input can not be blank\");\r\n\r\n        // increment product count\r\n        productCount = incrementCounter(productCount);\r\n        \r\n        Product memory _newProduct = Product(msg.sender, _productDetails, productCount);\r\n        products[productCount] = _newProduct;\r\n        emit NewProductCreated(productCount);\r\n    }\r\n    \r\n    // Update an existing product\r\n    function updateProduct(uint _productId, string memory _productDetails) external {\r\n        require(products[_productId]._productId > 0, \"Product does not exist!\");\r\n        require(\r\n            msg.sender == products[_productId]._seller, \r\n            \"Only valid owner is allowed to edit product\"\r\n        );\r\n        require(encode(_productDetails) != encode(''), \"Input can not be blank\");\r\n        \r\n        products[_productId] = Product(msg.sender, _productDetails, _productId);\r\n    }\r\n    \r\n    // Delete existing product\r\n    function deleteProduct(uint _productId) public returns(bool) {\r\n        require(products[_productId]._productId > 0, \"Product does not exist!\");\r\n        require(\r\n            msg.sender == products[_productId]._seller, \r\n            \"Only valid owner is allowed to delete product\"\r\n        );\r\n        delete products[_productId];\r\n        require(products[_productId]._productId == 0);\r\n        emit DeleteProduct(_productId);\r\n    }\r\n    \r\n    // Delete account\r\n    function deleteUserAccount() external {\r\n        require(users[msg.sender]._id > 0, \"User does not exist\");\r\n\r\n        for(uint i = 1; i <= productCount; i++) {\r\n            if(products[i]._seller == msg.sender) delete products[i];\r\n        }\r\n        delete users[msg.sender];\r\n    }\r\n\r\n    // find product\r\n    function findProduct(uint _productId) public view returns(Product memory) {\r\n        require(products[_productId]._productId != 0, \"Product does not exist!\");\r\n        return products[_productId];\r\n    }\r\n\r\n    // Product count\r\n    function getProductCount() public view returns(uint) {\r\n        return productCount;\r\n    }\r\n}",
  "sourcePath": "C:/Users/DragonLord/Desktop/dApp/SilkRoad/Backend/contracts/MyContract.sol",
  "compiler": {
    "name": "solc",
    "version": "0.7.0+commit.9e61f92b.Emscripten.clang"
  },
  "schemaVersion": "3.2.3",
  "updatedAt": "2020-09-21T09:26:21.389Z",
  "devdoc": {
    "kind": "dev",
    "methods": {},
    "version": 1
  },
  "userdoc": {
    "kind": "user",
    "methods": {},
    "version": 1
  }
}