{
  "contractName": "ProductContract",
  "abi": [
    {
      "anonymous": false,
      "inputs": [
        {
          "indexed": false,
          "internalType": "uint256",
          "name": "id",
          "type": "uint256"
        }
      ],
      "name": "DeleteProduct",
      "type": "event"
    },
    {
      "anonymous": false,
      "inputs": [
        {
          "indexed": false,
          "internalType": "uint256",
          "name": "id",
          "type": "uint256"
        }
      ],
      "name": "NewProductCreated",
      "type": "event"
    },
    {
      "anonymous": false,
      "inputs": [
        {
          "indexed": true,
          "internalType": "uint256",
          "name": "id",
          "type": "uint256"
        }
      ],
      "name": "NewSellerCreated",
      "type": "event"
    },
    {
      "inputs": [
        {
          "internalType": "address",
          "name": "",
          "type": "address"
        }
      ],
      "name": "carts",
      "outputs": [
        {
          "internalType": "address",
          "name": "buyer",
          "type": "address"
        },
        {
          "internalType": "string",
          "name": "details",
          "type": "string"
        }
      ],
      "stateMutability": "view",
      "type": "function"
    },
    {
      "inputs": [
        {
          "internalType": "string",
          "name": "_details",
          "type": "string"
        }
      ],
      "name": "createNewAccount",
      "outputs": [],
      "stateMutability": "nonpayable",
      "type": "function"
    },
    {
      "inputs": [
        {
          "internalType": "address",
          "name": "_user",
          "type": "address"
        }
      ],
      "name": "findUserByAddress",
      "outputs": [
        {
          "components": [
            {
              "internalType": "address payable",
              "name": "user",
              "type": "address"
            },
            {
              "internalType": "string",
              "name": "details",
              "type": "string"
            },
            {
              "internalType": "uint256",
              "name": "id",
              "type": "uint256"
            }
          ],
          "internalType": "struct UserContract.User",
          "name": "",
          "type": "tuple"
        }
      ],
      "stateMutability": "view",
      "type": "function"
    },
    {
      "inputs": [
        {
          "internalType": "address",
          "name": "",
          "type": "address"
        }
      ],
      "name": "inCart",
      "outputs": [
        {
          "internalType": "bool",
          "name": "",
          "type": "bool"
        }
      ],
      "stateMutability": "view",
      "type": "function"
    },
    {
      "inputs": [],
      "name": "productCount",
      "outputs": [
        {
          "internalType": "uint256",
          "name": "",
          "type": "uint256"
        }
      ],
      "stateMutability": "view",
      "type": "function"
    },
    {
      "inputs": [
        {
          "internalType": "string",
          "name": "_details",
          "type": "string"
        }
      ],
      "name": "updateAccountDetails",
      "outputs": [],
      "stateMutability": "nonpayable",
      "type": "function"
    },
    {
      "inputs": [
        {
          "internalType": "address",
          "name": "",
          "type": "address"
        }
      ],
      "name": "users",
      "outputs": [
        {
          "internalType": "address payable",
          "name": "user",
          "type": "address"
        },
        {
          "internalType": "string",
          "name": "details",
          "type": "string"
        },
        {
          "internalType": "uint256",
          "name": "id",
          "type": "uint256"
        }
      ],
      "stateMutability": "view",
      "type": "function"
    },
    {
      "inputs": [
        {
          "internalType": "string",
          "name": "_details",
          "type": "string"
        },
        {
          "internalType": "uint256",
          "name": "_price",
          "type": "uint256"
        }
      ],
      "name": "createNewProduct",
      "outputs": [],
      "stateMutability": "nonpayable",
      "type": "function"
    },
    {
      "inputs": [
        {
          "internalType": "uint256",
          "name": "_id",
          "type": "uint256"
        },
        {
          "internalType": "uint256",
          "name": "_price",
          "type": "uint256"
        },
        {
          "internalType": "string",
          "name": "_details",
          "type": "string"
        }
      ],
      "name": "updateProduct",
      "outputs": [],
      "stateMutability": "nonpayable",
      "type": "function"
    },
    {
      "inputs": [
        {
          "internalType": "string",
          "name": "_details",
          "type": "string"
        }
      ],
      "name": "addProductToCart",
      "outputs": [],
      "stateMutability": "nonpayable",
      "type": "function"
    },
    {
      "inputs": [
        {
          "internalType": "string",
          "name": "_details",
          "type": "string"
        }
      ],
      "name": "updateCartProduct",
      "outputs": [],
      "stateMutability": "nonpayable",
      "type": "function"
    },
    {
      "inputs": [],
      "name": "removeProductFromCart",
      "outputs": [],
      "stateMutability": "nonpayable",
      "type": "function"
    },
    {
      "inputs": [
        {
          "internalType": "uint256",
          "name": "_id",
          "type": "uint256"
        }
      ],
      "name": "findProduct",
      "outputs": [
        {
          "components": [
            {
              "internalType": "address payable",
              "name": "seller",
              "type": "address"
            },
            {
              "internalType": "string",
              "name": "details",
              "type": "string"
            },
            {
              "internalType": "uint256",
              "name": "id",
              "type": "uint256"
            },
            {
              "internalType": "uint256",
              "name": "price",
              "type": "uint256"
            },
            {
              "internalType": "bool",
              "name": "featured",
              "type": "bool"
            }
          ],
          "internalType": "struct ProductContract.Product",
          "name": "",
          "type": "tuple"
        }
      ],
      "stateMutability": "view",
      "type": "function"
    },
    {
      "inputs": [
        {
          "internalType": "address",
          "name": "_buyer",
          "type": "address"
        }
      ],
      "name": "findCartProduct",
      "outputs": [
        {
          "components": [
            {
              "internalType": "address",
              "name": "buyer",
              "type": "address"
            },
            {
              "internalType": "string",
              "name": "details",
              "type": "string"
            }
          ],
          "internalType": "struct ProductContract.Cart",
          "name": "",
          "type": "tuple"
        }
      ],
      "stateMutability": "view",
      "type": "function"
    },
    {
      "inputs": [
        {
          "internalType": "uint256",
          "name": "_id",
          "type": "uint256"
        }
      ],
      "name": "deleteProduct",
      "outputs": [
        {
          "internalType": "bool",
          "name": "",
          "type": "bool"
        }
      ],
      "stateMutability": "nonpayable",
      "type": "function"
    },
    {
      "inputs": [],
      "name": "deleteUserAccount",
      "outputs": [],
      "stateMutability": "nonpayable",
      "type": "function"
    }
  ],
  "bytecode": "0x608060405234801561001057600080fd5b50612875806100206000396000f3fe608060405234801561001057600080fd5b50600436106101005760003560e01c8063af4c16be11610097578063d628404411610066578063d6284044146102be578063e0f6ef87146102da578063e18ca599146102f8578063ed90c7b71461030257610100565b8063af4c16be1461024c578063b8fe443d14610256578063c17ab5f014610272578063ca8537001461028e57610100565b80636e3fc926116100d35780636e3fc926146101b15780637ab819fd146101e257806399af9c03146101fe578063a87430ba1461021a57610100565b806317b5c36d146101055780633c6721f4146101355780634f3379f514610165578063608f88b114610195575b600080fd5b61011f600480360361011a9190810190611e2f565b610332565b60405161012c919061268b565b60405180910390f35b61014f600480360361014a9190810190611e2f565b610512565b60405161015c91906124ec565b60405180910390f35b61017f600480360361017a9190810190611e2f565b610532565b60405161018c9190612647565b60405180910390f35b6101af60048036036101aa9190810190611e58565b610716565b005b6101cb60048036036101c69190810190611e2f565b6107e2565b6040516101d99291906124bc565b60405180910390f35b6101fc60048036036101f79190810190611e58565b6108be565b005b61021860048036036102139190810190611f16565b610afb565b005b610234600480360361022f9190810190611e2f565b610d73565b6040516102439392919061247e565b60405180910390f35b610254610e55565b005b610270600480360361026b9190810190611e99565b610f38565b005b61028c60048036036102879190810190611e58565b611144565b005b6102a860048036036102a39190810190611eed565b61135b565b6040516102b59190612669565b60405180910390f35b6102d860048036036102d39190810190611e58565b611509565b005b6102e2611732565b6040516102ef91906126ad565b60405180910390f35b610300611738565b005b61031c60048036036103179190810190611eed565b611940565b60405161032991906124ec565b60405180910390f35b61033a611b96565b6000600260008473ffffffffffffffffffffffffffffffffffffffff1673ffffffffffffffffffffffffffffffffffffffff16815260200190815260200160002060020154116103bf576040517f08c379a00000000000000000000000000000000000000000000000000000000081526004016103b6906125c7565b60405180910390fd5b600260008373ffffffffffffffffffffffffffffffffffffffff1673ffffffffffffffffffffffffffffffffffffffff1681526020019081526020016000206040518060600160405290816000820160009054906101000a900473ffffffffffffffffffffffffffffffffffffffff1673ffffffffffffffffffffffffffffffffffffffff1673ffffffffffffffffffffffffffffffffffffffff168152602001600182018054600181600116156101000203166002900480601f0160208091040260200160405190810160405280929190818152602001828054600181600116156101000203166002900480156104f85780601f106104cd576101008083540402835291602001916104f8565b820191906000526020600020905b8154815290600101906020018083116104db57829003601f168201915b505050505081526020016002820154815250509050919050565b60066020528060005260406000206000915054906101000a900460ff1681565b61053a611bcd565b60011515600660008473ffffffffffffffffffffffffffffffffffffffff1673ffffffffffffffffffffffffffffffffffffffff16815260200190815260200160002060009054906101000a900460ff161515146105cd576040517f08c379a00000000000000000000000000000000000000000000000000000000081526004016105c490612567565b60405180910390fd5b600560008373ffffffffffffffffffffffffffffffffffffffff1673ffffffffffffffffffffffffffffffffffffffff1681526020019081526020016000206040518060400160405290816000820160009054906101000a900473ffffffffffffffffffffffffffffffffffffffff1673ffffffffffffffffffffffffffffffffffffffff1673ffffffffffffffffffffffffffffffffffffffff168152602001600182018054600181600116156101000203166002900480601f0160208091040260200160405190810160405280929190818152602001828054600181600116156101000203166002900480156107065780601f106106db57610100808354040283529160200191610706565b820191906000526020600020905b8154815290600101906020018083116106e957829003601f168201915b5050505050815250509050919050565b600033905061072481610532565b5061073d60405180602001604052806000815250611b11565b61074683611b11565b1415610787576040517f08c379a000000000000000000000000000000000000000000000000000000000815260040161077e90612547565b60405180910390fd5b81600560008373ffffffffffffffffffffffffffffffffffffffff1673ffffffffffffffffffffffffffffffffffffffff16815260200190815260200160002060010190805190602001906107dd929190611bfd565b505050565b60056020528060005260406000206000915090508060000160009054906101000a900473ffffffffffffffffffffffffffffffffffffffff1690806001018054600181600116156101000203166002900480601f0160208091040260200160405190810160405280929190818152602001828054600181600116156101000203166002900480156108b45780601f10610889576101008083540402835291602001916108b4565b820191906000526020600020905b81548152906001019060200180831161089757829003601f168201915b5050505050905082565b60003390506108cc81610332565b5060001515600660008373ffffffffffffffffffffffffffffffffffffffff1673ffffffffffffffffffffffffffffffffffffffff16815260200190815260200160002060009054906101000a900460ff16151514610960576040517f08c379a0000000000000000000000000000000000000000000000000000000008152600401610957906125e7565b60405180910390fd5b61097860405180602001604052806000815250611b11565b61098183611b11565b14156109c2576040517f08c379a00000000000000000000000000000000000000000000000000000000081526004016109b990612547565b60405180910390fd5b6109ca611bcd565b60405180604001604052808373ffffffffffffffffffffffffffffffffffffffff1681526020018481525090506001600660008473ffffffffffffffffffffffffffffffffffffffff1673ffffffffffffffffffffffffffffffffffffffff16815260200190815260200160002060006101000a81548160ff02191690831515021790555080600560008473ffffffffffffffffffffffffffffffffffffffff1673ffffffffffffffffffffffffffffffffffffffff16815260200190815260200160002060008201518160000160006101000a81548173ffffffffffffffffffffffffffffffffffffffff021916908373ffffffffffffffffffffffffffffffffffffffff1602179055506020820151816001019080519060200190610af2929190611c7d565b50905050505050565b60003390506000610b0b8561135b565b6040015111610b4f576040517f08c379a0000000000000000000000000000000000000000000000000000000008152600401610b4690612607565b60405180910390fd5b610b588461135b565b6000015173ffffffffffffffffffffffffffffffffffffffff168173ffffffffffffffffffffffffffffffffffffffff1614610bc9576040517f08c379a0000000000000000000000000000000000000000000000000000000008152600401610bc090612587565b60405180910390fd5b610be160405180602001604052806000815250611b11565b610bea83611b11565b1415610c2b576040517f08c379a0000000000000000000000000000000000000000000000000000000008152600401610c2290612547565b60405180910390fd5b60008311610c6e576040517f08c379a0000000000000000000000000000000000000000000000000000000008152600401610c65906125a7565b60405180910390fd5b6000610c798561135b565b6080015190506040518060a001604052808373ffffffffffffffffffffffffffffffffffffffff1681526020018481526020018681526020018581526020018215158152506004600087815260200190815260200160002060008201518160000160006101000a81548173ffffffffffffffffffffffffffffffffffffffff021916908373ffffffffffffffffffffffffffffffffffffffff1602179055506020820151816001019080519060200190610d34929190611c7d565b50604082015181600201556060820151816003015560808201518160040160006101000a81548160ff0219169083151502179055509050505050505050565b60026020528060005260406000206000915090508060000160009054906101000a900473ffffffffffffffffffffffffffffffffffffffff1690806001018054600181600116156101000203166002900480601f016020809104026020016040519081016040528092919081815260200182805460018160011615610100020316600290048015610e455780601f10610e1a57610100808354040283529160200191610e45565b820191906000526020600020905b815481529060010190602001808311610e2857829003601f168201915b5050505050908060020154905083565b6000339050610e6381610532565b506000600660008373ffffffffffffffffffffffffffffffffffffffff1673ffffffffffffffffffffffffffffffffffffffff16815260200190815260200160002060006101000a81548160ff021916908315150217905550600560008273ffffffffffffffffffffffffffffffffffffffff1673ffffffffffffffffffffffffffffffffffffffff168152602001908152602001600020600080820160006101000a81549073ffffffffffffffffffffffffffffffffffffffff0219169055600182016000610f339190611cfd565b505050565b6000339050610f4681610332565b50610f5f60405180602001604052806000815250611b11565b610f6884611b11565b1415610fa9576040517f08c379a0000000000000000000000000000000000000000000000000000000008152600401610fa090612547565b60405180910390fd5b60008211610fec576040517f08c379a0000000000000000000000000000000000000000000000000000000008152600401610fe3906125a7565b60405180910390fd5b6110026001600354611b4190919063ffffffff16565b600381905550611010611d45565b6040518060a001604052808373ffffffffffffffffffffffffffffffffffffffff16815260200185815260200160035481526020018481526020016000151581525090508060046000600354815260200190815260200160002060008201518160000160006101000a81548173ffffffffffffffffffffffffffffffffffffffff021916908373ffffffffffffffffffffffffffffffffffffffff16021790555060208201518160010190805190602001906110cd929190611c7d565b50604082015181600201556060820151816003015560808201518160040160006101000a81548160ff0219169083151502179055509050507fe93da0b8f4a47f88d615d028b7d2b06e5e95abe8949a1619ce9de5fd1926705560035460405161113691906126ad565b60405180910390a150505050565b60003390506000600260008373ffffffffffffffffffffffffffffffffffffffff1673ffffffffffffffffffffffffffffffffffffffff16815260200190815260200160002060020154116111ce576040517f08c379a00000000000000000000000000000000000000000000000000000000081526004016111c5906125c7565b60405180910390fd5b6111e660405180602001604052806000815250611b11565b6111ef83611b11565b1415611230576040517f08c379a000000000000000000000000000000000000000000000000000000000815260040161122790612547565b60405180910390fd5b600260008273ffffffffffffffffffffffffffffffffffffffff1673ffffffffffffffffffffffffffffffffffffffff16815260200190815260200160002060000160009054906101000a900473ffffffffffffffffffffffffffffffffffffffff1673ffffffffffffffffffffffffffffffffffffffff168173ffffffffffffffffffffffffffffffffffffffff1614611300576040517f08c379a00000000000000000000000000000000000000000000000000000000081526004016112f790612587565b60405180910390fd5b81600260008373ffffffffffffffffffffffffffffffffffffffff1673ffffffffffffffffffffffffffffffffffffffff1681526020019081526020016000206001019080519060200190611356929190611bfd565b505050565b611363611d45565b6000600460008481526020019081526020016000206002015414156113bd576040517f08c379a00000000000000000000000000000000000000000000000000000000081526004016113b490612607565b60405180910390fd5b600460008381526020019081526020016000206040518060a00160405290816000820160009054906101000a900473ffffffffffffffffffffffffffffffffffffffff1673ffffffffffffffffffffffffffffffffffffffff1673ffffffffffffffffffffffffffffffffffffffff168152602001600182018054600181600116156101000203166002900480601f0160208091040260200160405190810160405280929190818152602001828054600181600116156101000203166002900480156114ca5780601f1061149f576101008083540402835291602001916114ca565b820191906000526020600020905b8154815290600101906020018083116114ad57829003601f168201915b5050505050815260200160028201548152602001600382015481526020016004820160009054906101000a900460ff1615151515815250509050919050565b60003390506000600260008373ffffffffffffffffffffffffffffffffffffffff1673ffffffffffffffffffffffffffffffffffffffff1681526020019081526020016000206002015414611593576040517f08c379a000000000000000000000000000000000000000000000000000000000815260040161158a90612507565b60405180910390fd5b6115ab60405180602001604052806000815250611b11565b6115b483611b11565b14156115f5576040517f08c379a00000000000000000000000000000000000000000000000000000000081526004016115ec90612547565b60405180910390fd5b61160a60018054611b4190919063ffffffff16565b600181905550611618611b96565b60405180606001604052808373ffffffffffffffffffffffffffffffffffffffff168152602001848152602001600154815250905080600260008473ffffffffffffffffffffffffffffffffffffffff1673ffffffffffffffffffffffffffffffffffffffff16815260200190815260200160002060008201518160000160006101000a81548173ffffffffffffffffffffffffffffffffffffffff021916908373ffffffffffffffffffffffffffffffffffffffff16021790555060208201518160010190805190602001906116f0929190611c7d565b50604082015181600201559050506001547fb993381ba8f4240ce3f7b76903ea25b60532c055966da6a88e3281d4dadde54460405160405180910390a2505050565b60035481565b60003390506000600260008373ffffffffffffffffffffffffffffffffffffffff1673ffffffffffffffffffffffffffffffffffffffff16815260200190815260200160002060020154116117c2576040517f08c379a00000000000000000000000000000000000000000000000000000000081526004016117b9906125c7565b60405180910390fd5b6000600190505b60035481116118bb576004600082815260200190815260200160002060000160009054906101000a900473ffffffffffffffffffffffffffffffffffffffff1673ffffffffffffffffffffffffffffffffffffffff168273ffffffffffffffffffffffffffffffffffffffff1614156118ae5760046000828152602001908152602001600020600080820160006101000a81549073ffffffffffffffffffffffffffffffffffffffff02191690556001820160006118879190611cfd565b600282016000905560038201600090556004820160006101000a81549060ff021916905550505b80806001019150506117c9565b50600260008273ffffffffffffffffffffffffffffffffffffffff1673ffffffffffffffffffffffffffffffffffffffff168152602001908152602001600020600080820160006101000a81549073ffffffffffffffffffffffffffffffffffffffff02191690556001820160006119339190611cfd565b6002820160009055505050565b600080339050600060046000858152602001908152602001600020600201541161199f576040517f08c379a000000000000000000000000000000000000000000000000000000000815260040161199690612607565b60405180910390fd5b6004600084815260200190815260200160002060000160009054906101000a900473ffffffffffffffffffffffffffffffffffffffff1673ffffffffffffffffffffffffffffffffffffffff168173ffffffffffffffffffffffffffffffffffffffff1614611a43576040517f08c379a0000000000000000000000000000000000000000000000000000000008152600401611a3a90612627565b60405180910390fd5b60046000848152602001908152602001600020600080820160006101000a81549073ffffffffffffffffffffffffffffffffffffffff0219169055600182016000611a8e9190611cfd565b600282016000905560038201600090556004820160006101000a81549060ff021916905550507f0e10ee3ece1ddd5966cebc571a843f6af8abd1fa7b2ef3d7279c44873b1e7bf883604051611ae391906126ad565b60405180910390a16000600460008581526020019081526020016000206002015414611b0b57fe5b50919050565b600081604051602001611b249190612467565b604051602081830303815290604052805190602001209050919050565b600080828401905083811015611b8c576040517f08c379a0000000000000000000000000000000000000000000000000000000008152600401611b8390612527565b60405180910390fd5b8091505092915050565b6040518060600160405280600073ffffffffffffffffffffffffffffffffffffffff16815260200160608152602001600081525090565b6040518060400160405280600073ffffffffffffffffffffffffffffffffffffffff168152602001606081525090565b828054600181600116156101000203166002900490600052602060002090601f016020900481019282601f10611c3e57805160ff1916838001178555611c6c565b82800160010185558215611c6c579182015b82811115611c6b578251825591602001919060010190611c50565b5b509050611c799190611d8c565b5090565b828054600181600116156101000203166002900490600052602060002090601f016020900481019282601f10611cbe57805160ff1916838001178555611cec565b82800160010185558215611cec579182015b82811115611ceb578251825591602001919060010190611cd0565b5b509050611cf99190611d8c565b5090565b50805460018160011615610100020316600290046000825580601f10611d235750611d42565b601f016020900490600052602060002090810190611d419190611d8c565b5b50565b6040518060a00160405280600073ffffffffffffffffffffffffffffffffffffffff1681526020016060815260200160008152602001600081526020016000151581525090565b611dae91905b80821115611daa576000816000905550600101611d92565b5090565b90565b600081359050611dc081612811565b92915050565b600082601f830112611dd757600080fd5b8135611dea611de5826126f5565b6126c8565b91508082526020830160208301858383011115611e0657600080fd5b611e118382846127be565b50505092915050565b600081359050611e2981612828565b92915050565b600060208284031215611e4157600080fd5b6000611e4f84828501611db1565b91505092915050565b600060208284031215611e6a57600080fd5b600082013567ffffffffffffffff811115611e8457600080fd5b611e9084828501611dc6565b91505092915050565b60008060408385031215611eac57600080fd5b600083013567ffffffffffffffff811115611ec657600080fd5b611ed285828601611dc6565b9250506020611ee385828601611e1a565b9150509250929050565b600060208284031215611eff57600080fd5b6000611f0d84828501611e1a565b91505092915050565b600080600060608486031215611f2b57600080fd5b6000611f3986828701611e1a565b9350506020611f4a86828701611e1a565b925050604084013567ffffffffffffffff811115611f6757600080fd5b611f7386828701611dc6565b9150509250925092565b611f8681612776565b82525050565b611f9581612776565b82525050565b611fa481612764565b82525050565b611fb381612764565b82525050565b611fc281612788565b82525050565b611fd181612788565b82525050565b6000611fe28261272c565b611fec8185612759565b9350611ffc8185602086016127cd565b80840191505092915050565b600061201382612721565b61201d8185612737565b935061202d8185602086016127cd565b61203681612800565b840191505092915050565b600061204c82612721565b6120568185612748565b93506120668185602086016127cd565b61206f81612800565b840191505092915050565b6000612087601883612748565b91507f557365722068617320616c7265616479206578697374656400000000000000006000830152602082019050919050565b60006120c7601b83612748565b91507f536166654d6174683a206164646974696f6e206f766572666c6f7700000000006000830152602082019050919050565b6000612107601b83612748565b91507f44617461206669656c642063616e206e6f7420626520656d70747900000000006000830152602082019050919050565b6000612147601483612748565b91507f4e6f20636172742064657461696c20666f756e640000000000000000000000006000830152602082019050919050565b6000612187601183612748565b91507f4e6f7420612076616c6964206f776e65720000000000000000000000000000006000830152602082019050919050565b60006121c7601883612748565b91507f5072696365206d7573742062652061626f7665207a65726f00000000000000006000830152602082019050919050565b6000612207601383612748565b91507f5573657220646f6573206e6f74206578697374000000000000000000000000006000830152602082019050919050565b6000612247602583612748565b91507f43616e6e6f74206f7665727269646520636172742064657461696c732064697260008301527f6563746c790000000000000000000000000000000000000000000000000000006020830152604082019050919050565b60006122ad601783612748565b91507f50726f6475637420646f6573206e6f74206578697374210000000000000000006000830152602082019050919050565b60006122ed602d83612748565b91507f4f6e6c792076616c6964206f776e657220697320616c6c6f77656420746f206460008301527f656c6574652070726f64756374000000000000000000000000000000000000006020830152604082019050919050565b600060408301600083015161235e6000860182611f9b565b50602083015184820360208601526123768282612008565b9150508091505092915050565b600060a08301600083015161239b6000860182611f7d565b50602083015184820360208601526123b38282612008565b91505060408301516123c86040860182612449565b5060608301516123db6060860182612449565b5060808301516123ee6080860182611fb9565b508091505092915050565b60006060830160008301516124116000860182611f7d565b50602083015184820360208601526124298282612008565b915050604083015161243e6040860182612449565b508091505092915050565b612452816127b4565b82525050565b612461816127b4565b82525050565b60006124738284611fd7565b915081905092915050565b60006060820190506124936000830186611f8c565b81810360208301526124a58185612041565b90506124b46040830184612458565b949350505050565b60006040820190506124d16000830185611faa565b81810360208301526124e38184612041565b90509392505050565b60006020820190506125016000830184611fc8565b92915050565b600060208201905081810360008301526125208161207a565b9050919050565b60006020820190508181036000830152612540816120ba565b9050919050565b60006020820190508181036000830152612560816120fa565b9050919050565b600060208201905081810360008301526125808161213a565b9050919050565b600060208201905081810360008301526125a08161217a565b9050919050565b600060208201905081810360008301526125c0816121ba565b9050919050565b600060208201905081810360008301526125e0816121fa565b9050919050565b600060208201905081810360008301526126008161223a565b9050919050565b60006020820190508181036000830152612620816122a0565b9050919050565b60006020820190508181036000830152612640816122e0565b9050919050565b600060208201905081810360008301526126618184612346565b905092915050565b600060208201905081810360008301526126838184612383565b905092915050565b600060208201905081810360008301526126a581846123f9565b905092915050565b60006020820190506126c26000830184612458565b92915050565b6000604051905081810181811067ffffffffffffffff821117156126eb57600080fd5b8060405250919050565b600067ffffffffffffffff82111561270c57600080fd5b601f19601f8301169050602081019050919050565b600081519050919050565b600081519050919050565b600082825260208201905092915050565b600082825260208201905092915050565b600081905092915050565b600061276f82612794565b9050919050565b600061278182612794565b9050919050565b60008115159050919050565b600073ffffffffffffffffffffffffffffffffffffffff82169050919050565b6000819050919050565b82818337600083830152505050565b60005b838110156127eb5780820151818401526020810190506127d0565b838111156127fa576000848401525b50505050565b6000601f19601f8301169050919050565b61281a81612764565b811461282557600080fd5b50565b612831816127b4565b811461283c57600080fd5b5056fea264697066735822122019204c38b779f31778a4e7250702aa3fdd2af873c4dfcd85fd1138ceeb1e011a64736f6c63430006000033",
  "source": "// SPDX-License-Identifier: MIT\r\npragma experimental ABIEncoderV2;\r\npragma solidity >=0.4.22 <0.8.0;\r\n\r\nimport \"@openzeppelin/contracts-ethereum-package/contracts/access/Ownable.sol\";\r\nimport \"@openzeppelin/contracts-ethereum-package/contracts/math/SafeMath.sol\";\r\nimport \"@openzeppelin/contracts-ethereum-package/contracts/Initializable.sol\";\r\n\r\ncontract UserContract {\r\n    using SafeMath for uint;\r\n    bool internal reEntrancyMutex;\r\n    uint userCounter;\r\n\r\n\r\n    mapping(address => User) public users;\r\n    \r\n    // Structures\r\n    struct User {\r\n        address payable user;\r\n        string details;\r\n        uint id;\r\n    }\r\n    \r\n    // Events\r\n    event NewSellerCreated(uint indexed id);\r\n    \r\n    // Create new User\r\n    function createNewAccount(string memory _details) public {\r\n        address payable _user = msg.sender;\r\n        require(users[_user].id == 0, \"User has already existed\");\r\n        require(encode(_details) != encode(''), \"Data field can not be empty\");\r\n\r\n        userCounter = userCounter.add(1);\r\n        User memory _newUser = User(_user, _details, userCounter);\r\n        users[_user] = _newUser;\r\n        emit NewSellerCreated(userCounter);\r\n    }\r\n    \r\n    // Update account details\r\n    function updateAccountDetails(string memory _details) public {\r\n        address payable _user = msg.sender;\r\n        require(users[_user].id > 0, \"User does not exist\");\r\n        require(encode(_details) != encode(''), \"Data field can not be empty\");\r\n        require(_user == users[_user].user, \"Not a valid owner\");\r\n\r\n        users[_user].details = _details;\r\n    }\r\n\r\n    // Find user by address\r\n    function findUserByAddress(address _user) public view returns(User memory) {\r\n        require(users[_user].id > 0, \"User does not exist\");\r\n        return users[_user];\r\n    }\r\n\r\n    function encode(string memory _data) internal pure returns(bytes32) {\r\n        return keccak256(abi.encodePacked(_data));\r\n    }\r\n\r\n}\r\n\r\ncontract ProductContract is UserContract {\r\n    using SafeMath for uint;\r\n    uint public productCount;\r\n    \r\n    mapping(uint => Product) private products;\r\n    mapping (address => Cart) public carts;\r\n    mapping(address => bool) public inCart;\r\n\r\n\r\n    struct Product {\r\n        address payable seller;\r\n        string details;\r\n        uint id;\r\n        uint price;\r\n        bool featured;\r\n    }\r\n\r\n    struct Cart {\r\n        address buyer;\r\n        string details;\r\n    }\r\n\r\n    // Events\r\n    event NewProductCreated(uint id);\r\n    event DeleteProduct(uint id);\r\n    \r\n    // Create new product\r\n    function createNewProduct(string memory _details, uint _price) public {\r\n        address payable _seller = msg.sender;\r\n        super.findUserByAddress(_seller);\r\n        require(encode(_details) != encode(\"\"), \"Data field can not be empty\");\r\n        require(_price > 0, \"Price must be above zero\");\r\n\r\n        // increment product count\r\n        productCount = productCount.add(1);\r\n        \r\n        Product memory _newProduct = Product(_seller, _details, productCount, _price, false);\r\n        products[productCount] = _newProduct;\r\n        emit NewProductCreated(productCount);\r\n    }\r\n    \r\n    // Update an existing product\r\n    function updateProduct(uint _id, uint _price, string memory _details) public {\r\n        address payable _seller = msg.sender;\r\n        require(findProduct(_id).id > 0, \"Product does not exist!\");\r\n        require(_seller == findProduct(_id).seller, \"Not a valid owner\");\r\n        require(encode(_details) != encode(\"\"), \"Data field can not be empty\");\r\n        require(_price > 0, \"Price must be above zero\");\r\n\r\n        bool _featured = findProduct(_id).featured;\r\n        \r\n        products[_id] = Product(_seller, _details, _id, _price, _featured);\r\n    }\r\n\r\n    // Add product to cart\r\n    function addProductToCart(string memory _details) public {\r\n        address _buyer = msg.sender;\r\n        findUserByAddress(_buyer);\r\n        require(inCart[_buyer] == false, \"Cannot override cart details directly\");\r\n        require(encode(_details) != encode(\"\"), \"Data field can not be empty\");\r\n        \r\n        Cart memory _newCart = Cart(_buyer, _details);\r\n        inCart[_buyer] = true;\r\n        carts[_buyer] = _newCart;\r\n    } \r\n\r\n    // Update cart product\r\n    function updateCartProduct(string memory _details) public {\r\n        address _buyer = msg.sender;\r\n        findCartProduct(_buyer);\r\n        require(encode(_details) != encode(\"\"), \"Data field can not be empty\");\r\n        carts[_buyer].details = _details;\r\n    }\r\n\r\n    // Remove product from cart\r\n    function removeProductFromCart() public {\r\n        address _buyer = msg.sender;\r\n        findCartProduct(_buyer);\r\n        inCart[_buyer] = false;\r\n        delete carts[_buyer];\r\n    }\r\n    \r\n    // find product\r\n    function findProduct(uint _id) public view returns(Product memory) {\r\n        require(products[_id].id != 0, \"Product does not exist!\");\r\n        return products[_id];\r\n    }\r\n\r\n    // Find cart product\r\n    function findCartProduct(address _buyer) public view returns(Cart memory) {\r\n        require(inCart[_buyer] == true, \"No cart detail found\");\r\n        return carts[_buyer];\r\n    }\r\n\r\n    // Delete existing product\r\n    function deleteProduct(uint _id) public returns(bool) {\r\n        address payable _seller = msg.sender;\r\n        require(products[_id].id > 0, \"Product does not exist!\");\r\n        require(\r\n            _seller == products[_id].seller, \r\n            \"Only valid owner is allowed to delete product\"\r\n        );\r\n        delete products[_id];\r\n        emit DeleteProduct(_id);\r\n        assert(products[_id].id == 0);\r\n    }\r\n    \r\n    // Delete account\r\n    function deleteUserAccount() public {\r\n        address payable _seller = msg.sender;\r\n        require(users[_seller].id > 0, \"User does not exist\");\r\n\r\n        for(uint i = 1; i <= productCount; i++) {\r\n            if(_seller == products[i].seller) delete products[i];\r\n        }\r\n        delete users[_seller];\r\n    }\r\n}\r\n\r\ncontract MyContract is Initializable, ProductContract {\r\n    using SafeMath for uint;\r\n    address payable public admin;\r\n    uint public featureProductRate;\r\n    uint public orderCount;\r\n\r\n    mapping(uint => Order) public orders;\r\n    mapping(uint => bool) public isFeaturedProduct;\r\n\r\n    \r\n    modifier onlyAdmin() {\r\n        require(msg.sender == admin);\r\n        _;\r\n    }\r\n\r\n    struct Order {\r\n        address buyer;\r\n        uint id;\r\n    }\r\n\r\n    // Events\r\n    event BuyProduct(uint id);\r\n\r\n    function initialize(address payable _admin) initializer public {\r\n        admin = _admin;\r\n        reEntrancyMutex = false;\r\n        featureProductRate = 5;\r\n    }\r\n\r\n    // Set feature product rate \r\n    function setFeatureProductRate(uint _rate) public onlyAdmin {\r\n        featureProductRate = _rate;\r\n    }\r\n\r\n    function calcFeatureProductRate(uint _id) public view returns(uint result) {\r\n        Product memory _product = super.findProduct(_id);\r\n        uint _price = _product.price;\r\n        result = _price.mul(featureProductRate.div(100));\r\n        return result;\r\n    }\r\n\r\n    // Feature products\r\n    function featureProduct(uint _id) public payable {\r\n        uint _amount = msg.value;\r\n        uint _price = calcFeatureProductRate(_id);\r\n\r\n        Product memory _product = findProduct(_id);\r\n\r\n        require(isFeaturedProduct[_id] == false, \"Product has already been featured\");\r\n        require(_amount >= _price, \"Not enough fund to proceed\");\r\n        require(msg.sender == _product.seller, \"Not a valid owner\");\r\n\r\n        uint _prevBalance = address(this).balance;\r\n\r\n        payable(address(this)).transfer(_amount);\r\n        uint _currBalance = address(this).balance;\r\n        assert(_currBalance >= _prevBalance.add(_amount));\r\n\r\n        isFeaturedProduct[_id] = true;\r\n\r\n        _product = Product(\r\n            _product.seller,\r\n            _product.details,\r\n            _product.id,\r\n            _product.price,\r\n            true\r\n        );\r\n    }\r\n\r\n    // Buy product\r\n    function buy(uint _id) public payable returns(uint) {\r\n        address _buyer = msg.sender;\r\n        uint _amount = msg.value;\r\n        uint _contractBalance = address(this).balance;\r\n\r\n        Product memory _product = findProduct(_id);\r\n        uint _price = _product.price;\r\n\r\n        require(_price >= _amount, \"Not enough balance\");\r\n\r\n        payable(address(this)).transfer(_amount);\r\n        assert(_contractBalance < _contractBalance.add(_amount));\r\n\r\n        orderCount = orderCount.add(1);\r\n        orders[orderCount] = Order(_buyer, orderCount);\r\n\r\n        emit BuyProduct(orderCount);\r\n    }\r\n}",
  "sourcePath": "/mnt/c/Users/DragonLord/Desktop/dApp/SilkRoad/Backend/contracts/MyContract.sol",
  "compiler": {
    "name": "solc",
    "version": "0.6.0+commit.26b70077.Emscripten.clang"
  },
  "schemaVersion": "3.2.3",
  "updatedAt": "2020-10-15T17:31:58.004Z",
  "devdoc": {
    "methods": {}
  },
  "userdoc": {
    "methods": {}
  }
}