{
  "contractName": "ProductContract",
  "abi": [
    {
      "anonymous": false,
      "inputs": [
        {
          "indexed": false,
          "internalType": "uint256",
          "name": "_id",
          "type": "uint256"
        }
      ],
      "name": "DeleteProduct",
      "type": "event"
    },
    {
      "anonymous": false,
      "inputs": [
        {
          "indexed": false,
          "internalType": "uint256",
          "name": "_id",
          "type": "uint256"
        }
      ],
      "name": "NewProductCreated",
      "type": "event"
    },
    {
      "anonymous": false,
      "inputs": [
        {
          "indexed": true,
          "internalType": "uint256",
          "name": "_id",
          "type": "uint256"
        }
      ],
      "name": "NewSellerCreated",
      "type": "event"
    },
    {
      "anonymous": false,
      "inputs": [
        {
          "indexed": true,
          "internalType": "address",
          "name": "previousOwner",
          "type": "address"
        },
        {
          "indexed": true,
          "internalType": "address",
          "name": "newOwner",
          "type": "address"
        }
      ],
      "name": "OwnershipTransferred",
      "type": "event"
    },
    {
      "inputs": [
        {
          "internalType": "string",
          "name": "_hashID",
          "type": "string"
        }
      ],
      "name": "createNewAccount",
      "outputs": [
        {
          "internalType": "bool",
          "name": "",
          "type": "bool"
        }
      ],
      "stateMutability": "nonpayable",
      "type": "function"
    },
    {
      "inputs": [
        {
          "internalType": "address",
          "name": "_account",
          "type": "address"
        }
      ],
      "name": "findUserByAddress",
      "outputs": [
        {
          "components": [
            {
              "internalType": "address payable",
              "name": "_account",
              "type": "address"
            },
            {
              "internalType": "string",
              "name": "_hashID",
              "type": "string"
            },
            {
              "internalType": "uint256",
              "name": "_id",
              "type": "uint256"
            }
          ],
          "internalType": "struct UserContract.User",
          "name": "",
          "type": "tuple"
        }
      ],
      "stateMutability": "view",
      "type": "function",
      "constant": true
    },
    {
      "inputs": [],
      "name": "owner",
      "outputs": [
        {
          "internalType": "address payable",
          "name": "",
          "type": "address"
        }
      ],
      "stateMutability": "view",
      "type": "function",
      "constant": true
    },
    {
      "inputs": [],
      "name": "productCount",
      "outputs": [
        {
          "internalType": "uint256",
          "name": "",
          "type": "uint256"
        }
      ],
      "stateMutability": "view",
      "type": "function",
      "constant": true
    },
    {
      "inputs": [
        {
          "internalType": "string",
          "name": "_hashID",
          "type": "string"
        }
      ],
      "name": "updateAccountDetails",
      "outputs": [],
      "stateMutability": "nonpayable",
      "type": "function"
    },
    {
      "inputs": [
        {
          "internalType": "address",
          "name": "",
          "type": "address"
        }
      ],
      "name": "users",
      "outputs": [
        {
          "internalType": "address payable",
          "name": "_account",
          "type": "address"
        },
        {
          "internalType": "string",
          "name": "_hashID",
          "type": "string"
        },
        {
          "internalType": "uint256",
          "name": "_id",
          "type": "uint256"
        }
      ],
      "stateMutability": "view",
      "type": "function",
      "constant": true
    },
    {
      "inputs": [
        {
          "internalType": "string",
          "name": "_productDetails",
          "type": "string"
        }
      ],
      "name": "createNewProduct",
      "outputs": [],
      "stateMutability": "nonpayable",
      "type": "function"
    },
    {
      "inputs": [
        {
          "internalType": "uint256",
          "name": "_productId",
          "type": "uint256"
        },
        {
          "internalType": "string",
          "name": "_productDetails",
          "type": "string"
        }
      ],
      "name": "updateProduct",
      "outputs": [],
      "stateMutability": "nonpayable",
      "type": "function"
    },
    {
      "inputs": [
        {
          "internalType": "uint256",
          "name": "_productId",
          "type": "uint256"
        }
      ],
      "name": "deleteProduct",
      "outputs": [
        {
          "internalType": "bool",
          "name": "",
          "type": "bool"
        }
      ],
      "stateMutability": "nonpayable",
      "type": "function"
    },
    {
      "inputs": [],
      "name": "deleteUserAccount",
      "outputs": [],
      "stateMutability": "nonpayable",
      "type": "function"
    },
    {
      "inputs": [
        {
          "internalType": "uint256",
          "name": "_productId",
          "type": "uint256"
        }
      ],
      "name": "findProduct",
      "outputs": [
        {
          "components": [
            {
              "internalType": "address payable",
              "name": "_seller",
              "type": "address"
            },
            {
              "internalType": "string",
              "name": "_productDetails",
              "type": "string"
            },
            {
              "internalType": "uint256",
              "name": "_productId",
              "type": "uint256"
            }
          ],
          "internalType": "struct ProductContract.Product",
          "name": "",
          "type": "tuple"
        }
      ],
      "stateMutability": "view",
      "type": "function",
      "constant": true
    },
    {
      "inputs": [],
      "name": "getProductCount",
      "outputs": [
        {
          "internalType": "uint256",
          "name": "",
          "type": "uint256"
        }
      ],
      "stateMutability": "view",
      "type": "function",
      "constant": true
    }
  ],
  "bytecode": "0x608060405234801561001057600080fd5b5060008054600160a060020a0319163317808255604051600160a060020a039190911691907f8be0079c531659141344cd1fd0a4f28419497f9722a3daafe3b4186f6b6457e0908290a3611154806100696000396000f3fe608060405234801561001057600080fd5b50600436106100d1576000357c010000000000000000000000000000000000000000000000000000000090048063ca8537001161008e578063ca85370014610173578063d628404414610186578063e0f6ef87146101a6578063e18ca599146101ae578063e68a304e146101b6578063ed90c7b7146101c9576100d1565b806317b5c36d146100d65780634a348da9146100ff578063522ae8b6146101145780638da5cb5b14610129578063a87430ba1461013e578063c17ab5f014610160575b600080fd5b6100e96100e4366004610d03565b6101dc565b6040516100f691906110d2565b60405180910390f35b6101076102f8565b6040516100f691906110e5565b610127610122366004610d7d565b6102fe565b005b610131610424565b6040516100f69190610e46565b61015161014c366004610d03565b610433565b6040516100f693929190610e5a565b61012761016e366004610d2a565b6104ec565b6100e9610181366004610d65565b6105d1565b610199610194366004610d2a565b610697565b6040516100f69190610e8c565b6101076107d7565b6101276107dd565b6101276101c4366004610d2a565b6108cb565b6101996101d7366004610d65565b610a0f565b6101e4610b81565b600160a060020a0382166000908152600160205260409020600201546102285760405160e560020a62461bcd02815260040161021f90610faa565b60405180910390fd5b600160a060020a0382811660009081526001602081815260409283902083516060810185528154909516855280830180548551600261010096831615969096026000190190911694909404601f8101849004840285018401909552848452909385830193928301828280156102de5780601f106102b3576101008083540402835291602001916102de565b820191906000526020600020905b8154815290600101906020018083116102c157829003601f168201915b505050505081526020016002820154815250509050919050565b60045490565b60008281526003602052604090206002015461032f5760405160e560020a62461bcd02815260040161021f9061103e565b600082815260036020526040902054600160a060020a031633146103685760405160e560020a62461bcd02815260040161021f90610fe1565b61038060405180602001604052806000815250610b0f565b61038982610b0f565b14156103aa5760405160e560020a62461bcd02815260040161021f90610e97565b604080516060810182523381526020808201848152828401869052600086815260038352939093208251815473ffffffffffffffffffffffffffffffffffffffff1916600160a060020a03909116178155925180519293926104129260018501920190610bab565b50604082015181600201559050505050565b600054600160a060020a031690565b600160208181526000928352604092839020805481840180548651600261010097831615979097026000190190911695909504601f8101859004850286018501909652858552600160a060020a03909116949193929091908301828280156104dc5780601f106104b1576101008083540402835291602001916104dc565b820191906000526020600020905b8154815290600101906020018083116104bf57829003601f168201915b5050505050908060020154905083565b3360008181526001602052604090206002015461051e5760405160e560020a62461bcd02815260040161021f90610faa565b61053660405180602001604052806000815250610b0f565b61053f83610b0f565b14156105605760405160e560020a62461bcd02815260040161021f90610f73565b600160a060020a038082166000818152600160205260409020549091161461059d5760405160e560020a62461bcd02815260040161021f90610f3c565b600160a060020a038116600090815260016020818152604090922084516105cc93919092019190850190610bab565b505050565b6105d9610b81565b60008281526003602052604090206002015461060a5760405160e560020a62461bcd02815260040161021f9061103e565b60008281526003602090815260409182902082516060810184528154600160a060020a03168152600180830180548651600261010094831615949094026000190190911692909204601f81018690048602830186019096528582529194929385810193919291908301828280156102de5780601f106102b3576101008083540402835291602001916102de565b33600081815260016020526040812060020154909190156106cd5760405160e560020a62461bcd02815260040161021f90610ece565b6106e560405180602001604052806000815250610b0f565b6106ee84610b0f565b141561070f5760405160e560020a62461bcd02815260040161021f90610f73565b61071a600254610b3f565b600255610725610b81565b5060408051606081018252600160a060020a0383811680835260208084018881526002548587015260009283526001808352959092208451815473ffffffffffffffffffffffffffffffffffffffff191694169390931783559051805193948594610797939185019290910190610bab565b506040918201516002918201555490517fb993381ba8f4240ce3f7b76903ea25b60532c055966da6a88e3281d4dadde54490600090a25060019392505050565b60045481565b3360009081526001602052604090206002015461080f5760405160e560020a62461bcd02815260040161021f90610faa565b60015b600454811161088457600081815260036020526040902054600160a060020a031633141561087c576000818152600360205260408120805473ffffffffffffffffffffffffffffffffffffffff19168155906108716001830182610c29565b600282016000905550505b600101610812565b503360009081526001602081905260408220805473ffffffffffffffffffffffffffffffffffffffff1916815591906108bf90830182610c29565b60028201600090555050565b336000818152600160205260409020600201546108fd5760405160e560020a62461bcd02815260040161021f90610faa565b61091560405180602001604052806000815250610b0f565b61091e83610b0f565b141561093f5760405160e560020a62461bcd02815260040161021f90610e97565b61094a600454610b3f565b600455610955610b81565b50604080516060810182523381526020808201858152600454838501819052600090815260038352939093208251815473ffffffffffffffffffffffffffffffffffffffff1916600160a060020a03909116178155925180519293849390926109c5926001850192910190610bab565b5060409182015160029091015560045490517fe93da0b8f4a47f88d615d028b7d2b06e5e95abe8949a1619ce9de5fd1926705591610a02916110e5565b60405180910390a1505050565b600081815260036020526040812060020154610a405760405160e560020a62461bcd02815260040161021f9061103e565b600082815260036020526040902054600160a060020a03163314610a795760405160e560020a62461bcd02815260040161021f90611075565b6000828152600360205260408120805473ffffffffffffffffffffffffffffffffffffffff1916815590610ab06001830182610c29565b5060006002918201819055838152600360205260409020015415610ad357600080fd5b7f0e10ee3ece1ddd5966cebc571a843f6af8abd1fa7b2ef3d7279c44873b1e7bf882604051610b0291906110e5565b60405180910390a1919050565b600081604051602001610b229190610e2a565b604051602081830303815290604052805190602001209050919050565b6000610b4c826001610b52565b92915050565b600082820183811015610b7a5760405160e560020a62461bcd02815260040161021f90610f05565b9392505050565b60405180606001604052806000600160a060020a0316815260200160608152602001600081525090565b828054600181600116156101000203166002900490600052602060002090601f016020900481019282601f10610bec57805160ff1916838001178555610c19565b82800160010185558215610c19579182015b82811115610c19578251825591602001919060010190610bfe565b50610c25929150610c70565b5090565b50805460018160011615610100020316600290046000825580601f10610c4f5750610c6d565b601f016020900490600052602060002090810190610c6d9190610c70565b50565b5b80821115610c255760008155600101610c71565b600082601f830112610c95578081fd5b813567ffffffffffffffff80821115610cac578283fd5b604051601f8301601f191681016020018281118282101715610ccc578485fd5b604052828152925082848301602001861015610ce757600080fd5b8260208601602083013760006020848301015250505092915050565b600060208284031215610d14578081fd5b8135600160a060020a0381168114610b7a578182fd5b600060208284031215610d3b578081fd5b813567ffffffffffffffff811115610d51578182fd5b610d5d84828501610c85565b949350505050565b600060208284031215610d76578081fd5b5035919050565b60008060408385031215610d8f578081fd5b82359150602083013567ffffffffffffffff811115610dac578182fd5b610db885828601610c85565b9150509250929050565b60008151808452610dda8160208601602086016110ee565b601f01601f19169290920160200192915050565b6000600160a060020a038251168352602082015160606020850152610e166060850182610dc2565b604093840151949093019390935250919050565b60008251610e3c8184602087016110ee565b9190910192915050565b600160a060020a0391909116815260200190565b6000600160a060020a038516825260606020830152610e7c6060830185610dc2565b9050826040830152949350505050565b901515815260200190565b60208082526016908201527f496e7075742063616e206e6f7420626520626c616e6b00000000000000000000604082015260600190565b60208082526018908201527f557365722068617320616c726561647920657869737465640000000000000000604082015260600190565b6020808252601b908201527f536166654d6174683a206164646974696f6e206f766572666c6f770000000000604082015260600190565b60208082526011908201527f4e6f7420612076616c6964206f776e6572000000000000000000000000000000604082015260600190565b6020808252600f908201527f496e76616c696420686173682069640000000000000000000000000000000000604082015260600190565b60208082526013908201527f5573657220646f6573206e6f7420657869737400000000000000000000000000604082015260600190565b6020808252602b908201527f4f6e6c792076616c6964206f776e657220697320616c6c6f77656420746f206560408201527f6469742070726f64756374000000000000000000000000000000000000000000606082015260800190565b60208082526017908201527f50726f6475637420646f6573206e6f7420657869737421000000000000000000604082015260600190565b6020808252602d908201527f4f6e6c792076616c6964206f776e657220697320616c6c6f77656420746f206460408201527f656c6574652070726f6475637400000000000000000000000000000000000000606082015260800190565b600060208252610b7a6020830184610dee565b90815260200190565b60005b838110156111095781810151838201526020016110f1565b83811115611118576000848401525b5050505056fea26469706673582212200014550c1b6fadaeee61661c8c277a6091644e673c7e591f61c7bc10634abb8564736f6c63430007000033",
  "immutableReferences": {},
  "source": "// \"SPDX-License-Identifier: Unlicensed\"\r\npragma experimental ABIEncoderV2;\r\npragma solidity ^0.7.0;\r\n\r\nimport \"./Openzepplin/SafeMath.sol\";\r\nimport \"./User.sol\";\r\n\r\ncontract ProductContract is UserContract {\r\n    using SafeMath for uint;\r\n    \r\n    mapping(uint => Product) private products;\r\n\r\n    uint public productCount;\r\n    \r\n    struct Product {\r\n        address payable _seller;\r\n        string _productDetails;\r\n        uint _productId;\r\n    }\r\n    \r\n    // Events\r\n    event NewProductCreated(uint _id);\r\n    event DeleteProduct(uint _id);\r\n    \r\n    // Create new product\r\n    function createNewProduct(string memory _productDetails) external {\r\n        address payable _seller = msg.sender;\r\n        require(users[_seller]._id > 0, \"User does not exist\");\r\n        require(encode(_productDetails) != encode(''), \"Input can not be blank\");\r\n\r\n        // increment product count\r\n        productCount = incrementCounter(productCount);\r\n        \r\n        Product memory _newProduct = Product(msg.sender, _productDetails, productCount);\r\n        products[productCount] = _newProduct;\r\n        emit NewProductCreated(productCount);\r\n    }\r\n    \r\n    // Update an existing product\r\n    function updateProduct(uint _productId, string memory _productDetails) external {\r\n        require(products[_productId]._productId > 0, \"Product does not exist!\");\r\n        require(\r\n            msg.sender == products[_productId]._seller, \r\n            \"Only valid owner is allowed to edit product\"\r\n        );\r\n        require(encode(_productDetails) != encode(''), \"Input can not be blank\");\r\n        \r\n        products[_productId] = Product(msg.sender, _productDetails, _productId);\r\n    }\r\n    \r\n    // Delete existing product\r\n    function deleteProduct(uint _productId) public returns(bool) {\r\n        require(products[_productId]._productId > 0, \"Product does not exist!\");\r\n        require(\r\n            msg.sender == products[_productId]._seller, \r\n            \"Only valid owner is allowed to delete product\"\r\n        );\r\n        delete products[_productId];\r\n        require(products[_productId]._productId == 0);\r\n        emit DeleteProduct(_productId);\r\n    }\r\n    \r\n    // Delete account\r\n    function deleteUserAccount() external {\r\n        require(users[msg.sender]._id > 0, \"User does not exist\");\r\n\r\n        for(uint i = 1; i <= productCount; i++) {\r\n            if(products[i]._seller == msg.sender) delete products[i];\r\n        }\r\n        delete users[msg.sender];\r\n    }\r\n\r\n    // find product\r\n    function findProduct(uint _productId) public view returns(Product memory) {\r\n        require(products[_productId]._productId != 0, \"Product does not exist!\");\r\n        return products[_productId];\r\n    }\r\n\r\n    // Product count\r\n    function getProductCount() public view returns(uint) {\r\n        return productCount;\r\n    }\r\n}",
  "sourcePath": "C:/Users/DragonLord/Desktop/dApp/Handler Bazzar/Backend/contracts/Product.sol",
  "compiler": {
    "name": "solc",
    "version": "0.7.0+commit.9e61f92b.Emscripten.clang"
  },
  "schemaVersion": "3.2.3",
  "updatedAt": "2020-09-18T19:41:47.381Z",
  "networkType": "ethereum",
  "devdoc": {
    "kind": "dev",
    "methods": {},
    "version": 1
  },
  "userdoc": {
    "kind": "user",
    "methods": {},
    "version": 1
  }
}