{
  "contractName": "Test",
  "abi": [
    {
      "anonymous": false,
      "inputs": [
        {
          "indexed": false,
          "internalType": "uint256",
          "name": "_id",
          "type": "uint256"
        }
      ],
      "name": "DeleteProduct",
      "type": "event"
    },
    {
      "anonymous": false,
      "inputs": [
        {
          "indexed": false,
          "internalType": "uint256",
          "name": "_id",
          "type": "uint256"
        }
      ],
      "name": "NewProductCreated",
      "type": "event"
    },
    {
      "anonymous": false,
      "inputs": [
        {
          "indexed": true,
          "internalType": "uint256",
          "name": "_id",
          "type": "uint256"
        }
      ],
      "name": "NewSellerCreated",
      "type": "event"
    },
    {
      "anonymous": false,
      "inputs": [
        {
          "indexed": true,
          "internalType": "address",
          "name": "previousOwner",
          "type": "address"
        },
        {
          "indexed": true,
          "internalType": "address",
          "name": "newOwner",
          "type": "address"
        }
      ],
      "name": "OwnershipTransferred",
      "type": "event"
    },
    {
      "inputs": [
        {
          "internalType": "string",
          "name": "_hashID",
          "type": "string"
        }
      ],
      "name": "createNewAccount",
      "outputs": [
        {
          "internalType": "bool",
          "name": "",
          "type": "bool"
        }
      ],
      "stateMutability": "nonpayable",
      "type": "function"
    },
    {
      "inputs": [
        {
          "internalType": "address",
          "name": "_account",
          "type": "address"
        }
      ],
      "name": "findUserByAddress",
      "outputs": [
        {
          "components": [
            {
              "internalType": "address payable",
              "name": "_account",
              "type": "address"
            },
            {
              "internalType": "string",
              "name": "_hashID",
              "type": "string"
            },
            {
              "internalType": "uint256",
              "name": "_id",
              "type": "uint256"
            }
          ],
          "internalType": "struct UserContract.User",
          "name": "",
          "type": "tuple"
        }
      ],
      "stateMutability": "view",
      "type": "function"
    },
    {
      "inputs": [],
      "name": "owner",
      "outputs": [
        {
          "internalType": "address payable",
          "name": "",
          "type": "address"
        }
      ],
      "stateMutability": "view",
      "type": "function"
    },
    {
      "inputs": [],
      "name": "productCount",
      "outputs": [
        {
          "internalType": "uint256",
          "name": "",
          "type": "uint256"
        }
      ],
      "stateMutability": "view",
      "type": "function"
    },
    {
      "inputs": [
        {
          "internalType": "string",
          "name": "_hashID",
          "type": "string"
        }
      ],
      "name": "updateAccountDetails",
      "outputs": [],
      "stateMutability": "nonpayable",
      "type": "function"
    },
    {
      "inputs": [
        {
          "internalType": "address",
          "name": "",
          "type": "address"
        }
      ],
      "name": "users",
      "outputs": [
        {
          "internalType": "address payable",
          "name": "_account",
          "type": "address"
        },
        {
          "internalType": "string",
          "name": "_hashID",
          "type": "string"
        },
        {
          "internalType": "uint256",
          "name": "_id",
          "type": "uint256"
        }
      ],
      "stateMutability": "view",
      "type": "function"
    },
    {
      "inputs": [
        {
          "internalType": "string",
          "name": "_productName",
          "type": "string"
        },
        {
          "internalType": "string",
          "name": "_description",
          "type": "string"
        },
        {
          "internalType": "string",
          "name": "_type",
          "type": "string"
        },
        {
          "internalType": "uint256",
          "name": "_price",
          "type": "uint256"
        },
        {
          "internalType": "uint256",
          "name": "_quantity",
          "type": "uint256"
        }
      ],
      "name": "createNewProduct",
      "outputs": [
        {
          "internalType": "uint256",
          "name": "",
          "type": "uint256"
        }
      ],
      "stateMutability": "nonpayable",
      "type": "function"
    },
    {
      "inputs": [
        {
          "internalType": "uint256",
          "name": "_productID",
          "type": "uint256"
        },
        {
          "internalType": "string",
          "name": "_productName",
          "type": "string"
        },
        {
          "internalType": "string",
          "name": "_description",
          "type": "string"
        },
        {
          "internalType": "string",
          "name": "_type",
          "type": "string"
        },
        {
          "internalType": "uint256",
          "name": "_price",
          "type": "uint256"
        },
        {
          "internalType": "uint256",
          "name": "_quantity",
          "type": "uint256"
        }
      ],
      "name": "updateProduct",
      "outputs": [
        {
          "internalType": "bool",
          "name": "",
          "type": "bool"
        }
      ],
      "stateMutability": "nonpayable",
      "type": "function"
    },
    {
      "inputs": [
        {
          "internalType": "uint256",
          "name": "_productID",
          "type": "uint256"
        }
      ],
      "name": "deleteProduct",
      "outputs": [
        {
          "internalType": "bool",
          "name": "",
          "type": "bool"
        }
      ],
      "stateMutability": "nonpayable",
      "type": "function"
    },
    {
      "inputs": [],
      "name": "deleteUserAccount",
      "outputs": [],
      "stateMutability": "nonpayable",
      "type": "function"
    },
    {
      "inputs": [
        {
          "internalType": "uint256",
          "name": "_id",
          "type": "uint256"
        }
      ],
      "name": "findProduct",
      "outputs": [
        {
          "components": [
            {
              "internalType": "address payable",
              "name": "_seller",
              "type": "address"
            },
            {
              "internalType": "string",
              "name": "_productName",
              "type": "string"
            },
            {
              "internalType": "string",
              "name": "_description",
              "type": "string"
            },
            {
              "internalType": "string",
              "name": "_type",
              "type": "string"
            },
            {
              "internalType": "uint256",
              "name": "_productID",
              "type": "uint256"
            },
            {
              "internalType": "uint256",
              "name": "_price",
              "type": "uint256"
            },
            {
              "internalType": "uint256",
              "name": "_quantity",
              "type": "uint256"
            }
          ],
          "internalType": "struct Test.Product",
          "name": "",
          "type": "tuple"
        }
      ],
      "stateMutability": "view",
      "type": "function"
    },
    {
      "inputs": [],
      "name": "getProductCount",
      "outputs": [
        {
          "internalType": "uint256",
          "name": "",
          "type": "uint256"
        }
      ],
      "stateMutability": "view",
      "type": "function"
    }
  ],
  "bytecode": "0x608060405234801561001057600080fd5b5060008054600160a060020a0319163317808255604051600160a060020a039190911691907f8be0079c531659141344cd1fd0a4f28419497f9722a3daafe3b4186f6b6457e0908290a3611681806100696000396000f3fe608060405234801561001057600080fd5b50600436106100d1576000357c010000000000000000000000000000000000000000000000000000000090048063c17ab5f01161008e578063c17ab5f01461017e578063ca85370014610193578063d6284044146101b3578063e0f6ef87146101c6578063e18ca599146101ce578063ed90c7b7146101d6576100d1565b806317b5c36d146100d65780634a348da9146100ff57806378433b4e146101145780638da5cb5b14610127578063a87430ba1461013c578063bab8d8721461015e575b600080fd5b6100e96100e43660046110b2565b6101e9565b6040516100f691906115cd565b60405180910390f35b610107610305565b6040516100f69190611612565b610107610122366004611114565b61030b565b61012f610516565b6040516100f691906112aa565b61014f61014a3660046110b2565b610525565b6040516100f6939291906112be565b61017161016c3660046111c2565b6105de565b6040516100f691906112f0565b61019161018c3660046110d9565b6107c6565b005b6101a66101a13660046111aa565b6108ab565b6040516100f69190611536565b6101716101c13660046110d9565b610af0565b610107610c30565b610191610c36565b6101716101e43660046111aa565b610d4d565b6101f1610eea565b600160a060020a0382166000908152600160205260409020600201546102355760405160e560020a62461bcd02815260040161022c9061140e565b60405180910390fd5b600160a060020a0382811660009081526001602081815260409283902083516060810185528154909516855280830180548551600261010096831615969096026000190190911694909404601f8101849004840285018401909552848452909385830193928301828280156102eb5780601f106102c0576101008083540402835291602001916102eb565b820191906000526020600020905b8154815290600101906020018083116102ce57829003601f168201915b505050505081526020016002820154815250509050919050565b60045490565b336000818152600160205260408120600201549091906103405760405160e560020a62461bcd02815260040161022c9061140e565b61035860405180602001604052806000815250610e78565b61036188610e78565b14158061038d575061038160405180602001604052806000815250610e78565b61038a87610e78565b14155b806103b757506103ab60405180602001604052806000815250610e78565b6103b486610e78565b14155b6103d65760405160e560020a62461bcd02815260040161022c906112fb565b6103e1600454610ea8565b6004556103ec610f14565b506040805160e08101825233815260208082018a81528284018a9052606083018990526004546080840181905260a0840189905260c08401889052600090815260038352939093208251815473ffffffffffffffffffffffffffffffffffffffff1916600160a060020a0390911617815592518051929384939092610478926001850192910190610f5a565b5060408201518051610494916002840191602090910190610f5a565b50606082015180516104b0916003840191602090910190610f5a565b506080820151816004015560a0820151816005015560c082015181600601559050507fe93da0b8f4a47f88d615d028b7d2b06e5e95abe8949a1619ce9de5fd192670556004546040516105039190611612565b60405180910390a1505095945050505050565b600054600160a060020a031690565b600160208181526000928352604092839020805481840180548651600261010097831615979097026000190190911695909504601f8101859004850286018501909652858552600160a060020a03909116949193929091908301828280156105ce5780601f106105a3576101008083540402835291602001916105ce565b820191906000526020600020905b8154815290600101906020018083116105b157829003601f168201915b5050505050908060020154905083565b60008681526003602052604081206004015461060f5760405160e560020a62461bcd02815260040161022c906114a2565b600087815260036020526040902054600160a060020a031633146106485760405160e560020a62461bcd02815260040161022c90611445565b61066060405180602001604052806000815250610e78565b61066987610e78565b141580610695575061068960405180602001604052806000815250610e78565b61069286610e78565b14155b806106bf57506106b360405180602001604052806000815250610e78565b6106bc85610e78565b14155b6106de5760405160e560020a62461bcd02815260040161022c906112fb565b6040805160e081018252338152602080820189815282840189905260608301889052600454608084015260a0830187905260c0830186905260008b815260038352939093208251815473ffffffffffffffffffffffffffffffffffffffff1916600160a060020a03909116178155925180519293926107639260018501920190610f5a565b506040820151805161077f916002840191602090910190610f5a565b506060820151805161079b916003840191602090910190610f5a565b506080820151600482015560a0820151600582015560c0909101516006909101559695505050505050565b336000818152600160205260409020600201546107f85760405160e560020a62461bcd02815260040161022c9061140e565b61081060405180602001604052806000815250610e78565b61081983610e78565b141561083a5760405160e560020a62461bcd02815260040161022c906113d7565b600160a060020a03808216600081815260016020526040902054909116146108775760405160e560020a62461bcd02815260040161022c906113a0565b600160a060020a038116600090815260016020818152604090922084516108a693919092019190850190610f5a565b505050565b6108b3610f14565b6000828152600360205260409020600401546108e45760405160e560020a62461bcd02815260040161022c906114a2565b600082815260036020908152604091829020825160e0810184528154600160a060020a03168152600180830180548651600261010094831615949094026000190190911692909204601f810186900486028301860190965285825291949293858101939192919083018282801561099c5780601f106109715761010080835404028352916020019161099c565b820191906000526020600020905b81548152906001019060200180831161097f57829003601f168201915b5050509183525050600282810180546040805160206001841615610100026000190190931694909404601f81018390048302850183019091528084529381019390830182828015610a2e5780601f10610a0357610100808354040283529160200191610a2e565b820191906000526020600020905b815481529060010190602001808311610a1157829003601f168201915b505050918352505060038201805460408051602060026001851615610100026000190190941693909304601f8101849004840282018401909252818152938201939291830182828015610ac25780601f10610a9757610100808354040283529160200191610ac2565b820191906000526020600020905b815481529060010190602001808311610aa557829003601f168201915b5050505050815260200160048201548152602001600582015481526020016006820154815250509050919050565b3360008181526001602052604081206002015490919015610b265760405160e560020a62461bcd02815260040161022c90611332565b610b3e60405180602001604052806000815250610e78565b610b4784610e78565b1415610b685760405160e560020a62461bcd02815260040161022c906113d7565b610b73600254610ea8565b600255610b7e610eea565b5060408051606081018252600160a060020a0383811680835260208084018881526002548587015260009283526001808352959092208451815473ffffffffffffffffffffffffffffffffffffffff191694169390931783559051805193948594610bf0939185019290910190610f5a565b506040918201516002918201555490517fb993381ba8f4240ce3f7b76903ea25b60532c055966da6a88e3281d4dadde54490600090a25060019392505050565b60045481565b33600090815260016020526040902060020154610c685760405160e560020a62461bcd02815260040161022c9061140e565b60015b6004548111610d0657600081815260036020526040902054600160a060020a0316331415610cfe576000818152600360205260408120805473ffffffffffffffffffffffffffffffffffffffff1916815590610cca6001830182610fd8565b610cd8600283016000610fd8565b610ce6600383016000610fd8565b50600060048201819055600582018190556006909101555b600101610c6b565b503360009081526001602081905260408220805473ffffffffffffffffffffffffffffffffffffffff191681559190610d4190830182610fd8565b60028201600090555050565b600081815260036020526040812060040154610d7e5760405160e560020a62461bcd02815260040161022c906114a2565b600082815260036020526040902054600160a060020a03163314610db75760405160e560020a62461bcd02815260040161022c906114d9565b6000828152600360205260408120805473ffffffffffffffffffffffffffffffffffffffff1916815590610dee6001830182610fd8565b610dfc600283016000610fd8565b610e0a600383016000610fd8565b5060006004828101829055600583018290556006909201819055838152600360205260409020015415610e3c57600080fd5b7f0e10ee3ece1ddd5966cebc571a843f6af8abd1fa7b2ef3d7279c44873b1e7bf882604051610e6b9190611612565b60405180910390a1919050565b600081604051602001610e8b919061128e565b604051602081830303815290604052805190602001209050919050565b6000610eb5826001610ebb565b92915050565b600082820183811015610ee35760405160e560020a62461bcd02815260040161022c90611369565b9392505050565b60405180606001604052806000600160a060020a0316815260200160608152602001600081525090565b6040518060e001604052806000600160a060020a031681526020016060815260200160608152602001606081526020016000815260200160008152602001600081525090565b828054600181600116156101000203166002900490600052602060002090601f016020900481019282601f10610f9b57805160ff1916838001178555610fc8565b82800160010185558215610fc8579182015b82811115610fc8578251825591602001919060010190610fad565b50610fd492915061101f565b5090565b50805460018160011615610100020316600290046000825580601f10610ffe575061101c565b601f01602090049060005260206000209081019061101c919061101f565b50565b5b80821115610fd45760008155600101611020565b600082601f830112611044578081fd5b813567ffffffffffffffff8082111561105b578283fd5b604051601f8301601f19168101602001828111828210171561107b578485fd5b60405282815292508284830160200186101561109657600080fd5b8260208601602083013760006020848301015250505092915050565b6000602082840312156110c3578081fd5b8135600160a060020a0381168114610ee3578182fd5b6000602082840312156110ea578081fd5b813567ffffffffffffffff811115611100578182fd5b61110c84828501611034565b949350505050565b600080600080600060a0868803121561112b578081fd5b853567ffffffffffffffff80821115611142578283fd5b61114e89838a01611034565b96506020880135915080821115611163578283fd5b61116f89838a01611034565b95506040880135915080821115611184578283fd5b5061119188828901611034565b9598949750949560608101359550608001359392505050565b6000602082840312156111bb578081fd5b5035919050565b60008060008060008060c087890312156111da578081fd5b86359550602087013567ffffffffffffffff808211156111f8578283fd5b6112048a838b01611034565b96506040890135915080821115611219578283fd5b6112258a838b01611034565b9550606089013591508082111561123a578283fd5b5061124789828a01611034565b9350506080870135915060a087013590509295509295509295565b6000815180845261127a81602086016020860161161b565b601f01601f19169290920160200192915050565b600082516112a081846020870161161b565b9190910192915050565b600160a060020a0391909116815260200190565b6000600160a060020a0385168252606060208301526112e06060830185611262565b9050826040830152949350505050565b901515815260200190565b60208082526016908201527f496e7075742063616e206e6f7420626520626c616e6b00000000000000000000604082015260600190565b60208082526018908201527f557365722068617320616c726561647920657869737465640000000000000000604082015260600190565b6020808252601b908201527f536166654d6174683a206164646974696f6e206f766572666c6f770000000000604082015260600190565b60208082526011908201527f4e6f7420612076616c6964206f776e6572000000000000000000000000000000604082015260600190565b6020808252600f908201527f496e76616c696420686173682069640000000000000000000000000000000000604082015260600190565b60208082526013908201527f5573657220646f6573206e6f7420657869737400000000000000000000000000604082015260600190565b6020808252602b908201527f4f6e6c792076616c6964206f776e657220697320616c6c6f77656420746f206560408201527f6469742070726f64756374000000000000000000000000000000000000000000606082015260800190565b60208082526017908201527f50726f6475637420646f6573206e6f7420657869737421000000000000000000604082015260600190565b6020808252602d908201527f4f6e6c792076616c6964206f776e657220697320616c6c6f77656420746f206460408201527f656c6574652070726f6475637400000000000000000000000000000000000000606082015260800190565b600060208252600160a060020a038351166020830152602083015160e06040840152611566610100840182611262565b90506040840151601f19808584030160608601526115848383611262565b92506060860151915080858403016080860152506115a28282611262565b915050608084015160a084015260a084015160c084015260c084015160e08401528091505092915050565b600060208252600160a060020a0383511660208301526020830151606060408401526115fc6080840182611262565b9050604084015160608401528091505092915050565b90815260200190565b60005b8381101561163657818101518382015260200161161e565b83811115611645576000848401525b5050505056fea2646970667358221220669faa81682c5eba83a47c698ffe2124a790612c82efa49ad95a36729b18239764736f6c63430007000033",
  "immutableReferences": {},
  "source": "// \"SPDX-License-Identifier: Unlicensed\"\r\npragma experimental ABIEncoderV2;\r\npragma solidity ^0.7.0;\r\n\r\nimport \"./Openzepplin/SafeMath.sol\";\r\nimport \"./User.sol\";\r\n\r\ncontract Test is UserContract {\r\n    using SafeMath for uint;\r\n    \r\n    mapping(uint => Product) private products;\r\n\r\n    uint public productCount;\r\n    \r\n    struct Product {\r\n        address payable _seller;\r\n        string _productName;\r\n        string _description;\r\n        string _type;\r\n        uint _productID;\r\n        uint _price;\r\n        uint _quantity;\r\n    }\r\n    \r\n    // Events\r\n    event NewProductCreated(uint _id);\r\n    event DeleteProduct(uint _id);\r\n    \r\n    // Create new product\r\n    function createNewProduct(\r\n        string memory _productName,\r\n        string memory _description,\r\n        string memory _type,\r\n        uint _price,\r\n        uint _quantity\r\n    ) \r\n        external returns(uint) \r\n    {\r\n        address payable _seller = msg.sender;\r\n        require(users[_seller]._id > 0, \"User does not exist\");\r\n        require(\r\n            encode(_productName) != encode('') ||\r\n            encode(_description) != encode('') ||\r\n            encode(_type) != encode(''),\r\n            \"Input can not be blank\"\r\n        );\r\n\r\n        // increment product count\r\n        productCount = incrementCounter(productCount);\r\n        \r\n        Product memory _newProduct = Product(\r\n            msg.sender, _productName, _description, _type, productCount, _price, _quantity\r\n        );\r\n        products[productCount] = _newProduct;\r\n        emit NewProductCreated(productCount);\r\n    }\r\n    \r\n    // Update an existing product\r\n    function updateProduct(\r\n        uint _productID, \r\n        string memory _productName,\r\n        string memory _description,\r\n        string memory _type,\r\n        uint _price,\r\n        uint _quantity\r\n    ) \r\n        external returns(bool) \r\n    {\r\n        require(products[_productID]._productID > 0, \"Product does not exist!\");\r\n        require(\r\n            msg.sender == products[_productID]._seller, \r\n            \"Only valid owner is allowed to edit product\"\r\n        );\r\n        require(\r\n            encode(_productName) != encode('') ||\r\n            encode(_description) != encode('') ||\r\n            encode(_type) != encode(''),\r\n            \"Input can not be blank\"\r\n        );\r\n        \r\n        products[_productID] = Product(\r\n            msg.sender, _productName, _description, _type, productCount, _price, _quantity\r\n        );\r\n    }\r\n    \r\n    // Delete existing product\r\n    function deleteProduct(uint _productID) public returns(bool) {\r\n        require(products[_productID]._productID > 0, \"Product does not exist!\");\r\n        require(\r\n            msg.sender == products[_productID]._seller, \r\n            \"Only valid owner is allowed to delete product\"\r\n        );\r\n        delete products[_productID];\r\n        require(products[_productID]._productID == 0);\r\n        emit DeleteProduct(_productID);\r\n    }\r\n    \r\n    // Delete account\r\n    function deleteUserAccount() external {\r\n        require(users[msg.sender]._id > 0, \"User does not exist\");\r\n\r\n        for(uint i = 1; i <= productCount; i++) {\r\n            if(products[i]._seller == msg.sender) delete products[i];\r\n        }\r\n        delete users[msg.sender];\r\n    }\r\n\r\n    // find product\r\n    function findProduct(uint _id) public view returns(Product memory) {\r\n        require(products[_id]._productID != 0, \"Product does not exist!\");\r\n        return products[_id];\r\n    }\r\n\r\n    // Product count\r\n    function getProductCount() public view returns(uint) {\r\n        return productCount;\r\n    }\r\n}\r\n\r\n// 0xBf9C6e1579523cA2400E46Fa20606Cd4e2b396c6",
  "sourcePath": "C:/Users/DragonLord/Desktop/dApp/Handler Bazzar/Backend/contracts/Test.sol",
  "compiler": {
    "name": "solc",
    "version": "0.7.0+commit.9e61f92b.Emscripten.clang"
  },
  "schemaVersion": "3.2.3",
  "updatedAt": "2020-09-18T19:41:43.600Z",
  "devdoc": {
    "kind": "dev",
    "methods": {},
    "version": 1
  },
  "userdoc": {
    "kind": "user",
    "methods": {},
    "version": 1
  }
}