{
  "contractName": "UserContract",
  "abi": [
    {
      "anonymous": false,
      "inputs": [
        {
          "indexed": true,
          "internalType": "uint256",
          "name": "_id",
          "type": "uint256"
        }
      ],
      "name": "NewSellerCreated",
      "type": "event"
    },
    {
      "inputs": [],
      "name": "admin",
      "outputs": [
        {
          "internalType": "address payable",
          "name": "",
          "type": "address"
        }
      ],
      "stateMutability": "view",
      "type": "function"
    },
    {
      "inputs": [
        {
          "internalType": "address",
          "name": "",
          "type": "address"
        }
      ],
      "name": "users",
      "outputs": [
        {
          "internalType": "address payable",
          "name": "_account",
          "type": "address"
        },
        {
          "internalType": "string",
          "name": "_hashID",
          "type": "string"
        },
        {
          "internalType": "uint256",
          "name": "_id",
          "type": "uint256"
        }
      ],
      "stateMutability": "view",
      "type": "function"
    },
    {
      "inputs": [
        {
          "internalType": "address payable",
          "name": "_admin",
          "type": "address"
        }
      ],
      "name": "initialize",
      "outputs": [],
      "stateMutability": "nonpayable",
      "type": "function"
    },
    {
      "inputs": [
        {
          "internalType": "string",
          "name": "_hashID",
          "type": "string"
        }
      ],
      "name": "createNewAccount",
      "outputs": [
        {
          "internalType": "bool",
          "name": "",
          "type": "bool"
        }
      ],
      "stateMutability": "nonpayable",
      "type": "function"
    },
    {
      "inputs": [
        {
          "internalType": "string",
          "name": "_hashID",
          "type": "string"
        }
      ],
      "name": "updateAccountDetails",
      "outputs": [],
      "stateMutability": "nonpayable",
      "type": "function"
    },
    {
      "inputs": [
        {
          "internalType": "address",
          "name": "_account",
          "type": "address"
        }
      ],
      "name": "findUserByAddress",
      "outputs": [
        {
          "components": [
            {
              "internalType": "address payable",
              "name": "_account",
              "type": "address"
            },
            {
              "internalType": "string",
              "name": "_hashID",
              "type": "string"
            },
            {
              "internalType": "uint256",
              "name": "_id",
              "type": "uint256"
            }
          ],
          "internalType": "struct UserContract.User",
          "name": "",
          "type": "tuple"
        }
      ],
      "stateMutability": "view",
      "type": "function"
    }
  ],
  "bytecode": "0x608060405234801561001057600080fd5b5061131e806100206000396000f3fe608060405234801561001057600080fd5b50600436106100625760003560e01c806317b5c36d14610067578063a87430ba14610097578063c17ab5f0146100c9578063c4d66de8146100e5578063d628404414610101578063f851a44014610131575b600080fd5b610081600480360361007c9190810190610cf1565b61014f565b60405161008e91906111b7565b60405180910390f35b6100b160048036036100ac9190810190610cf1565b61032f565b6040516100c09392919061109e565b60405180910390f35b6100e360048036036100de9190810190610d43565b610411565b005b6100ff60048036036100fa9190810190610d1a565b610668565b005b61011b60048036036101169190810190610d43565b610793565b60405161012891906110dc565b60405180910390f35b610139610a42565b6040516101469190611083565b60405180910390f35b610157610b21565b6000603560008473ffffffffffffffffffffffffffffffffffffffff1673ffffffffffffffffffffffffffffffffffffffff16815260200190815260200160002060020154116101dc576040517f08c379a00000000000000000000000000000000000000000000000000000000081526004016101d390611197565b60405180910390fd5b603560008373ffffffffffffffffffffffffffffffffffffffff1673ffffffffffffffffffffffffffffffffffffffff1681526020019081526020016000206040518060600160405290816000820160009054906101000a900473ffffffffffffffffffffffffffffffffffffffff1673ffffffffffffffffffffffffffffffffffffffff1673ffffffffffffffffffffffffffffffffffffffff168152602001600182018054600181600116156101000203166002900480601f0160208091040260200160405190810160405280929190818152602001828054600181600116156101000203166002900480156103155780601f106102ea57610100808354040283529160200191610315565b820191906000526020600020905b8154815290600101906020018083116102f857829003601f168201915b505050505081526020016002820154815250509050919050565b60356020528060005260406000206000915090508060000160009054906101000a900473ffffffffffffffffffffffffffffffffffffffff1690806001018054600181600116156101000203166002900480601f0160208091040260200160405190810160405280929190818152602001828054600181600116156101000203166002900480156104015780601f106103d657610100808354040283529160200191610401565b820191906000526020600020905b8154815290600101906020018083116103e457829003601f168201915b5050505050908060020154905083565b60003390506000603560008373ffffffffffffffffffffffffffffffffffffffff1673ffffffffffffffffffffffffffffffffffffffff168152602001908152602001600020600201541161049b576040517f08c379a000000000000000000000000000000000000000000000000000000000815260040161049290611197565b60405180910390fd5b6104b360405180602001604052806000815250610a68565b61050084848080601f016020809104026020016040519081016040528093929190818152602001838380828437600081840152601f19601f82011690508083019250505050505050610a68565b1415610541576040517f08c379a000000000000000000000000000000000000000000000000000000000815260040161053890611177565b60405180910390fd5b603560008273ffffffffffffffffffffffffffffffffffffffff1673ffffffffffffffffffffffffffffffffffffffff16815260200190815260200160002060000160009054906101000a900473ffffffffffffffffffffffffffffffffffffffff1673ffffffffffffffffffffffffffffffffffffffff168173ffffffffffffffffffffffffffffffffffffffff1614610611576040517f08c379a000000000000000000000000000000000000000000000000000000000815260040161060890611137565b60405180910390fd5b8282603560008473ffffffffffffffffffffffffffffffffffffffff1673ffffffffffffffffffffffffffffffffffffffff1681526020019081526020016000206001019190610662929190610b58565b50505050565b600060019054906101000a900460ff16806106875750610686610a98565b5b8061069e57506000809054906101000a900460ff16155b6106dd576040517f08c379a00000000000000000000000000000000000000000000000000000000081526004016106d490611157565b60405180910390fd5b60008060019054906101000a900460ff16159050801561072d576001600060016101000a81548160ff02191690831515021790555060016000806101000a81548160ff0219169083151502179055505b81603460006101000a81548173ffffffffffffffffffffffffffffffffffffffff021916908373ffffffffffffffffffffffffffffffffffffffff160217905550801561078f5760008060016101000a81548160ff0219169083151502179055505b5050565b6000803390506000603560008373ffffffffffffffffffffffffffffffffffffffff1673ffffffffffffffffffffffffffffffffffffffff168152602001908152602001600020600201541461081e576040517f08c379a0000000000000000000000000000000000000000000000000000000008152600401610815906110f7565b60405180910390fd5b61083660405180602001604052806000815250610a68565b61088385858080601f016020809104026020016040519081016040528093929190818152602001838380828437600081840152601f19601f82011690508083019250505050505050610a68565b14156108c4576040517f08c379a00000000000000000000000000000000000000000000000000000000081526004016108bb90611177565b60405180910390fd5b6108cf603354610aaf565b6033819055506108dd610b21565b60405180606001604052808373ffffffffffffffffffffffffffffffffffffffff16815260200186868080601f016020809104026020016040519081016040528093929190818152602001838380828437600081840152601f19601f820116905080830192505050505050508152602001603354815250905080603560008473ffffffffffffffffffffffffffffffffffffffff1673ffffffffffffffffffffffffffffffffffffffff16815260200190815260200160002060008201518160000160006101000a81548173ffffffffffffffffffffffffffffffffffffffff021916908373ffffffffffffffffffffffffffffffffffffffff16021790555060208201518160010190805190602001906109f9929190610bd8565b50604082015181600201559050506033547fb993381ba8f4240ce3f7b76903ea25b60532c055966da6a88e3281d4dadde54460405160405180910390a260019250505092915050565b603460009054906101000a900473ffffffffffffffffffffffffffffffffffffffff1681565b600081604051602001610a7b919061106c565b604051602081830303815290604052805190602001209050919050565b6000803090506000813b9050600081149250505090565b6000610ac5600183610acc90919063ffffffff16565b9050919050565b600080828401905083811015610b17576040517f08c379a0000000000000000000000000000000000000000000000000000000008152600401610b0e90611117565b60405180910390fd5b8091505092915050565b6040518060600160405280600073ffffffffffffffffffffffffffffffffffffffff16815260200160608152602001600081525090565b828054600181600116156101000203166002900490600052602060002090601f016020900481019282601f10610b9957803560ff1916838001178555610bc7565b82800160010185558215610bc7579182015b82811115610bc6578235825591602001919060010190610bab565b5b509050610bd49190610c58565b5090565b828054600181600116156101000203166002900490600052602060002090601f016020900481019282601f10610c1957805160ff1916838001178555610c47565b82800160010185558215610c47579182015b82811115610c46578251825591602001919060010190610c2b565b5b509050610c549190610c58565b5090565b610c7a91905b80821115610c76576000816000905550600101610c5e565b5090565b90565b600081359050610c8c816112ba565b92915050565b600081359050610ca1816112d1565b92915050565b60008083601f840112610cb957600080fd5b8235905067ffffffffffffffff811115610cd257600080fd5b602083019150836001820283011115610cea57600080fd5b9250929050565b600060208284031215610d0357600080fd5b6000610d1184828501610c7d565b91505092915050565b600060208284031215610d2c57600080fd5b6000610d3a84828501610c92565b91505092915050565b60008060208385031215610d5657600080fd5b600083013567ffffffffffffffff811115610d7057600080fd5b610d7c85828601610ca7565b92509250509250929050565b610d918161122e565b82525050565b610da08161122e565b82525050565b610daf81611240565b82525050565b6000610dc0826111e4565b610dca8185611211565b9350610dda818560208601611276565b80840191505092915050565b6000610df1826111d9565b610dfb81856111ef565b9350610e0b818560208601611276565b610e14816112a9565b840191505092915050565b6000610e2a826111d9565b610e348185611200565b9350610e44818560208601611276565b610e4d816112a9565b840191505092915050565b6000610e65601883611200565b91507f557365722068617320616c7265616479206578697374656400000000000000006000830152602082019050919050565b6000610ea5601b83611200565b91507f536166654d6174683a206164646974696f6e206f766572666c6f7700000000006000830152602082019050919050565b6000610ee5601183611200565b91507f4e6f7420612076616c6964206f776e65720000000000000000000000000000006000830152602082019050919050565b6000610f25602e83611200565b91507f436f6e747261637420696e7374616e63652068617320616c726561647920626560008301527f656e20696e697469616c697a65640000000000000000000000000000000000006020830152604082019050919050565b6000610f8b600f83611200565b91507f496e76616c6964206861736820696400000000000000000000000000000000006000830152602082019050919050565b6000610fcb601383611200565b91507f5573657220646f6573206e6f74206578697374000000000000000000000000006000830152602082019050919050565b60006060830160008301516110166000860182610d88565b506020830151848203602086015261102e8282610de6565b9150506040830151611043604086018261104e565b508091505092915050565b6110578161126c565b82525050565b6110668161126c565b82525050565b60006110788284610db5565b915081905092915050565b60006020820190506110986000830184610d97565b92915050565b60006060820190506110b36000830186610d97565b81810360208301526110c58185610e1f565b90506110d4604083018461105d565b949350505050565b60006020820190506110f16000830184610da6565b92915050565b6000602082019050818103600083015261111081610e58565b9050919050565b6000602082019050818103600083015261113081610e98565b9050919050565b6000602082019050818103600083015261115081610ed8565b9050919050565b6000602082019050818103600083015261117081610f18565b9050919050565b6000602082019050818103600083015261119081610f7e565b9050919050565b600060208201905081810360008301526111b081610fbe565b9050919050565b600060208201905081810360008301526111d18184610ffe565b905092915050565b600081519050919050565b600081519050919050565b600082825260208201905092915050565b600082825260208201905092915050565b600081905092915050565b60006112278261124c565b9050919050565b60006112398261124c565b9050919050565b60008115159050919050565b600073ffffffffffffffffffffffffffffffffffffffff82169050919050565b6000819050919050565b60005b83811015611294578082015181840152602081019050611279565b838111156112a3576000848401525b50505050565b6000601f19601f8301169050919050565b6112c38161121c565b81146112ce57600080fd5b50565b6112da8161122e565b81146112e557600080fd5b5056fea2646970667358221220a3961761538dd8dbf6b47ec344acbc94bf370ec740a537541546a53c28c1156964736f6c63430006000033",
  "source": "// SPDX-License-Identifier: MIT\r\npragma experimental ABIEncoderV2;\r\npragma solidity >=0.4.22 <0.8.0;\r\n\r\nimport \"@openzeppelin/contracts-ethereum-package/contracts/access/Ownable.sol\";\r\nimport \"@openzeppelin/contracts-ethereum-package/contracts/math/SafeMath.sol\";\r\nimport \"@openzeppelin/contracts-ethereum-package/contracts/Initializable.sol\";\r\n\r\ncontract UserContract is Initializable {\r\n    using SafeMath for uint;\r\n    uint userCounter;\r\n    address payable public admin;\r\n\r\n\r\n    mapping(address => User) public users;\r\n    \r\n    // Structures\r\n    struct User {\r\n        address payable _account;\r\n        string _hashID;\r\n        uint _id;\r\n    }\r\n    \r\n    // Events\r\n    event NewSellerCreated(uint indexed _id);\r\n\r\n    function initialize(address payable _admin) initializer public {\r\n        admin = _admin;\r\n    }\r\n    \r\n    // Create new User\r\n    function createNewAccount(string calldata _hashID) external returns(bool) {\r\n        address payable _user = msg.sender;\r\n        require(users[_user]._id == 0, \"User has already existed\");\r\n        require(encode(_hashID) != encode(''), 'Invalid hash id');\r\n\r\n        userCounter = incrementCounter(userCounter);\r\n        \r\n        User memory _newUser = User(_user, _hashID, userCounter);\r\n        \r\n        users[_user] = _newUser;\r\n        emit NewSellerCreated(userCounter);\r\n        return true;\r\n    }\r\n    \r\n    // Update account details\r\n    function updateAccountDetails(string calldata _hashID) external {\r\n        address payable _account = msg.sender;\r\n        require(users[_account]._id > 0, \"User does not exist\");\r\n        require(encode(_hashID) != encode(''), 'Invalid hash id');\r\n        require(_account == users[_account]._account, 'Not a valid owner');\r\n\r\n        users[_account]._hashID = _hashID;\r\n    }\r\n\r\n    // Find user by address\r\n    function findUserByAddress(address _account) public view returns(User memory) {\r\n        require(users[_account]._id > 0, \"User does not exist\");\r\n        return users[_account];\r\n    }\r\n\r\n    // Increment seller's count\r\n    function incrementCounter(uint _count) internal pure returns(uint) {\r\n        return _count.add(1);\r\n    }\r\n\r\n    function encode(string memory _data) internal pure returns(bytes32) {\r\n        return keccak256(abi.encodePacked(_data));\r\n    }\r\n\r\n}\r\n\r\ncontract MyContract is UserContract {\r\n    using SafeMath for uint;\r\n    uint public productCount;\r\n    \r\n    mapping(uint => Product) private products;\r\n\r\n    struct Product {\r\n        address payable _seller;\r\n        string _productDetails;\r\n        uint _productId;\r\n    }\r\n    \r\n    // Events\r\n    event NewProductCreated(uint _id);\r\n    event DeleteProduct(uint _id);\r\n    \r\n    // Create new product\r\n    function createNewProduct(string calldata _productDetails) external {\r\n        address payable _seller = msg.sender;\r\n        findUserByAddress(_seller);\r\n        require(encode(_productDetails) != encode(''), \"Input can not be blank\");\r\n\r\n        // increment product count\r\n        productCount = incrementCounter(productCount);\r\n        \r\n        Product memory _newProduct = Product(_seller, _productDetails, productCount);\r\n        products[productCount] = _newProduct;\r\n        emit NewProductCreated(productCount);\r\n    }\r\n    \r\n    // Update an existing product\r\n    function updateProduct(uint _productId, string calldata _productDetails) external {\r\n        address payable _seller = msg.sender;\r\n        require(products[_productId]._productId > 0, \"Product does not exist!\");\r\n        require(\r\n            _seller == products[_productId]._seller, \r\n            \"Only valid owner is allowed to edit product\"\r\n        );\r\n        require(encode(_productDetails) != encode(''), \"Input can not be blank\");\r\n        \r\n        products[_productId] = Product(_seller, _productDetails, _productId);\r\n    }\r\n    \r\n    // Delete existing product\r\n    function deleteProduct(uint _productId) public returns(bool) {\r\n        address payable _seller = msg.sender;\r\n        require(products[_productId]._productId > 0, \"Product does not exist!\");\r\n        require(\r\n            _seller == products[_productId]._seller, \r\n            \"Only valid owner is allowed to delete product\"\r\n        );\r\n        delete products[_productId];\r\n        emit DeleteProduct(_productId);\r\n        assert(products[_productId]._productId == 0);\r\n    }\r\n    \r\n    // Delete account\r\n    function deleteUserAccount() external {\r\n        address payable _seller = msg.sender;\r\n        require(users[_seller]._id > 0, \"User does not exist\");\r\n\r\n        for(uint i = 1; i <= productCount; i++) {\r\n            if(products[i]._seller == _seller) delete products[i];\r\n        }\r\n        delete users[_seller];\r\n    }\r\n\r\n    // find product\r\n    function findProduct(uint _productId) public view returns(Product memory) {\r\n        require(products[_productId]._productId != 0, \"Product does not exist!\");\r\n        return products[_productId];\r\n    }\r\n}",
  "sourcePath": "/mnt/c/Users/DragonLord/Desktop/dApp/SilkRoad/Backend/contracts/MyContract.sol",
  "compiler": {
    "name": "solc",
    "version": "0.6.0+commit.26b70077.Emscripten.clang"
  },
  "schemaVersion": "3.2.3",
  "updatedAt": "2020-10-12T10:41:03.553Z",
  "devdoc": {
    "methods": {}
  },
  "userdoc": {
    "methods": {}
  }
}