{
  "contractName": "UserContract",
  "abi": [
    {
      "anonymous": false,
      "inputs": [
        {
          "indexed": true,
          "internalType": "uint256",
          "name": "_id",
          "type": "uint256"
        }
      ],
      "name": "NewSellerCreated",
      "type": "event"
    },
    {
      "anonymous": false,
      "inputs": [
        {
          "indexed": true,
          "internalType": "address",
          "name": "previousOwner",
          "type": "address"
        },
        {
          "indexed": true,
          "internalType": "address",
          "name": "newOwner",
          "type": "address"
        }
      ],
      "name": "OwnershipTransferred",
      "type": "event"
    },
    {
      "inputs": [],
      "name": "owner",
      "outputs": [
        {
          "internalType": "address payable",
          "name": "",
          "type": "address"
        }
      ],
      "stateMutability": "view",
      "type": "function"
    },
    {
      "inputs": [
        {
          "internalType": "address",
          "name": "",
          "type": "address"
        }
      ],
      "name": "users",
      "outputs": [
        {
          "internalType": "address payable",
          "name": "_account",
          "type": "address"
        },
        {
          "internalType": "string",
          "name": "_hashID",
          "type": "string"
        },
        {
          "internalType": "uint256",
          "name": "_id",
          "type": "uint256"
        }
      ],
      "stateMutability": "view",
      "type": "function"
    },
    {
      "inputs": [
        {
          "internalType": "string",
          "name": "_hashID",
          "type": "string"
        }
      ],
      "name": "createNewAccount",
      "outputs": [
        {
          "internalType": "bool",
          "name": "",
          "type": "bool"
        }
      ],
      "stateMutability": "nonpayable",
      "type": "function"
    },
    {
      "inputs": [
        {
          "internalType": "string",
          "name": "_hashID",
          "type": "string"
        }
      ],
      "name": "updateAccountDetails",
      "outputs": [],
      "stateMutability": "nonpayable",
      "type": "function"
    },
    {
      "inputs": [
        {
          "internalType": "address",
          "name": "_account",
          "type": "address"
        }
      ],
      "name": "findUserByAddress",
      "outputs": [
        {
          "components": [
            {
              "internalType": "address payable",
              "name": "_account",
              "type": "address"
            },
            {
              "internalType": "string",
              "name": "_hashID",
              "type": "string"
            },
            {
              "internalType": "uint256",
              "name": "_id",
              "type": "uint256"
            }
          ],
          "internalType": "struct UserContract.User",
          "name": "",
          "type": "tuple"
        }
      ],
      "stateMutability": "view",
      "type": "function"
    }
  ],
  "bytecode": "0x608060405234801561001057600080fd5b50336000806101000a81548173ffffffffffffffffffffffffffffffffffffffff021916908373ffffffffffffffffffffffffffffffffffffffff16021790555060008054906101000a900473ffffffffffffffffffffffffffffffffffffffff1673ffffffffffffffffffffffffffffffffffffffff16600073ffffffffffffffffffffffffffffffffffffffff167f8be0079c531659141344cd1fd0a4f28419497f9722a3daafe3b4186f6b6457e060405160405180910390a3610fef806100db6000396000f3fe608060405234801561001057600080fd5b50600436106100575760003560e01c806317b5c36d1461005c5780638da5cb5b1461008c578063a87430ba146100aa578063c17ab5f0146100dc578063d6284044146100f8575b600080fd5b61007660048036038101906100719190610a2f565b610128565b6040516100839190610e42565b60405180910390f35b610094610308565b6040516100a19190610d2e565b60405180910390f35b6100c460048036038101906100bf9190610a2f565b610331565b6040516100d393929190610d49565b60405180910390f35b6100f660048036038101906100f19190610a58565b610413565b005b610112600480360381019061010d9190610a58565b61062a565b60405161011f9190610d87565b60405180910390f35b6101306108f2565b6000600160008473ffffffffffffffffffffffffffffffffffffffff1673ffffffffffffffffffffffffffffffffffffffff16815260200190815260200160002060020154116101b5576040517f08c379a00000000000000000000000000000000000000000000000000000000081526004016101ac90610e22565b60405180910390fd5b600160008373ffffffffffffffffffffffffffffffffffffffff1673ffffffffffffffffffffffffffffffffffffffff1681526020019081526020016000206040518060600160405290816000820160009054906101000a900473ffffffffffffffffffffffffffffffffffffffff1673ffffffffffffffffffffffffffffffffffffffff1673ffffffffffffffffffffffffffffffffffffffff168152602001600182018054600181600116156101000203166002900480601f0160208091040260200160405190810160405280929190818152602001828054600181600116156101000203166002900480156102ee5780601f106102c3576101008083540402835291602001916102ee565b820191906000526020600020905b8154815290600101906020018083116102d157829003601f168201915b505050505081526020016002820154815250509050919050565b60008060009054906101000a900473ffffffffffffffffffffffffffffffffffffffff16905090565b60016020528060005260406000206000915090508060000160009054906101000a900473ffffffffffffffffffffffffffffffffffffffff1690806001018054600181600116156101000203166002900480601f0160208091040260200160405190810160405280929190818152602001828054600181600116156101000203166002900480156104035780601f106103d857610100808354040283529160200191610403565b820191906000526020600020905b8154815290600101906020018083116103e657829003601f168201915b5050505050908060020154905083565b60003390506000600160008373ffffffffffffffffffffffffffffffffffffffff1673ffffffffffffffffffffffffffffffffffffffff168152602001908152602001600020600201541161049d576040517f08c379a000000000000000000000000000000000000000000000000000000000815260040161049490610e22565b60405180910390fd5b6104b560405180602001604052806000815250610850565b6104be83610850565b14156104ff576040517f08c379a00000000000000000000000000000000000000000000000000000000081526004016104f690610e02565b60405180910390fd5b600160008273ffffffffffffffffffffffffffffffffffffffff1673ffffffffffffffffffffffffffffffffffffffff16815260200190815260200160002060000160009054906101000a900473ffffffffffffffffffffffffffffffffffffffff1673ffffffffffffffffffffffffffffffffffffffff168173ffffffffffffffffffffffffffffffffffffffff16146105cf576040517f08c379a00000000000000000000000000000000000000000000000000000000081526004016105c690610de2565b60405180910390fd5b81600160008373ffffffffffffffffffffffffffffffffffffffff1673ffffffffffffffffffffffffffffffffffffffff1681526020019081526020016000206001019080519060200190610625929190610929565b505050565b6000803390506000600160008373ffffffffffffffffffffffffffffffffffffffff1673ffffffffffffffffffffffffffffffffffffffff16815260200190815260200160002060020154146106b5576040517f08c379a00000000000000000000000000000000000000000000000000000000081526004016106ac90610da2565b60405180910390fd5b6106cd60405180602001604052806000815250610850565b6106d684610850565b1415610717576040517f08c379a000000000000000000000000000000000000000000000000000000000815260040161070e90610e02565b60405180910390fd5b610722600254610880565b6002819055506107306108f2565b60405180606001604052808373ffffffffffffffffffffffffffffffffffffffff168152602001858152602001600254815250905080600160008473ffffffffffffffffffffffffffffffffffffffff1673ffffffffffffffffffffffffffffffffffffffff16815260200190815260200160002060008201518160000160006101000a81548173ffffffffffffffffffffffffffffffffffffffff021916908373ffffffffffffffffffffffffffffffffffffffff1602179055506020820151816001019080519060200190610808929190610929565b50604082015181600201559050506002547fb993381ba8f4240ce3f7b76903ea25b60532c055966da6a88e3281d4dadde54460405160405180910390a2600192505050919050565b6000816040516020016108639190610d17565b604051602081830303815290604052805190602001209050919050565b600061089660018361089d90919063ffffffff16565b9050919050565b6000808284019050838110156108e8576040517f08c379a00000000000000000000000000000000000000000000000000000000081526004016108df90610dc2565b60405180910390fd5b8091505092915050565b6040518060600160405280600073ffffffffffffffffffffffffffffffffffffffff16815260200160608152602001600081525090565b828054600181600116156101000203166002900490600052602060002090601f016020900481019282601f1061096a57805160ff1916838001178555610998565b82800160010185558215610998579182015b8281111561099757825182559160200191906001019061097c565b5b5090506109a591906109a9565b5090565b5b808211156109c25760008160009055506001016109aa565b5090565b6000813590506109d581610fa2565b92915050565b600082601f8301126109ec57600080fd5b81356109ff6109fa82610e91565b610e64565b91508082526020830160208301858383011115610a1b57600080fd5b610a26838284610f4f565b50505092915050565b600060208284031215610a4157600080fd5b6000610a4f848285016109c6565b91505092915050565b600060208284031215610a6a57600080fd5b600082013567ffffffffffffffff811115610a8457600080fd5b610a90848285016109db565b91505092915050565b610aa281610f07565b82525050565b610ab181610f07565b82525050565b610ac081610f19565b82525050565b6000610ad182610ebd565b610adb8185610ec8565b9350610aeb818560208601610f5e565b610af481610f91565b840191505092915050565b6000610b0a82610ebd565b610b148185610ed9565b9350610b24818560208601610f5e565b610b2d81610f91565b840191505092915050565b6000610b4382610ebd565b610b4d8185610eea565b9350610b5d818560208601610f5e565b80840191505092915050565b6000610b76601883610ed9565b91507f557365722068617320616c7265616479206578697374656400000000000000006000830152602082019050919050565b6000610bb6601b83610ed9565b91507f536166654d6174683a206164646974696f6e206f766572666c6f7700000000006000830152602082019050919050565b6000610bf6601183610ed9565b91507f4e6f7420612076616c6964206f776e65720000000000000000000000000000006000830152602082019050919050565b6000610c36600f83610ed9565b91507f496e76616c6964206861736820696400000000000000000000000000000000006000830152602082019050919050565b6000610c76601383610ed9565b91507f5573657220646f6573206e6f74206578697374000000000000000000000000006000830152602082019050919050565b6000606083016000830151610cc16000860182610a99565b5060208301518482036020860152610cd98282610ac6565b9150506040830151610cee6040860182610cf9565b508091505092915050565b610d0281610f45565b82525050565b610d1181610f45565b82525050565b6000610d238284610b38565b915081905092915050565b6000602082019050610d436000830184610aa8565b92915050565b6000606082019050610d5e6000830186610aa8565b8181036020830152610d708185610aff565b9050610d7f6040830184610d08565b949350505050565b6000602082019050610d9c6000830184610ab7565b92915050565b60006020820190508181036000830152610dbb81610b69565b9050919050565b60006020820190508181036000830152610ddb81610ba9565b9050919050565b60006020820190508181036000830152610dfb81610be9565b9050919050565b60006020820190508181036000830152610e1b81610c29565b9050919050565b60006020820190508181036000830152610e3b81610c69565b9050919050565b60006020820190508181036000830152610e5c8184610ca9565b905092915050565b6000604051905081810181811067ffffffffffffffff82111715610e8757600080fd5b8060405250919050565b600067ffffffffffffffff821115610ea857600080fd5b601f19601f8301169050602081019050919050565b600081519050919050565b600082825260208201905092915050565b600082825260208201905092915050565b600081905092915050565b6000610f0082610f25565b9050919050565b6000610f1282610f25565b9050919050565b60008115159050919050565b600073ffffffffffffffffffffffffffffffffffffffff82169050919050565b6000819050919050565b82818337600083830152505050565b60005b83811015610f7c578082015181840152602081019050610f61565b83811115610f8b576000848401525b50505050565b6000601f19601f8301169050919050565b610fab81610ef5565b8114610fb657600080fd5b5056fea264697066735822122096d85fe380dd6bdb08388f28679288e6f7f02435125a7d7236ca369270df3ea364736f6c63430007000033",
  "immutableReferences": {},
  "source": "// SPDX-License-Identifier: MIT\r\npragma experimental ABIEncoderV2;\r\npragma solidity ^0.7.0;\r\n\r\n// import \"./User.sol\";\r\nimport \"./Openzepplin/Ownable.sol\";\r\nimport \"./Openzepplin/SafeMath.sol\";\r\n\r\ncontract UserContract is Ownable {\r\n    using SafeMath for uint;\r\n\r\n    mapping(address => User) public users;\r\n    uint userCounter;\r\n    \r\n    // Structures\r\n    struct User {\r\n        address payable _account;\r\n        string _hashID;\r\n        uint _id;\r\n    }\r\n    \r\n    // Events\r\n    event NewSellerCreated(uint indexed _id);\r\n    // event AccountDeleted(User _user);\r\n    \r\n\r\n    // Create new User\r\n    function createNewAccount(string memory _hashID) external returns(bool) {\r\n        address payable _user = msg.sender;\r\n        require(users[_user]._id == 0, \"User has already existed\");\r\n        require(encode(_hashID) != encode(''), 'Invalid hash id');\r\n\r\n        userCounter = incrementCounter(userCounter);\r\n        \r\n        User memory _newUser = User(_user, _hashID, userCounter);\r\n        \r\n        users[_user] = _newUser;\r\n        emit NewSellerCreated(userCounter);\r\n        return true;\r\n    }\r\n    \r\n    // Update account details\r\n    function updateAccountDetails(string memory _hashID) external {\r\n        address payable _account = msg.sender;\r\n        require(users[_account]._id > 0, \"User does not exist\");\r\n        require(encode(_hashID) != encode(''), 'Invalid hash id');\r\n        require(_account == users[_account]._account, 'Not a valid owner');\r\n\r\n        users[_account]._hashID = _hashID;\r\n    }\r\n\r\n    // Find user by address\r\n    function findUserByAddress(address _account) public view returns(User memory) {\r\n        require(users[_account]._id > 0, \"User does not exist\");\r\n        return users[_account];\r\n    }\r\n\r\n    // Increment seller's count\r\n    function incrementCounter(uint _count) internal pure returns(uint) {\r\n        return _count.add(1);\r\n    }\r\n\r\n    function encode(string memory _data) internal pure returns(bytes32) {\r\n        return keccak256(abi.encodePacked(_data));\r\n    }\r\n\r\n}\r\n\r\ncontract MyContract is UserContract {\r\n    using SafeMath for uint;\r\n    \r\n    mapping(uint => Product) private products;\r\n\r\n    uint public productCount;\r\n    \r\n    struct Product {\r\n        address payable _seller;\r\n        string _productDetails;\r\n        uint _productId;\r\n    }\r\n    \r\n    // Events\r\n    event NewProductCreated(uint _id);\r\n    event DeleteProduct(uint _id);\r\n    \r\n    // Create new product\r\n    function createNewProduct(string memory _productDetails) external {\r\n        address payable _seller = msg.sender;\r\n        require(users[_seller]._id > 0, \"User does not exist\");\r\n        require(encode(_productDetails) != encode(''), \"Input can not be blank\");\r\n\r\n        // increment product count\r\n        productCount = incrementCounter(productCount);\r\n        \r\n        Product memory _newProduct = Product(msg.sender, _productDetails, productCount);\r\n        products[productCount] = _newProduct;\r\n        emit NewProductCreated(productCount);\r\n    }\r\n    \r\n    // Update an existing product\r\n    function updateProduct(uint _productId, string memory _productDetails) external {\r\n        require(products[_productId]._productId > 0, \"Product does not exist!\");\r\n        require(\r\n            msg.sender == products[_productId]._seller, \r\n            \"Only valid owner is allowed to edit product\"\r\n        );\r\n        require(encode(_productDetails) != encode(''), \"Input can not be blank\");\r\n        \r\n        products[_productId] = Product(msg.sender, _productDetails, _productId);\r\n    }\r\n    \r\n    // Delete existing product\r\n    function deleteProduct(uint _productId) public returns(bool) {\r\n        require(products[_productId]._productId > 0, \"Product does not exist!\");\r\n        require(\r\n            msg.sender == products[_productId]._seller, \r\n            \"Only valid owner is allowed to delete product\"\r\n        );\r\n        delete products[_productId];\r\n        require(products[_productId]._productId == 0);\r\n        emit DeleteProduct(_productId);\r\n    }\r\n    \r\n    // Delete account\r\n    function deleteUserAccount() external {\r\n        require(users[msg.sender]._id > 0, \"User does not exist\");\r\n\r\n        for(uint i = 1; i <= productCount; i++) {\r\n            if(products[i]._seller == msg.sender) delete products[i];\r\n        }\r\n        delete users[msg.sender];\r\n    }\r\n\r\n    // find product\r\n    function findProduct(uint _productId) public view returns(Product memory) {\r\n        require(products[_productId]._productId != 0, \"Product does not exist!\");\r\n        return products[_productId];\r\n    }\r\n\r\n    // Product count\r\n    function getProductCount() public view returns(uint) {\r\n        return productCount;\r\n    }\r\n}",
  "sourcePath": "C:/Users/DragonLord/Desktop/dApp/SilkRoad/Backend/contracts/MyContract.sol",
  "compiler": {
    "name": "solc",
    "version": "0.7.0+commit.9e61f92b.Emscripten.clang"
  },
  "schemaVersion": "3.2.3",
  "updatedAt": "2020-09-21T09:26:21.459Z",
  "devdoc": {
    "kind": "dev",
    "methods": {},
    "version": 1
  },
  "userdoc": {
    "kind": "user",
    "methods": {},
    "version": 1
  }
}