{
  "contractName": "UserContract",
  "abi": [
    {
      "anonymous": false,
      "inputs": [
        {
          "indexed": true,
          "internalType": "uint256",
          "name": "id",
          "type": "uint256"
        }
      ],
      "name": "NewSellerCreated",
      "type": "event"
    },
    {
      "inputs": [
        {
          "internalType": "address",
          "name": "",
          "type": "address"
        }
      ],
      "name": "users",
      "outputs": [
        {
          "internalType": "address payable",
          "name": "user",
          "type": "address"
        },
        {
          "internalType": "string",
          "name": "details",
          "type": "string"
        },
        {
          "internalType": "uint256",
          "name": "id",
          "type": "uint256"
        }
      ],
      "stateMutability": "view",
      "type": "function"
    },
    {
      "inputs": [
        {
          "internalType": "string",
          "name": "_details",
          "type": "string"
        }
      ],
      "name": "createNewAccount",
      "outputs": [],
      "stateMutability": "nonpayable",
      "type": "function"
    },
    {
      "inputs": [
        {
          "internalType": "string",
          "name": "_details",
          "type": "string"
        }
      ],
      "name": "updateAccountDetails",
      "outputs": [],
      "stateMutability": "nonpayable",
      "type": "function"
    },
    {
      "inputs": [
        {
          "internalType": "address",
          "name": "_user",
          "type": "address"
        }
      ],
      "name": "findUserByAddress",
      "outputs": [
        {
          "components": [
            {
              "internalType": "address payable",
              "name": "user",
              "type": "address"
            },
            {
              "internalType": "string",
              "name": "details",
              "type": "string"
            },
            {
              "internalType": "uint256",
              "name": "id",
              "type": "uint256"
            }
          ],
          "internalType": "struct UserContract.User",
          "name": "",
          "type": "tuple"
        }
      ],
      "stateMutability": "view",
      "type": "function"
    }
  ],
  "bytecode": "0x608060405234801561001057600080fd5b50610fb1806100206000396000f3fe608060405234801561001057600080fd5b506004361061004c5760003560e01c806317b5c36d14610051578063a87430ba14610081578063c17ab5f0146100b3578063d6284044146100cf575b600080fd5b61006b60048036036100669190810190610a37565b6100eb565b6040516100789190610e05565b60405180910390f35b61009b60048036036100969190810190610a37565b6102cb565b6040516100aa93929190610d27565b60405180910390f35b6100cd60048036036100c89190810190610a60565b6103ad565b005b6100e960048036036100e49190810190610a60565b6105c4565b005b6100f3610872565b6000600260008473ffffffffffffffffffffffffffffffffffffffff1673ffffffffffffffffffffffffffffffffffffffff1681526020019081526020016000206002015411610178576040517f08c379a000000000000000000000000000000000000000000000000000000000815260040161016f90610de5565b60405180910390fd5b600260008373ffffffffffffffffffffffffffffffffffffffff1673ffffffffffffffffffffffffffffffffffffffff1681526020019081526020016000206040518060600160405290816000820160009054906101000a900473ffffffffffffffffffffffffffffffffffffffff1673ffffffffffffffffffffffffffffffffffffffff1673ffffffffffffffffffffffffffffffffffffffff168152602001600182018054600181600116156101000203166002900480601f0160208091040260200160405190810160405280929190818152602001828054600181600116156101000203166002900480156102b15780601f10610286576101008083540402835291602001916102b1565b820191906000526020600020905b81548152906001019060200180831161029457829003601f168201915b505050505081526020016002820154815250509050919050565b60026020528060005260406000206000915090508060000160009054906101000a900473ffffffffffffffffffffffffffffffffffffffff1690806001018054600181600116156101000203166002900480601f01602080910402602001604051908101604052809291908181526020018280546001816001161561010002031660029004801561039d5780601f106103725761010080835404028352916020019161039d565b820191906000526020600020905b81548152906001019060200180831161038057829003601f168201915b5050505050908060020154905083565b60003390506000600260008373ffffffffffffffffffffffffffffffffffffffff1673ffffffffffffffffffffffffffffffffffffffff1681526020019081526020016000206002015411610437576040517f08c379a000000000000000000000000000000000000000000000000000000000815260040161042e90610de5565b60405180910390fd5b61044f604051806020016040528060008152506107ed565b610458836107ed565b1415610499576040517f08c379a000000000000000000000000000000000000000000000000000000000815260040161049090610da5565b60405180910390fd5b600260008273ffffffffffffffffffffffffffffffffffffffff1673ffffffffffffffffffffffffffffffffffffffff16815260200190815260200160002060000160009054906101000a900473ffffffffffffffffffffffffffffffffffffffff1673ffffffffffffffffffffffffffffffffffffffff168173ffffffffffffffffffffffffffffffffffffffff1614610569576040517f08c379a000000000000000000000000000000000000000000000000000000000815260040161056090610dc5565b60405180910390fd5b81600260008373ffffffffffffffffffffffffffffffffffffffff1673ffffffffffffffffffffffffffffffffffffffff16815260200190815260200160002060010190805190602001906105bf9291906108a9565b505050565b60003390506000600260008373ffffffffffffffffffffffffffffffffffffffff1673ffffffffffffffffffffffffffffffffffffffff168152602001908152602001600020600201541461064e576040517f08c379a000000000000000000000000000000000000000000000000000000000815260040161064590610d65565b60405180910390fd5b610666604051806020016040528060008152506107ed565b61066f836107ed565b14156106b0576040517f08c379a00000000000000000000000000000000000000000000000000000000081526004016106a790610da5565b60405180910390fd5b6106c56001805461081d90919063ffffffff16565b6001819055506106d3610872565b60405180606001604052808373ffffffffffffffffffffffffffffffffffffffff168152602001848152602001600154815250905080600260008473ffffffffffffffffffffffffffffffffffffffff1673ffffffffffffffffffffffffffffffffffffffff16815260200190815260200160002060008201518160000160006101000a81548173ffffffffffffffffffffffffffffffffffffffff021916908373ffffffffffffffffffffffffffffffffffffffff16021790555060208201518160010190805190602001906107ab929190610929565b50604082015181600201559050506001547fb993381ba8f4240ce3f7b76903ea25b60532c055966da6a88e3281d4dadde54460405160405180910390a2505050565b6000816040516020016108009190610d10565b604051602081830303815290604052805190602001209050919050565b600080828401905083811015610868576040517f08c379a000000000000000000000000000000000000000000000000000000000815260040161085f90610d85565b60405180910390fd5b8091505092915050565b6040518060600160405280600073ffffffffffffffffffffffffffffffffffffffff16815260200160608152602001600081525090565b828054600181600116156101000203166002900490600052602060002090601f016020900481019282601f106108ea57805160ff1916838001178555610918565b82800160010185558215610918579182015b828111156109175782518255916020019190600101906108fc565b5b50905061092591906109a9565b5090565b828054600181600116156101000203166002900490600052602060002090601f016020900481019282601f1061096a57805160ff1916838001178555610998565b82800160010185558215610998579182015b8281111561099757825182559160200191906001019061097c565b5b5090506109a591906109a9565b5090565b6109cb91905b808211156109c75760008160009055506001016109af565b5090565b90565b6000813590506109dd81610f64565b92915050565b600082601f8301126109f457600080fd5b8135610a07610a0282610e54565b610e27565b91508082526020830160208301858383011115610a2357600080fd5b610a2e838284610f11565b50505092915050565b600060208284031215610a4957600080fd5b6000610a57848285016109ce565b91505092915050565b600060208284031215610a7257600080fd5b600082013567ffffffffffffffff811115610a8c57600080fd5b610a98848285016109e3565b91505092915050565b610aaa81610ed5565b82525050565b610ab981610ed5565b82525050565b6000610aca82610e8b565b610ad48185610eb8565b9350610ae4818560208601610f20565b80840191505092915050565b6000610afb82610e80565b610b058185610e96565b9350610b15818560208601610f20565b610b1e81610f53565b840191505092915050565b6000610b3482610e80565b610b3e8185610ea7565b9350610b4e818560208601610f20565b610b5781610f53565b840191505092915050565b6000610b6f601883610ea7565b91507f557365722068617320616c7265616479206578697374656400000000000000006000830152602082019050919050565b6000610baf601b83610ea7565b91507f536166654d6174683a206164646974696f6e206f766572666c6f7700000000006000830152602082019050919050565b6000610bef601b83610ea7565b91507f44617461206669656c642063616e206e6f7420626520656d70747900000000006000830152602082019050919050565b6000610c2f601183610ea7565b91507f4e6f7420612076616c6964206f776e65720000000000000000000000000000006000830152602082019050919050565b6000610c6f601383610ea7565b91507f5573657220646f6573206e6f74206578697374000000000000000000000000006000830152602082019050919050565b6000606083016000830151610cba6000860182610aa1565b5060208301518482036020860152610cd28282610af0565b9150506040830151610ce76040860182610cf2565b508091505092915050565b610cfb81610f07565b82525050565b610d0a81610f07565b82525050565b6000610d1c8284610abf565b915081905092915050565b6000606082019050610d3c6000830186610ab0565b8181036020830152610d4e8185610b29565b9050610d5d6040830184610d01565b949350505050565b60006020820190508181036000830152610d7e81610b62565b9050919050565b60006020820190508181036000830152610d9e81610ba2565b9050919050565b60006020820190508181036000830152610dbe81610be2565b9050919050565b60006020820190508181036000830152610dde81610c22565b9050919050565b60006020820190508181036000830152610dfe81610c62565b9050919050565b60006020820190508181036000830152610e1f8184610ca2565b905092915050565b6000604051905081810181811067ffffffffffffffff82111715610e4a57600080fd5b8060405250919050565b600067ffffffffffffffff821115610e6b57600080fd5b601f19601f8301169050602081019050919050565b600081519050919050565b600081519050919050565b600082825260208201905092915050565b600082825260208201905092915050565b600081905092915050565b6000610ece82610ee7565b9050919050565b6000610ee082610ee7565b9050919050565b600073ffffffffffffffffffffffffffffffffffffffff82169050919050565b6000819050919050565b82818337600083830152505050565b60005b83811015610f3e578082015181840152602081019050610f23565b83811115610f4d576000848401525b50505050565b6000601f19601f8301169050919050565b610f6d81610ec3565b8114610f7857600080fd5b5056fea26469706673582212209fa694402a288e9ff72f016e219c65cd533b9a8e52b1776bf1ece00d30781a8164736f6c63430006000033",
  "source": "// SPDX-License-Identifier: MIT\r\npragma experimental ABIEncoderV2;\r\npragma solidity >=0.4.22 <0.8.0;\r\n\r\nimport \"@openzeppelin/contracts-ethereum-package/contracts/access/Ownable.sol\";\r\nimport \"@openzeppelin/contracts-ethereum-package/contracts/math/SafeMath.sol\";\r\nimport \"@openzeppelin/contracts-ethereum-package/contracts/Initializable.sol\";\r\n\r\ncontract UserContract {\r\n    using SafeMath for uint;\r\n    bool internal reEntrancyMutex;\r\n    uint userCounter;\r\n\r\n\r\n    mapping(address => User) public users;\r\n    \r\n    // Structures\r\n    struct User {\r\n        address payable user;\r\n        string details;\r\n        uint id;\r\n    }\r\n    \r\n    // Events\r\n    event NewSellerCreated(uint indexed id);\r\n    \r\n    // Create new User\r\n    function createNewAccount(string memory _details) public {\r\n        address payable _user = msg.sender;\r\n        require(users[_user].id == 0, \"User has already existed\");\r\n        require(encode(_details) != encode(''), \"Data field can not be empty\");\r\n\r\n        userCounter = userCounter.add(1);\r\n        User memory _newUser = User(_user, _details, userCounter);\r\n        users[_user] = _newUser;\r\n        emit NewSellerCreated(userCounter);\r\n    }\r\n    \r\n    // Update account details\r\n    function updateAccountDetails(string memory _details) public {\r\n        address payable _user = msg.sender;\r\n        require(users[_user].id > 0, \"User does not exist\");\r\n        require(encode(_details) != encode(''), \"Data field can not be empty\");\r\n        require(_user == users[_user].user, \"Not a valid owner\");\r\n\r\n        users[_user].details = _details;\r\n    }\r\n\r\n    // Find user by address\r\n    function findUserByAddress(address _user) public view returns(User memory) {\r\n        require(users[_user].id > 0, \"User does not exist\");\r\n        return users[_user];\r\n    }\r\n\r\n    function encode(string memory _data) internal pure returns(bytes32) {\r\n        return keccak256(abi.encodePacked(_data));\r\n    }\r\n\r\n}\r\n\r\ncontract ProductContract is UserContract {\r\n    using SafeMath for uint;\r\n    uint public productCount;\r\n    \r\n    mapping(uint => Product) private products;\r\n    mapping (address => Cart) public carts;\r\n    mapping(address => bool) public inCart;\r\n\r\n\r\n    struct Product {\r\n        address payable seller;\r\n        string details;\r\n        uint id;\r\n        uint price;\r\n        bool featured;\r\n    }\r\n\r\n    struct Cart {\r\n        address buyer;\r\n        string details;\r\n    }\r\n\r\n    // Events\r\n    event NewProductCreated(uint id);\r\n    event DeleteProduct(uint id);\r\n    \r\n    // Create new product\r\n    function createNewProduct(string memory _details, uint _price) public {\r\n        address payable _seller = msg.sender;\r\n        super.findUserByAddress(_seller);\r\n        require(encode(_details) != encode(\"\"), \"Data field can not be empty\");\r\n        require(_price > 0, \"Price must be above zero\");\r\n\r\n        // increment product count\r\n        productCount = productCount.add(1);\r\n        \r\n        Product memory _newProduct = Product(_seller, _details, productCount, _price, false);\r\n        products[productCount] = _newProduct;\r\n        emit NewProductCreated(productCount);\r\n    }\r\n    \r\n    // Update an existing product\r\n    function updateProduct(uint _id, uint _price, string memory _details) public {\r\n        address payable _seller = msg.sender;\r\n        require(findProduct(_id).id > 0, \"Product does not exist!\");\r\n        require(_seller == findProduct(_id).seller, \"Not a valid owner\");\r\n        require(encode(_details) != encode(\"\"), \"Data field can not be empty\");\r\n        require(_price > 0, \"Price must be above zero\");\r\n\r\n        bool _featured = findProduct(_id).featured;\r\n        \r\n        products[_id] = Product(_seller, _details, _id, _price, _featured);\r\n    }\r\n\r\n    // Add product to cart\r\n    function addProductToCart(string memory _details) public {\r\n        address _buyer = msg.sender;\r\n        findUserByAddress(_buyer);\r\n        require(inCart[_buyer] == false, \"Cannot override cart details directly\");\r\n        require(encode(_details) != encode(\"\"), \"Data field can not be empty\");\r\n        \r\n        Cart memory _newCart = Cart(_buyer, _details);\r\n        inCart[_buyer] = true;\r\n        carts[_buyer] = _newCart;\r\n    } \r\n\r\n    // Update cart product\r\n    function updateCartProduct(string memory _details) public {\r\n        address _buyer = msg.sender;\r\n        findCartProduct(_buyer);\r\n        require(encode(_details) != encode(\"\"), \"Data field can not be empty\");\r\n        carts[_buyer].details = _details;\r\n    }\r\n\r\n    // Remove product from cart\r\n    function removeProductFromCart() public {\r\n        address _buyer = msg.sender;\r\n        findCartProduct(_buyer);\r\n        inCart[_buyer] = false;\r\n        delete carts[_buyer];\r\n    }\r\n    \r\n    // find product\r\n    function findProduct(uint _id) public view returns(Product memory) {\r\n        require(products[_id].id != 0, \"Product does not exist!\");\r\n        return products[_id];\r\n    }\r\n\r\n    // Find cart product\r\n    function findCartProduct(address _buyer) public view returns(Cart memory) {\r\n        require(inCart[_buyer] == true, \"No cart detail found\");\r\n        return carts[_buyer];\r\n    }\r\n\r\n    // Delete existing product\r\n    function deleteProduct(uint _id) public returns(bool) {\r\n        address payable _seller = msg.sender;\r\n        require(products[_id].id > 0, \"Product does not exist!\");\r\n        require(\r\n            _seller == products[_id].seller, \r\n            \"Only valid owner is allowed to delete product\"\r\n        );\r\n        delete products[_id];\r\n        emit DeleteProduct(_id);\r\n        assert(products[_id].id == 0);\r\n    }\r\n    \r\n    // Delete account\r\n    function deleteUserAccount() public {\r\n        address payable _seller = msg.sender;\r\n        require(users[_seller].id > 0, \"User does not exist\");\r\n\r\n        for(uint i = 1; i <= productCount; i++) {\r\n            if(_seller == products[i].seller) delete products[i];\r\n        }\r\n        delete users[_seller];\r\n    }\r\n}\r\n\r\ncontract MyContract is Initializable, ProductContract {\r\n    using SafeMath for uint;\r\n    address payable public admin;\r\n    uint public featureProductRate;\r\n    uint public orderCount;\r\n\r\n    mapping(uint => Order) public orders;\r\n    mapping(uint => bool) public isFeaturedProduct;\r\n\r\n    \r\n    modifier onlyAdmin() {\r\n        require(msg.sender == admin);\r\n        _;\r\n    }\r\n\r\n    struct Order {\r\n        address buyer;\r\n        uint id;\r\n    }\r\n\r\n    // Events\r\n    event BuyProduct(uint id);\r\n\r\n    function initialize(address payable _admin) initializer public {\r\n        admin = _admin;\r\n        reEntrancyMutex = false;\r\n        featureProductRate = 5;\r\n    }\r\n\r\n    // Set feature product rate \r\n    function setFeatureProductRate(uint _rate) public onlyAdmin {\r\n        featureProductRate = _rate;\r\n    }\r\n\r\n    function calcFeatureProductRate(uint _id) public view returns(uint result) {\r\n        Product memory _product = super.findProduct(_id);\r\n        uint _price = _product.price;\r\n        result = _price.mul(featureProductRate.div(100));\r\n        return result;\r\n    }\r\n\r\n    // Feature products\r\n    function featureProduct(uint _id) public payable {\r\n        uint _amount = msg.value;\r\n        uint _price = calcFeatureProductRate(_id);\r\n\r\n        Product memory _product = findProduct(_id);\r\n\r\n        require(isFeaturedProduct[_id] == false, \"Product has already been featured\");\r\n        require(_amount >= _price, \"Not enough fund to proceed\");\r\n        require(msg.sender == _product.seller, \"Not a valid owner\");\r\n\r\n        uint _prevBalance = address(this).balance;\r\n\r\n        payable(address(this)).transfer(_amount);\r\n        uint _currBalance = address(this).balance;\r\n        assert(_currBalance >= _prevBalance.add(_amount));\r\n\r\n        isFeaturedProduct[_id] = true;\r\n\r\n        _product = Product(\r\n            _product.seller,\r\n            _product.details,\r\n            _product.id,\r\n            _product.price,\r\n            true\r\n        );\r\n    }\r\n\r\n    // Buy product\r\n    function buy(uint _id) public payable returns(uint) {\r\n        address _buyer = msg.sender;\r\n        uint _amount = msg.value;\r\n        uint _contractBalance = address(this).balance;\r\n\r\n        Product memory _product = findProduct(_id);\r\n        uint _price = _product.price;\r\n\r\n        require(_price >= _amount, \"Not enough balance\");\r\n\r\n        payable(address(this)).transfer(_amount);\r\n        assert(_contractBalance < _contractBalance.add(_amount));\r\n\r\n        orderCount = orderCount.add(1);\r\n        orders[orderCount] = Order(_buyer, orderCount);\r\n\r\n        emit BuyProduct(orderCount);\r\n    }\r\n}",
  "sourcePath": "/mnt/c/Users/DragonLord/Desktop/dApp/SilkRoad/Backend/contracts/MyContract.sol",
  "compiler": {
    "name": "solc",
    "version": "0.6.0+commit.26b70077.Emscripten.clang"
  },
  "schemaVersion": "3.2.3",
  "updatedAt": "2020-10-15T17:31:58.172Z",
  "devdoc": {
    "methods": {}
  },
  "userdoc": {
    "methods": {}
  }
}