{
  "contractName": "UserContract",
  "abi": [
    {
      "anonymous": false,
      "inputs": [
        {
          "indexed": true,
          "internalType": "uint256",
          "name": "_id",
          "type": "uint256"
        }
      ],
      "name": "NewSellerCreated",
      "type": "event"
    },
    {
      "anonymous": false,
      "inputs": [
        {
          "indexed": true,
          "internalType": "address",
          "name": "previousOwner",
          "type": "address"
        },
        {
          "indexed": true,
          "internalType": "address",
          "name": "newOwner",
          "type": "address"
        }
      ],
      "name": "OwnershipTransferred",
      "type": "event"
    },
    {
      "inputs": [],
      "name": "owner",
      "outputs": [
        {
          "internalType": "address payable",
          "name": "",
          "type": "address"
        }
      ],
      "stateMutability": "view",
      "type": "function",
      "constant": true
    },
    {
      "inputs": [
        {
          "internalType": "address",
          "name": "",
          "type": "address"
        }
      ],
      "name": "users",
      "outputs": [
        {
          "internalType": "address payable",
          "name": "_account",
          "type": "address"
        },
        {
          "internalType": "string",
          "name": "_hashID",
          "type": "string"
        },
        {
          "internalType": "uint256",
          "name": "_id",
          "type": "uint256"
        }
      ],
      "stateMutability": "view",
      "type": "function",
      "constant": true
    },
    {
      "inputs": [
        {
          "internalType": "string",
          "name": "_hashID",
          "type": "string"
        }
      ],
      "name": "createNewAccount",
      "outputs": [
        {
          "internalType": "bool",
          "name": "",
          "type": "bool"
        }
      ],
      "stateMutability": "nonpayable",
      "type": "function"
    },
    {
      "inputs": [
        {
          "internalType": "string",
          "name": "_hashID",
          "type": "string"
        }
      ],
      "name": "updateAccountDetails",
      "outputs": [],
      "stateMutability": "nonpayable",
      "type": "function"
    },
    {
      "inputs": [
        {
          "internalType": "address",
          "name": "_account",
          "type": "address"
        }
      ],
      "name": "findUserByAddress",
      "outputs": [
        {
          "components": [
            {
              "internalType": "address payable",
              "name": "_account",
              "type": "address"
            },
            {
              "internalType": "string",
              "name": "_hashID",
              "type": "string"
            },
            {
              "internalType": "uint256",
              "name": "_id",
              "type": "uint256"
            }
          ],
          "internalType": "struct UserContract.User",
          "name": "",
          "type": "tuple"
        }
      ],
      "stateMutability": "view",
      "type": "function",
      "constant": true
    }
  ],
  "bytecode": "0x608060405234801561001057600080fd5b5060008054600160a060020a0319163317808255604051600160a060020a039190911691907f8be0079c531659141344cd1fd0a4f28419497f9722a3daafe3b4186f6b6457e0908290a361096a806100696000396000f3fe608060405234801561001057600080fd5b5060043610610073577c0100000000000000000000000000000000000000000000000000000000600035046317b5c36d81146100785780638da5cb5b146100a1578063a87430ba146100b6578063c17ab5f0146100d8578063d6284044146100ed575b600080fd5b61008b610086366004610645565b61010d565b60405161009891906108b3565b60405180910390f35b6100a9610229565b604051610098919061074f565b6100c96100c4366004610645565b610238565b60405161009893929190610763565b6100eb6100e636600461066c565b6102f1565b005b6101006100fb36600461066c565b6103d6565b6040516100989190610795565b610115610588565b600160a060020a0382166000908152600160205260409020600201546101595760405160e560020a62461bcd0281526004016101509061087c565b60405180910390fd5b600160a060020a0382811660009081526001602081815260409283902083516060810185528154909516855280830180548551600261010096831615969096026000190190911694909404601f81018490048402850184019095528484529093858301939283018282801561020f5780601f106101e45761010080835404028352916020019161020f565b820191906000526020600020905b8154815290600101906020018083116101f257829003601f168201915b505050505081526020016002820154815250509050919050565b600054600160a060020a031690565b600160208181526000928352604092839020805481840180548651600261010097831615979097026000190190911695909504601f8101859004850286018501909652858552600160a060020a03909116949193929091908301828280156102e15780601f106102b6576101008083540402835291602001916102e1565b820191906000526020600020905b8154815290600101906020018083116102c457829003601f168201915b5050505050908060020154905083565b336000818152600160205260409020600201546103235760405160e560020a62461bcd0281526004016101509061087c565b61033b60405180602001604052806000815250610516565b61034483610516565b14156103655760405160e560020a62461bcd02815260040161015090610845565b600160a060020a03808216600081815260016020526040902054909116146103a25760405160e560020a62461bcd0281526004016101509061080e565b600160a060020a038116600090815260016020818152604090922084516103d1939190920191908501906105b2565b505050565b336000818152600160205260408120600201549091901561040c5760405160e560020a62461bcd028152600401610150906107a0565b61042460405180602001604052806000815250610516565b61042d84610516565b141561044e5760405160e560020a62461bcd02815260040161015090610845565b610459600254610546565b600255610464610588565b5060408051606081018252600160a060020a0383811680835260208084018881526002548587015260009283526001808352959092208451815473ffffffffffffffffffffffffffffffffffffffff1916941693909317835590518051939485946104d69391850192909101906105b2565b506040918201516002918201555490517fb993381ba8f4240ce3f7b76903ea25b60532c055966da6a88e3281d4dadde54490600090a25060019392505050565b6000816040516020016105299190610733565b604051602081830303815290604052805190602001209050919050565b6000610553826001610559565b92915050565b6000828201838110156105815760405160e560020a62461bcd028152600401610150906107d7565b9392505050565b60405180606001604052806000600160a060020a0316815260200160608152602001600081525090565b828054600181600116156101000203166002900490600052602060002090601f016020900481019282601f106105f357805160ff1916838001178555610620565b82800160010185558215610620579182015b82811115610620578251825591602001919060010190610605565b5061062c929150610630565b5090565b5b8082111561062c5760008155600101610631565b600060208284031215610656578081fd5b8135600160a060020a0381168114610581578182fd5b60006020828403121561067d578081fd5b813567ffffffffffffffff80821115610694578283fd5b818401915084601f8301126106a7578283fd5b8135818111156106b5578384fd5b604051601f8201601f1916810160200183811182821017156106d5578586fd5b6040528181528382016020018710156106ec578485fd5b6106fd8260208301602087016108f8565b9695505050505050565b6000815180845261071f816020860160208601610904565b601f01601f19169290920160200192915050565b60008251610745818460208701610904565b9190910192915050565b600160a060020a0391909116815260200190565b6000600160a060020a0385168252606060208301526107856060830185610707565b9050826040830152949350505050565b901515815260200190565b60208082526018908201527f557365722068617320616c726561647920657869737465640000000000000000604082015260600190565b6020808252601b908201527f536166654d6174683a206164646974696f6e206f766572666c6f770000000000604082015260600190565b60208082526011908201527f4e6f7420612076616c6964206f776e6572000000000000000000000000000000604082015260600190565b6020808252600f908201527f496e76616c696420686173682069640000000000000000000000000000000000604082015260600190565b60208082526013908201527f5573657220646f6573206e6f7420657869737400000000000000000000000000604082015260600190565b600060208252600160a060020a0383511660208301526020830151606060408401526108e26080840182610707565b9050604084015160608401528091505092915050565b82818337506000910152565b60005b8381101561091f578181015183820152602001610907565b8381111561092e576000848401525b5050505056fea26469706673582212202d7e7413fc06f1783d2933805dccf2971753b5331318474d85574bc2fb78e44e64736f6c63430007000033",
  "immutableReferences": {},
  "source": "// SPDX-License-Identifier: MIT\r\npragma experimental ABIEncoderV2;\r\npragma solidity ^0.7.0;\r\n\r\nimport \"./Openzepplin/Ownable.sol\";\r\nimport \"./Openzepplin/SafeMath.sol\";\r\n\r\ncontract UserContract is Ownable {\r\n    using SafeMath for uint;\r\n\r\n    mapping(address => User) public users;\r\n    uint userCounter;\r\n    \r\n    // Structures\r\n    struct User {\r\n        address payable _account;\r\n        string _hashID;\r\n        uint _id;\r\n    }\r\n    \r\n    // Events\r\n    event NewSellerCreated(uint indexed _id);\r\n    // event AccountDeleted(User _user);\r\n    \r\n\r\n    // Create new User\r\n    function createNewAccount(string memory _hashID) external returns(bool) {\r\n        address payable _user = msg.sender;\r\n        require(users[_user]._id == 0, \"User has already existed\");\r\n        require(encode(_hashID) != encode(''), 'Invalid hash id');\r\n\r\n        userCounter = incrementCounter(userCounter);\r\n        \r\n        User memory _newUser = User(_user, _hashID, userCounter);\r\n        \r\n        users[_user] = _newUser;\r\n        emit NewSellerCreated(userCounter);\r\n        return true;\r\n    }\r\n    \r\n    // Update account details\r\n    function updateAccountDetails(string memory _hashID) external {\r\n        address payable _account = msg.sender;\r\n        require(users[_account]._id > 0, \"User does not exist\");\r\n        require(encode(_hashID) != encode(''), 'Invalid hash id');\r\n        require(_account == users[_account]._account, 'Not a valid owner');\r\n\r\n        users[_account]._hashID = _hashID;\r\n    }\r\n\r\n    // Find user by address\r\n    function findUserByAddress(address _account) public view returns(User memory) {\r\n        require(users[_account]._id > 0, \"User does not exist\");\r\n        return users[_account];\r\n    }\r\n\r\n    // Increment seller's count\r\n    function incrementCounter(uint _count) internal pure returns(uint) {\r\n        return _count.add(1);\r\n    }\r\n\r\n    function encode(string memory _data) internal pure returns(bytes32) {\r\n        return keccak256(abi.encodePacked(_data));\r\n    }\r\n\r\n}",
  "sourcePath": "C:\\Users\\DragonLord\\Desktop\\dApp\\Handler Bazzar\\Backend\\contracts\\User.sol",
  "compiler": {
    "name": "solc",
    "version": "0.7.0+commit.9e61f92b.Emscripten.clang"
  },
  "schemaVersion": "3.2.3",
  "updatedAt": "2020-09-18T19:41:47.372Z",
  "networkType": "ethereum",
  "devdoc": {
    "kind": "dev",
    "methods": {},
    "version": 1
  },
  "userdoc": {
    "kind": "user",
    "methods": {},
    "version": 1
  }
}